{
  "_format": "hh-sol-artifact-1",
  "contractName": "Treasury",
  "sourceName": "contracts/Treasury.sol",
  "abi": [
    {
      "inputs": [
        {
          "internalType": "address",
          "name": "_cash",
          "type": "address"
        },
        {
          "internalType": "address",
          "name": "_bond",
          "type": "address"
        },
        {
          "internalType": "address",
          "name": "_share",
          "type": "address"
        },
        {
          "internalType": "address",
          "name": "_cashOracle",
          "type": "address"
        },
        {
          "internalType": "address",
          "name": "_boardroom",
          "type": "address"
        },
        {
          "internalType": "address",
          "name": "_unirouter",
          "type": "address"
        },
        {
          "internalType": "uint256",
          "name": "_startTime",
          "type": "uint256"
        }
      ],
      "stateMutability": "nonpayable",
      "type": "constructor"
    },
    {
      "anonymous": false,
      "inputs": [
        {
          "indexed": false,
          "internalType": "uint256",
          "name": "timestamp",
          "type": "uint256"
        },
        {
          "indexed": false,
          "internalType": "uint256",
          "name": "seigniorage",
          "type": "uint256"
        }
      ],
      "name": "BoardroomFunded",
      "type": "event"
    },
    {
      "anonymous": false,
      "inputs": [
        {
          "indexed": true,
          "internalType": "address",
          "name": "from",
          "type": "address"
        },
        {
          "indexed": false,
          "internalType": "uint256",
          "name": "amount",
          "type": "uint256"
        }
      ],
      "name": "BoughtBonds",
      "type": "event"
    },
    {
      "anonymous": false,
      "inputs": [
        {
          "indexed": true,
          "internalType": "address",
          "name": "executor",
          "type": "address"
        },
        {
          "indexed": false,
          "internalType": "uint256",
          "name": "at",
          "type": "uint256"
        }
      ],
      "name": "Initialized",
      "type": "event"
    },
    {
      "anonymous": false,
      "inputs": [
        {
          "indexed": true,
          "internalType": "address",
          "name": "target",
          "type": "address"
        }
      ],
      "name": "Migration",
      "type": "event"
    },
    {
      "anonymous": false,
      "inputs": [
        {
          "indexed": true,
          "internalType": "address",
          "name": "previousOperator",
          "type": "address"
        },
        {
          "indexed": true,
          "internalType": "address",
          "name": "newOperator",
          "type": "address"
        }
      ],
      "name": "OperatorTransferred",
      "type": "event"
    },
    {
      "anonymous": false,
      "inputs": [
        {
          "indexed": true,
          "internalType": "address",
          "name": "previousOwner",
          "type": "address"
        },
        {
          "indexed": true,
          "internalType": "address",
          "name": "newOwner",
          "type": "address"
        }
      ],
      "name": "OwnershipTransferred",
      "type": "event"
    },
    {
      "anonymous": false,
      "inputs": [
        {
          "indexed": true,
          "internalType": "address",
          "name": "from",
          "type": "address"
        },
        {
          "indexed": false,
          "internalType": "uint256",
          "name": "amount",
          "type": "uint256"
        }
      ],
      "name": "RedeemedBonds",
      "type": "event"
    },
    {
      "anonymous": false,
      "inputs": [
        {
          "indexed": false,
          "internalType": "uint256",
          "name": "timestamp",
          "type": "uint256"
        },
        {
          "indexed": false,
          "internalType": "uint256",
          "name": "seigniorage",
          "type": "uint256"
        }
      ],
      "name": "TreasuryFunded",
      "type": "event"
    },
    {
      "inputs": [],
      "name": "PERIOD",
      "outputs": [
        {
          "internalType": "uint256",
          "name": "",
          "type": "uint256"
        }
      ],
      "stateMutability": "view",
      "type": "function"
    },
    {
      "inputs": [],
      "name": "allocateSeigniorage",
      "outputs": [],
      "stateMutability": "nonpayable",
      "type": "function"
    },
    {
      "inputs": [],
      "name": "boardroom",
      "outputs": [
        {
          "internalType": "address",
          "name": "",
          "type": "address"
        }
      ],
      "stateMutability": "view",
      "type": "function"
    },
    {
      "inputs": [],
      "name": "bond",
      "outputs": [
        {
          "internalType": "address",
          "name": "",
          "type": "address"
        }
      ],
      "stateMutability": "view",
      "type": "function"
    },
    {
      "inputs": [],
      "name": "bondDepletionFloor",
      "outputs": [
        {
          "internalType": "uint256",
          "name": "",
          "type": "uint256"
        }
      ],
      "stateMutability": "view",
      "type": "function"
    },
    {
      "inputs": [
        {
          "internalType": "uint256",
          "name": "amount",
          "type": "uint256"
        },
        {
          "internalType": "uint256",
          "name": "targetPrice",
          "type": "uint256"
        }
      ],
      "name": "buyBonds",
      "outputs": [],
      "stateMutability": "nonpayable",
      "type": "function"
    },
    {
      "inputs": [],
      "name": "cash",
      "outputs": [
        {
          "internalType": "address",
          "name": "",
          "type": "address"
        }
      ],
      "stateMutability": "view",
      "type": "function"
    },
    {
      "inputs": [],
      "name": "cashOracle",
      "outputs": [
        {
          "internalType": "address",
          "name": "",
          "type": "address"
        }
      ],
      "stateMutability": "view",
      "type": "function"
    },
    {
      "inputs": [],
      "name": "cashPriceCeiling",
      "outputs": [
        {
          "internalType": "uint256",
          "name": "",
          "type": "uint256"
        }
      ],
      "stateMutability": "view",
      "type": "function"
    },
    {
      "inputs": [],
      "name": "cashPriceOne",
      "outputs": [
        {
          "internalType": "uint256",
          "name": "",
          "type": "uint256"
        }
      ],
      "stateMutability": "view",
      "type": "function"
    },
    {
      "inputs": [],
      "name": "epoch",
      "outputs": [
        {
          "internalType": "uint256",
          "name": "",
          "type": "uint256"
        }
      ],
      "stateMutability": "view",
      "type": "function"
    },
    {
      "inputs": [],
      "name": "getCashPrice",
      "outputs": [
        {
          "internalType": "uint256",
          "name": "cashPrice",
          "type": "uint256"
        }
      ],
      "stateMutability": "view",
      "type": "function"
    },
    {
      "inputs": [],
      "name": "getReserve",
      "outputs": [
        {
          "internalType": "uint256",
          "name": "",
          "type": "uint256"
        }
      ],
      "stateMutability": "view",
      "type": "function"
    },
    {
      "inputs": [
        {
          "internalType": "address payable",
          "name": "account",
          "type": "address"
        },
        {
          "internalType": "uint256",
          "name": "amount",
          "type": "uint256"
        }
      ],
      "name": "handleReserve",
      "outputs": [],
      "stateMutability": "nonpayable",
      "type": "function"
    },
    {
      "inputs": [],
      "name": "initialize",
      "outputs": [],
      "stateMutability": "nonpayable",
      "type": "function"
    },
    {
      "inputs": [],
      "name": "isInitialized",
      "outputs": [
        {
          "internalType": "bool",
          "name": "",
          "type": "bool"
        }
      ],
      "stateMutability": "view",
      "type": "function"
    },
    {
      "inputs": [],
      "name": "isMigrated",
      "outputs": [
        {
          "internalType": "bool",
          "name": "",
          "type": "bool"
        }
      ],
      "stateMutability": "view",
      "type": "function"
    },
    {
      "inputs": [],
      "name": "isOperator",
      "outputs": [
        {
          "internalType": "bool",
          "name": "",
          "type": "bool"
        }
      ],
      "stateMutability": "view",
      "type": "function"
    },
    {
      "inputs": [
        {
          "internalType": "address",
          "name": "target",
          "type": "address"
        }
      ],
      "name": "migrate",
      "outputs": [],
      "stateMutability": "nonpayable",
      "type": "function"
    },
    {
      "inputs": [],
      "name": "nextEpochPoint",
      "outputs": [
        {
          "internalType": "uint256",
          "name": "",
          "type": "uint256"
        }
      ],
      "stateMutability": "view",
      "type": "function"
    },
    {
      "inputs": [],
      "name": "operator",
      "outputs": [
        {
          "internalType": "address",
          "name": "",
          "type": "address"
        }
      ],
      "stateMutability": "view",
      "type": "function"
    },
    {
      "inputs": [],
      "name": "owner",
      "outputs": [
        {
          "internalType": "address",
          "name": "",
          "type": "address"
        }
      ],
      "stateMutability": "view",
      "type": "function"
    },
    {
      "inputs": [
        {
          "internalType": "uint256",
          "name": "",
          "type": "uint256"
        }
      ],
      "name": "path",
      "outputs": [
        {
          "internalType": "address",
          "name": "",
          "type": "address"
        }
      ],
      "stateMutability": "view",
      "type": "function"
    },
    {
      "inputs": [
        {
          "internalType": "uint256",
          "name": "amount",
          "type": "uint256"
        },
        {
          "internalType": "uint256",
          "name": "targetPrice",
          "type": "uint256"
        }
      ],
      "name": "redeemBonds",
      "outputs": [],
      "stateMutability": "nonpayable",
      "type": "function"
    },
    {
      "inputs": [],
      "name": "renounceOwnership",
      "outputs": [],
      "stateMutability": "nonpayable",
      "type": "function"
    },
    {
      "inputs": [],
      "name": "seigniorageSaved",
      "outputs": [
        {
          "internalType": "uint256",
          "name": "",
          "type": "uint256"
        }
      ],
      "stateMutability": "view",
      "type": "function"
    },
    {
      "inputs": [
        {
          "internalType": "address[]",
          "name": "_path",
          "type": "address[]"
        }
      ],
      "name": "setPath",
      "outputs": [],
      "stateMutability": "nonpayable",
      "type": "function"
    },
    {
      "inputs": [],
      "name": "share",
      "outputs": [
        {
          "internalType": "address",
          "name": "",
          "type": "address"
        }
      ],
      "stateMutability": "view",
      "type": "function"
    },
    {
      "inputs": [],
      "name": "startTime",
      "outputs": [
        {
          "internalType": "uint256",
          "name": "",
          "type": "uint256"
        }
      ],
      "stateMutability": "view",
      "type": "function"
    },
    {
      "inputs": [
        {
          "internalType": "address",
          "name": "newOperator_",
          "type": "address"
        }
      ],
      "name": "transferOperator",
      "outputs": [],
      "stateMutability": "nonpayable",
      "type": "function"
    },
    {
      "inputs": [
        {
          "internalType": "address",
          "name": "newOwner",
          "type": "address"
        }
      ],
      "name": "transferOwnership",
      "outputs": [],
      "stateMutability": "nonpayable",
      "type": "function"
    },
    {
      "inputs": [],
      "name": "treasuryavailable",
      "outputs": [
        {
          "internalType": "uint256",
          "name": "",
          "type": "uint256"
        }
      ],
      "stateMutability": "view",
      "type": "function"
    },
    {
      "inputs": [],
      "name": "unirouter",
      "outputs": [
        {
          "internalType": "contract IUniswapV2Router02",
          "name": "",
          "type": "address"
        }
      ],
      "stateMutability": "view",
      "type": "function"
    },
    {
      "inputs": [
        {
          "internalType": "address",
          "name": "_to",
          "type": "address"
        },
        {
          "internalType": "uint256",
          "name": "_amount",
          "type": "uint256"
        }
      ],
      "name": "withdrawTreasuryKeeped",
      "outputs": [],
      "stateMutability": "nonpayable",
      "type": "function"
    },
    {
      "stateMutability": "payable",
      "type": "receive"
    }
  ],
  "bytecode": "0x60806040526002805461ffff60a01b1916905560006004819055600f8190556010553480156200002e57600080fd5b506040516200400a3803806200400a833981810160405260e08110156200005457600080fd5b508051602082015160408301516060840151608085015160a086015160c090960151949593949293919290919060006200008d620002b2565b600180546001600160a01b0319166001600160a01b038316908117909155604051919250906000907f8be0079c531659141344cd1fd0a4f28419497f9722a3daafe3b4186f6b6457e0908290a350620000e5620002b2565b600280546001600160a01b0319166001600160a01b0392831617908190556040519116906000907f74da04524d50c64947f5dd5381ef1a4dca5cba8ed1d816243f9e48aa0b5617ed908290a3600580546001600160a01b03199081166001600160a01b038a811691909117909255600680548216898416179055600780548216888416179055600980548216878416179055600880548216868416179055600a80549091168483161790819055604080516315ab88c960e31b81529051600093929092169163ad5c464891600480820192602092909190829003018186803b158015620001d157600080fd5b505afa158015620001e6573d6000803e3d6000fd5b505050506040513d6020811015620001fd57600080fd5b5051604080518082019091526005546001600160a01b039081168252821660208201529091506200023390600b9060026200040e565b5081600381905550620f4240600c819055506200027c606462000268600c546069620002b660201b620030fd1790919060201c565b6200031d60201b6200315f1790919060201c565b600d81905550620002a0600c546103e8620002b660201b620030fd1790919060201c565b600e5550620004999650505050505050565b3390565b600082620002c75750600062000317565b82820282848281620002d557fe5b0414620003145760405162461bcd60e51b815260040180806020018281038252602181526020018062003fe96021913960400191505060405180910390fd5b90505b92915050565b60006200031483836040518060400160405280601a81526020017f536166654d6174683a206469766973696f6e206279207a65726f0000000000008152506200036760201b60201c565b60008183620003f75760405162461bcd60e51b81526004018080602001828103825283818151815260200191508051906020019080838360005b83811015620003bb578181015183820152602001620003a1565b50505050905090810190601f168015620003e95780820380516001836020036101000a031916815260200191505b509250505060405180910390fd5b5060008385816200040457fe5b0495945050505050565b82805482825590600052602060002090810192821562000466579160200282015b828111156200046657825182546001600160a01b0319166001600160a01b039091161782556020909201916001909101906200042f565b506200047492915062000478565b5090565b5b80821115620004745780546001600160a01b031916815560010162000479565b613b4080620004a96000396000f3fe6080604052600436106101fd5760003560e01c8063715018a61161010d578063a9cfc46e116100a0578063c5967c261161006f578063c5967c26146105c7578063ce5494bb146105dc578063e03047b71461060f578063e7a4e8a614610624578063f2fde38b1461063957610204565b8063a9cfc46e1461055e578063af6d1fe414610573578063b06faf621461059d578063b4d1d795146105b257610204565b8063900cf0cf116100dc578063900cf0cf146104e6578063961be391146104fb578063a737b5e414610510578063a8d5fd651461054957610204565b8063715018a61461049257806378e97925146104a75780638129fc1c146104bc5780638da5cb5b146104d157610204565b80634456eda2116101905780635a0fc79c1161015f5780635a0fc79c146103c15780635b756179146103d65780635e02c51e146103eb57806364c9ec6f14610400578063686ca00d1461041557610204565b80634456eda21461035257806354f04a1114610367578063570ca7351461039757806359bf5d39146103ac57610204565b8063257ae0de116101cc578063257ae0de1461028c57806329605e77146102bd578063392e53cd146102f057806343f531fa1461031957610204565b806306cdcaf314610209578063118ebbf91461023057806316ec08941461026257806323ced1351461027757610204565b3661020457005b600080fd5b34801561021557600080fd5b5061021e61066c565b60408051918252519081900360200190f35b34801561023c57600080fd5b506102606004803603604081101561025357600080fd5b5080359060200135610672565b005b34801561026e57600080fd5b5061021e610c8c565b34801561028357600080fd5b5061021e610d53565b34801561029857600080fd5b506102a1610d59565b604080516001600160a01b039092168252519081900360200190f35b3480156102c957600080fd5b50610260600480360360208110156102e057600080fd5b50356001600160a01b0316610d68565b3480156102fc57600080fd5b50610305610dde565b604080519115158252519081900360200190f35b34801561032557600080fd5b506102606004803603604081101561033c57600080fd5b506001600160a01b038135169060200135610dee565b34801561035e57600080fd5b50610305610ec7565b34801561037357600080fd5b506102606004803603604081101561038a57600080fd5b5080359060200135610eed565b3480156103a357600080fd5b506102a16114bf565b3480156103b857600080fd5b5061021e6114ce565b3480156103cd57600080fd5b5061021e6114d4565b3480156103e257600080fd5b506102606114da565b3480156103f757600080fd5b506102a1611f43565b34801561040c57600080fd5b506102a1611f52565b34801561042157600080fd5b506102606004803603602081101561043857600080fd5b81019060208101813564010000000081111561045357600080fd5b82018360208201111561046557600080fd5b8035906020019184602083028401116401000000008311171561048757600080fd5b509092509050611f61565b34801561049e57600080fd5b50610260611fb6565b3480156104b357600080fd5b5061021e61206a565b3480156104c857600080fd5b50610260612070565b3480156104dd57600080fd5b506102a1612530565b3480156104f257600080fd5b5061021e61253f565b34801561050757600080fd5b506102a1612545565b34801561051c57600080fd5b506102606004803603604081101561053357600080fd5b506001600160a01b038135169060200135612554565b34801561055557600080fd5b506102a16126e9565b34801561056a57600080fd5b5061021e6126f8565b34801561057f57600080fd5b506102a16004803603602081101561059657600080fd5b50356126fe565b3480156105a957600080fd5b50610305612725565b3480156105be57600080fd5b5061021e612735565b3480156105d357600080fd5b5061021e61273c565b3480156105e857600080fd5b50610260600480360360208110156105ff57600080fd5b50356001600160a01b0316612762565b34801561061b57600080fd5b5061021e612fdd565b34801561063057600080fd5b506102a1612fe3565b34801561064557600080fd5b506102606004803603602081101561065c57600080fd5b50356001600160a01b0316612ff2565b60105481565b61067a6131a1565b156106b65760405162461bcd60e51b8152600401808060200182810382526026815260200180613a7e6026913960400191505060405180910390fd5b6106be6131c0565b156106fa5760405162461bcd60e51b8152600401808060200182810382526026815260200180613a7e6026913960400191505060405180910390fd5b600254600160a01b900460ff161561074e576040805162461bcd60e51b8152602060048201526012602482015271151c99585cdd5c9e4e881b5a59dc985d195960721b604482015290519081900360640190fd5b6003544210156107a1576040805162461bcd60e51b8152602060048201526019602482015278151c99585cdd5c9e4e881b9bdd081cdd185c9d1959081e595d603a1b604482015290519081900360640190fd5b6005546040805163570ca73560e01b8152905130926001600160a01b03169163570ca735916004808301926020929190829003018186803b1580156107e557600080fd5b505afa1580156107f9573d6000803e3d6000fd5b505050506040513d602081101561080f57600080fd5b50516001600160a01b031614801561089d57506006546040805163570ca73560e01b8152905130926001600160a01b03169163570ca735916004808301926020929190829003018186803b15801561086657600080fd5b505afa15801561087a573d6000803e3d6000fd5b505050506040513d602081101561089057600080fd5b50516001600160a01b0316145b801561091f57506007546040805163570ca73560e01b8152905130926001600160a01b03169163570ca735916004808301926020929190829003018186803b1580156108e857600080fd5b505afa1580156108fc573d6000803e3d6000fd5b505050506040513d602081101561091257600080fd5b50516001600160a01b0316145b80156109a157506008546040805163570ca73560e01b8152905130926001600160a01b03169163570ca735916004808301926020929190829003018186803b15801561096a57600080fd5b505afa15801561097e573d6000803e3d6000fd5b505050506040513d602081101561099457600080fd5b50516001600160a01b0316145b6109e0576040805162461bcd60e51b815260206004820152601e60248201526000805160206139e0833981519152604482015290519081900360640190fd5b60008211610a1f5760405162461bcd60e51b815260040180806020018281038252602e8152602001806138d7602e913960400191505060405180910390fd5b6000610a29610c8c565b9050818114610a7f576040805162461bcd60e51b815260206004820152601a60248201527f54726561737572793a2063617368207072696365206d6f766564000000000000604482015290519081900360640190fd5b600d548111610abf5760405162461bcd60e51b81526004018080602001828103825260328152602001806139056032913960400191505060405180910390fd5b600554604080516370a0823160e01b8152306004820152905185926001600160a01b0316916370a08231916024808301926020929190829003018186803b158015610b0957600080fd5b505afa158015610b1d573d6000803e3d6000fd5b505050506040513d6020811015610b3357600080fd5b50511015610b725760405162461bcd60e51b81526004018080602001828103825260258152602001806139646025913960400191505060405180910390fd5b610b8a610b81600f54856131df565b600f54906131f5565b600f556006546040805163079cc67960e41b81523360048201526024810186905290516001600160a01b03909216916379cc67909160448082019260009290919082900301818387803b158015610be057600080fd5b505af1158015610bf4573d6000803e3d6000fd5b5050600554610c1092506001600160a01b031690503385613237565b610c18613289565b60408051848152905133917f9c3478f12dce08d85673d802af16ed5b9ebab8420ffd7b145d65d3157084b2ce919081900360200190a25050436000908152602081815260408083203284529091528082208054600160ff199182168117909255338452919092208054909116909117905550565b60095460055460408051633ddac95360e01b81526001600160a01b039283166004820152670de0b6b3a7640000602482015290516000939290921691633ddac95391604480820192602092909190829003018186803b158015610cee57600080fd5b505afa925050508015610d1357506040513d6020811015610d0e57600080fd5b505160015b610d4e5760405162461bcd60e51b81526004018080602001828103825260368152602001806139aa6036913960400191505060405180910390fd5b905090565b600d5481565b600a546001600160a01b031681565b610d706132e9565b6001546001600160a01b03908116911614610dd2576040805162461bcd60e51b815260206004820181905260248201527f4f776e61626c653a2063616c6c6572206973206e6f7420746865206f776e6572604482015290519081900360640190fd5b610ddb816132ed565b50565b600254600160a81b900460ff1690565b6002546001600160a01b03163314610e375760405162461bcd60e51b8152600401808060200182810382526024815260200180613a306024913960400191505060405180910390fd5b80471015610e8c576040805162461bcd60e51b815260206004820152601c60248201527f54726561737572793a2062616c616e6365206e6f7420656e6f75676800000000604482015290519081900360640190fd5b6040516001600160a01b0383169082156108fc029083906000818181858888f19350505050158015610ec2573d6000803e3d6000fd5b505050565b6002546000906001600160a01b0316610ede6132e9565b6001600160a01b031614905090565b610ef56131a1565b15610f315760405162461bcd60e51b8152600401808060200182810382526026815260200180613a7e6026913960400191505060405180910390fd5b610f396131c0565b15610f755760405162461bcd60e51b8152600401808060200182810382526026815260200180613a7e6026913960400191505060405180910390fd5b600254600160a01b900460ff1615610fc9576040805162461bcd60e51b8152602060048201526012602482015271151c99585cdd5c9e4e881b5a59dc985d195960721b604482015290519081900360640190fd5b60035442101561101c576040805162461bcd60e51b8152602060048201526019602482015278151c99585cdd5c9e4e881b9bdd081cdd185c9d1959081e595d603a1b604482015290519081900360640190fd5b6005546040805163570ca73560e01b8152905130926001600160a01b03169163570ca735916004808301926020929190829003018186803b15801561106057600080fd5b505afa158015611074573d6000803e3d6000fd5b505050506040513d602081101561108a57600080fd5b50516001600160a01b031614801561111857506006546040805163570ca73560e01b8152905130926001600160a01b03169163570ca735916004808301926020929190829003018186803b1580156110e157600080fd5b505afa1580156110f5573d6000803e3d6000fd5b505050506040513d602081101561110b57600080fd5b50516001600160a01b0316145b801561119a57506007546040805163570ca73560e01b8152905130926001600160a01b03169163570ca735916004808301926020929190829003018186803b15801561116357600080fd5b505afa158015611177573d6000803e3d6000fd5b505050506040513d602081101561118d57600080fd5b50516001600160a01b0316145b801561121c57506008546040805163570ca73560e01b8152905130926001600160a01b03169163570ca735916004808301926020929190829003018186803b1580156111e557600080fd5b505afa1580156111f9573d6000803e3d6000fd5b505050506040513d602081101561120f57600080fd5b50516001600160a01b0316145b61125b576040805162461bcd60e51b815260206004820152601e60248201526000805160206139e0833981519152604482015290519081900360640190fd5b6000821161129a5760405162461bcd60e51b8152600401808060200182810382526030815260200180613a006030913960400191505060405180910390fd5b60006112a4610c8c565b90508181146112fa576040805162461bcd60e51b815260206004820152601a60248201527f54726561737572793a2063617368207072696365206d6f766564000000000000604482015290519081900360640190fd5b600c54811061133a5760405162461bcd60e51b81526004018080602001828103825260328152602001806139056032913960400191505060405180910390fd5b6005546040805163079cc67960e41b815233600482015260248101869052905183926001600160a01b0316916379cc679091604480830192600092919082900301818387803b15801561138c57600080fd5b505af11580156113a0573d6000803e3d6000fd5b50506006546001600160a01b031691506340c10f199050336113cf846113c989620f42406130fd565b9061315f565b6040518363ffffffff1660e01b815260040180836001600160a01b0316815260200182815260200192505050602060405180830381600087803b15801561141557600080fd5b505af1158015611429573d6000803e3d6000fd5b505050506040513d602081101561143f57600080fd5b5061144a9050613289565b60408051858152905133917fdbf5270c3cf4729fec4fdac76fda864aa4f3d14d657ad21772ac28f627141ed9919081900360200190a25050436000908152602081815260408083203284529091528082208054600160ff19918216811790925533845291909220805490911690911790555050565b6002546001600160a01b031690565b600f5490565b600f5481565b6114e26131a1565b1561151e5760405162461bcd60e51b8152600401808060200182810382526026815260200180613a7e6026913960400191505060405180910390fd5b6115266131c0565b156115625760405162461bcd60e51b8152600401808060200182810382526026815260200180613a7e6026913960400191505060405180910390fd5b600254600160a01b900460ff16156115b6576040805162461bcd60e51b8152602060048201526012602482015271151c99585cdd5c9e4e881b5a59dc985d195960721b604482015290519081900360640190fd5b600354421015611609576040805162461bcd60e51b8152602060048201526019602482015278151c99585cdd5c9e4e881b9bdd081cdd185c9d1959081e595d603a1b604482015290519081900360640190fd5b61161161273c565b421015611665576040805162461bcd60e51b815260206004820152601860248201527f54726561737572793a206e6f74206f70656e6564207965740000000000000000604482015290519081900360640190fd5b6005546040805163570ca73560e01b8152905130926001600160a01b03169163570ca735916004808301926020929190829003018186803b1580156116a957600080fd5b505afa1580156116bd573d6000803e3d6000fd5b505050506040513d60208110156116d357600080fd5b50516001600160a01b031614801561176157506006546040805163570ca73560e01b8152905130926001600160a01b03169163570ca735916004808301926020929190829003018186803b15801561172a57600080fd5b505afa15801561173e573d6000803e3d6000fd5b505050506040513d602081101561175457600080fd5b50516001600160a01b0316145b80156117e357506007546040805163570ca73560e01b8152905130926001600160a01b03169163570ca735916004808301926020929190829003018186803b1580156117ac57600080fd5b505afa1580156117c0573d6000803e3d6000fd5b505050506040513d60208110156117d657600080fd5b50516001600160a01b0316145b801561186557506008546040805163570ca73560e01b8152905130926001600160a01b03169163570ca735916004808301926020929190829003018186803b15801561182e57600080fd5b505afa158015611842573d6000803e3d6000fd5b505050506040513d602081101561185857600080fd5b50516001600160a01b0316145b6118a4576040805162461bcd60e51b815260206004820152601e60248201526000805160206139e0833981519152604482015290519081900360640190fd5b6118ac613289565b60006118b6610c8c565b9050600d5481116118f85760405162461bcd60e51b8152600401808060200182810382526031815260200180613ada6031913960400191505060405180910390fd5b6000611980600f54600560009054906101000a90046001600160a01b03166001600160a01b03166318160ddd6040518163ffffffff1660e01b815260040160206040518083038186803b15801561194e57600080fd5b505afa158015611962573d6000803e3d6000fd5b505050506040513d602081101561197857600080fd5b5051906131f5565b90506000611999600c54846131f590919063ffffffff16565b905060006119ae620f42406113c985856130fd565b600e549091506119c190620f424061315f565b600f546119d690670de0b6b3a764000061315f565b1115611e2657600554604080516340c10f1960e01b81523060048201526024810184905290516001600160a01b03909216916340c10f19916044808201926020929091908290030181600087803b158015611a3057600080fd5b505af1158015611a44573d6000803e3d6000fd5b505050506040513d6020811015611a5a57600080fd5b505060095460055460408051630fa6707960e21b81526001600160a01b03928316600482015290516000939290921691633e99c1e491602480820192602092909190829003018186803b158015611ab057600080fd5b505afa158015611ac4573d6000803e3d6000fd5b505050506040513d6020811015611ada57600080fd5b505190506000611aeb83600a61315f565b90506000611b1382611b0e6dffffffffffffffffffffffffffff8616600261315f565b6131df565b600a54600554919250611b33916001600160a01b0390811691168361338a565b600a546001600160a01b03166318cbafe5826000600b30611b564261070861349d565b6040518663ffffffff1660e01b81526004018086815260200185815260200180602001846001600160a01b031681526020018381526020018281038252858181548152602001915080548015611bd557602002820191906000526020600020905b81546001600160a01b03168152600190910190602001808311611bb7575b50509650505050505050600060405180830381600087803b158015611bf957600080fd5b505af1925050508015611cbb57506040513d6000823e601f3d908101601f191682016040526020811015611c2c57600080fd5b8101908080516040519392919084640100000000821115611c4c57600080fd5b908301906020820185811115611c6157600080fd5b8251866020820283011164010000000082111715611c7e57600080fd5b82525081516020918201928201910280838360005b83811015611cab578181015183820152602001611c93565b5050505090500160405250505060015b611d295760055460408051630852cd8d60e31b81526004810184905290516001600160a01b03909216916342966c689160248082019260009290919082900301818387803b158015611d0c57600080fd5b505af1158015611d20573d6000803e3d6000fd5b50505050611d2b565b505b6000611d3783836131f5565b601054909150611d47908261349d565b6010556000611d5c60646113c988605a6130fd565b600854600554919250611d7c916001600160a01b0390811691168361338a565b600854604080516397ffe1d760e01b81526004810184905290516001600160a01b03909216916397ffe1d79160248082019260009290919082900301818387803b158015611dc957600080fd5b505af1158015611ddd573d6000803e3d6000fd5b5050604080514281526020810185905281517f03ca7276ab7799bf73fb79d27ff0610cd7049574f2508ef8445162833d439aea9450908190039091019150a15050505050611ef2565b600f54611e33908261349d565b600f55600554604080516340c10f1960e01b81523060048201526024810184905290516001600160a01b03909216916340c10f19916044808201926020929091908290030181600087803b158015611e8a57600080fd5b505af1158015611e9e573d6000803e3d6000fd5b505050506040513d6020811015611eb457600080fd5b5050604080514281526020810183905281517ff705142bf09f04297640495ddf7c59b7fd6f51894c5aea9602d631cf05f0efc2929181900390910190a15b5050600454611f0592509050600161349d565b600455436000908152602081815260408083203284529091528082208054600160ff1991821681179092553384529190922080549091169091179055565b6008546001600160a01b031681565b6006546001600160a01b031681565b6002546001600160a01b03163314611faa5760405162461bcd60e51b8152600401808060200182810382526024815260200180613a306024913960400191505060405180910390fd5b610ec2600b838361382e565b611fbe6132e9565b6001546001600160a01b03908116911614612020576040805162461bcd60e51b815260206004820181905260248201527f4f776e61626c653a2063616c6c6572206973206e6f7420746865206f776e6572604482015290519081900360640190fd5b6001546040516000916001600160a01b0316907f8be0079c531659141344cd1fd0a4f28419497f9722a3daafe3b4186f6b6457e0908390a3600180546001600160a01b0319169055565b60035481565b600254600160a81b900460ff16156120cf576040805162461bcd60e51b815260206004820152601d60248201527f54726561737572793a20616c726561647920696e697469616c697a6564000000604482015290519081900360640190fd5b6005546040805163570ca73560e01b8152905130926001600160a01b03169163570ca735916004808301926020929190829003018186803b15801561211357600080fd5b505afa158015612127573d6000803e3d6000fd5b505050506040513d602081101561213d57600080fd5b50516001600160a01b03161480156121cb57506006546040805163570ca73560e01b8152905130926001600160a01b03169163570ca735916004808301926020929190829003018186803b15801561219457600080fd5b505afa1580156121a8573d6000803e3d6000fd5b505050506040513d60208110156121be57600080fd5b50516001600160a01b0316145b801561224d57506007546040805163570ca73560e01b8152905130926001600160a01b03169163570ca735916004808301926020929190829003018186803b15801561221657600080fd5b505afa15801561222a573d6000803e3d6000fd5b505050506040513d602081101561224057600080fd5b50516001600160a01b0316145b80156122cf57506008546040805163570ca73560e01b8152905130926001600160a01b03169163570ca735916004808301926020929190829003018186803b15801561229857600080fd5b505afa1580156122ac573d6000803e3d6000fd5b505050506040513d60208110156122c257600080fd5b50516001600160a01b0316145b61230e576040805162461bcd60e51b815260206004820152601e60248201526000805160206139e0833981519152604482015290519081900360640190fd5b600554604080516370a0823160e01b815230600482015290516001600160a01b03909216916342966c689183916370a0823191602480820192602092909190829003018186803b15801561236157600080fd5b505afa158015612375573d6000803e3d6000fd5b505050506040513d602081101561238b57600080fd5b5051604080516001600160e01b031960e085901b168152600481019290925251602480830192600092919082900301818387803b1580156123cb57600080fd5b505af11580156123df573d6000803e3d6000fd5b5050600554604080516340c10f1960e01b8152306004820152683643aa647986040000602482015290516001600160a01b0390921693506340c10f1992506044808201926020929091908290030181600087803b15801561243f57600080fd5b505af1158015612453573d6000803e3d6000fd5b505050506040513d602081101561246957600080fd5b5050600554604080516370a0823160e01b815230600482015290516001600160a01b03909216916370a0823191602480820192602092909190829003018186803b1580156124b657600080fd5b505afa1580156124ca573d6000803e3d6000fd5b505050506040513d60208110156124e057600080fd5b5051600f556002805460ff60a81b1916600160a81b17905560408051438152905133917f25ff68dd81b34665b5ba7e553ee5511bf6812e12adb4a7e2c0d9e26b3099ce79919081900360200190a2565b6001546001600160a01b031690565b60045481565b6005546001600160a01b031681565b6002546001600160a01b0316331461259d5760405162461bcd60e51b8152600401808060200182810382526024815260200180613a306024913960400191505060405180910390fd5b600554604080516370a0823160e01b815230600482015290516000926001600160a01b0316916370a08231916024808301926020929190829003018186803b1580156125e857600080fd5b505afa1580156125fc573d6000803e3d6000fd5b505050506040513d602081101561261257600080fd5b505190508082111561266b576040805162461bcd60e51b815260206004820181905260248201527f54726561737572793a20216578636565647320746f74616c2062616c616e6365604482015290519081900360640190fd5b6010548211156126c2576040805162461bcd60e51b815260206004820152601b60248201527f54726561737572793a202165786365656473206176616961626c650000000000604482015290519081900360640190fd5b6010546126cf90836131f5565b601055600554610ec2906001600160a01b03168484613237565b6007546001600160a01b031681565b600c5481565b600b818154811061270b57fe5b6000918252602090912001546001600160a01b0316905081565b600254600160a01b900460ff1690565b6201518081565b6000610d4e612759620151806004546130fd90919063ffffffff16565b6003549061349d565b6002546001600160a01b031633146127ab5760405162461bcd60e51b8152600401808060200182810382526024815260200180613a306024913960400191505060405180910390fd5b6005546040805163570ca73560e01b8152905130926001600160a01b03169163570ca735916004808301926020929190829003018186803b1580156127ef57600080fd5b505afa158015612803573d6000803e3d6000fd5b505050506040513d602081101561281957600080fd5b50516001600160a01b03161480156128a757506006546040805163570ca73560e01b8152905130926001600160a01b03169163570ca735916004808301926020929190829003018186803b15801561287057600080fd5b505afa158015612884573d6000803e3d6000fd5b505050506040513d602081101561289a57600080fd5b50516001600160a01b0316145b801561292957506007546040805163570ca73560e01b8152905130926001600160a01b03169163570ca735916004808301926020929190829003018186803b1580156128f257600080fd5b505afa158015612906573d6000803e3d6000fd5b505050506040513d602081101561291c57600080fd5b50516001600160a01b0316145b80156129ab57506008546040805163570ca73560e01b8152905130926001600160a01b03169163570ca735916004808301926020929190829003018186803b15801561297457600080fd5b505afa158015612988573d6000803e3d6000fd5b505050506040513d602081101561299e57600080fd5b50516001600160a01b0316145b6129ea576040805162461bcd60e51b815260206004820152601e60248201526000805160206139e0833981519152604482015290519081900360640190fd5b600254600160a01b900460ff1615612a3e576040805162461bcd60e51b8152602060048201526012602482015271151c99585cdd5c9e4e881b5a59dc985d195960721b604482015290519081900360640190fd5b600554604080516329605e7760e01b81526001600160a01b038481166004830152915191909216916329605e7791602480830192600092919082900301818387803b158015612a8c57600080fd5b505af1158015612aa0573d6000803e3d6000fd5b50506005546040805163f2fde38b60e01b81526001600160a01b038681166004830152915191909216935063f2fde38b9250602480830192600092919082900301818387803b158015612af257600080fd5b505af1158015612b06573d6000803e3d6000fd5b5050600554604080516370a0823160e01b815230600482015290516001600160a01b03909216935063a9059cbb9250849184916370a08231916024808301926020929190829003018186803b158015612b5e57600080fd5b505afa158015612b72573d6000803e3d6000fd5b505050506040513d6020811015612b8857600080fd5b5051604080516001600160e01b031960e086901b1681526001600160a01b03909316600484015260248301919091525160448083019260209291908290030181600087803b158015612bd957600080fd5b505af1158015612bed573d6000803e3d6000fd5b505050506040513d6020811015612c0357600080fd5b5050600654604080516329605e7760e01b81526001600160a01b038481166004830152915191909216916329605e7791602480830192600092919082900301818387803b158015612c5357600080fd5b505af1158015612c67573d6000803e3d6000fd5b50506006546040805163f2fde38b60e01b81526001600160a01b038681166004830152915191909216935063f2fde38b9250602480830192600092919082900301818387803b158015612cb957600080fd5b505af1158015612ccd573d6000803e3d6000fd5b5050600654604080516370a0823160e01b815230600482015290516001600160a01b03909216935063a9059cbb9250849184916370a08231916024808301926020929190829003018186803b158015612d2557600080fd5b505afa158015612d39573d6000803e3d6000fd5b505050506040513d6020811015612d4f57600080fd5b5051604080516001600160e01b031960e086901b1681526001600160a01b03909316600484015260248301919091525160448083019260209291908290030181600087803b158015612da057600080fd5b505af1158015612db4573d6000803e3d6000fd5b505050506040513d6020811015612dca57600080fd5b5050600754604080516329605e7760e01b81526001600160a01b038481166004830152915191909216916329605e7791602480830192600092919082900301818387803b158015612e1a57600080fd5b505af1158015612e2e573d6000803e3d6000fd5b50506007546040805163f2fde38b60e01b81526001600160a01b038681166004830152915191909216935063f2fde38b9250602480830192600092919082900301818387803b158015612e8057600080fd5b505af1158015612e94573d6000803e3d6000fd5b5050600754604080516370a0823160e01b815230600482015290516001600160a01b03909216935063a9059cbb9250849184916370a08231916024808301926020929190829003018186803b158015612eec57600080fd5b505afa158015612f00573d6000803e3d6000fd5b505050506040513d6020811015612f1657600080fd5b5051604080516001600160e01b031960e086901b1681526001600160a01b03909316600484015260248301919091525160448083019260209291908290030181600087803b158015612f6757600080fd5b505af1158015612f7b573d6000803e3d6000fd5b505050506040513d6020811015612f9157600080fd5b50506002805460ff60a01b1916600160a01b1790556040516001600160a01b038216907f0caca70b66aed56b0630989a049110023c5a3f37e0ea4b6ce96fc747663f3ebc90600090a250565b600e5481565b6009546001600160a01b031681565b612ffa6132e9565b6001546001600160a01b0390811691161461305c576040805162461bcd60e51b815260206004820181905260248201527f4f776e61626c653a2063616c6c6572206973206e6f7420746865206f776e6572604482015290519081900360640190fd5b6001600160a01b0381166130a15760405162461bcd60e51b81526004018080602001828103825260268152602001806138b16026913960400191505060405180910390fd5b6001546040516001600160a01b038084169216907f8be0079c531659141344cd1fd0a4f28419497f9722a3daafe3b4186f6b6457e090600090a3600180546001600160a01b0319166001600160a01b0392909216919091179055565b60008261310c57506000613159565b8282028284828161311957fe5b04146131565760405162461bcd60e51b81526004018080602001828103825260218152602001806139896021913960400191505060405180910390fd5b90505b92915050565b600061315683836040518060400160405280601a81526020017f536166654d6174683a206469766973696f6e206279207a65726f0000000000008152506134f7565b4360009081526020818152604080832032845290915290205460ff1690565b4360009081526020818152604080832033845290915290205460ff1690565b60008183106131ee5781613156565b5090919050565b600061315683836040518060400160405280601e81526020017f536166654d6174683a207375627472616374696f6e206f766572666c6f770000815250613599565b604080516001600160a01b038416602482015260448082018490528251808303909101815260649091019091526020810180516001600160e01b031663a9059cbb60e01b179052610ec29084906135f3565b600960009054906101000a90046001600160a01b03166001600160a01b031663a2e620456040518163ffffffff1660e01b8152600401600060405180830381600087803b1580156132d957600080fd5b505af1925050508015610ddb5750565b3390565b6001600160a01b0381166133325760405162461bcd60e51b815260040180806020018281038252602d815260200180613937602d913960400191505060405180910390fd5b6040516001600160a01b038216906000907f74da04524d50c64947f5dd5381ef1a4dca5cba8ed1d816243f9e48aa0b5617ed908290a3600280546001600160a01b0319166001600160a01b0392909216919091179055565b801580613410575060408051636eb1769f60e11b81523060048201526001600160a01b03848116602483015291519185169163dd62ed3e91604480820192602092909190829003018186803b1580156133e257600080fd5b505afa1580156133f6573d6000803e3d6000fd5b505050506040513d602081101561340c57600080fd5b5051155b61344b5760405162461bcd60e51b8152600401808060200182810382526036815260200180613aa46036913960400191505060405180910390fd5b604080516001600160a01b038416602482015260448082018490528251808303909101815260649091019091526020810180516001600160e01b031663095ea7b360e01b179052610ec29084906135f3565b600082820183811015613156576040805162461bcd60e51b815260206004820152601b60248201527f536166654d6174683a206164646974696f6e206f766572666c6f770000000000604482015290519081900360640190fd5b600081836135835760405162461bcd60e51b81526004018080602001828103825283818151815260200191508051906020019080838360005b83811015613548578181015183820152602001613530565b50505050905090810190601f1680156135755780820380516001836020036101000a031916815260200191505b509250505060405180910390fd5b50600083858161358f57fe5b0495945050505050565b600081848411156135eb5760405162461bcd60e51b8152602060048201818152835160248401528351909283926044909101919085019080838360008315613548578181015183820152602001613530565b505050900390565b6060613648826040518060400160405280602081526020017f5361666545524332303a206c6f772d6c6576656c2063616c6c206661696c6564815250856001600160a01b03166136a49092919063ffffffff16565b805190915015610ec25780806020019051602081101561366757600080fd5b5051610ec25760405162461bcd60e51b815260040180806020018281038252602a815260200180613a54602a913960400191505060405180910390fd5b60606136b384846000856136bb565b949350505050565b60606136c685613828565b613717576040805162461bcd60e51b815260206004820152601d60248201527f416464726573733a2063616c6c20746f206e6f6e2d636f6e7472616374000000604482015290519081900360640190fd5b60006060866001600160a01b031685876040518082805190602001908083835b602083106137565780518252601f199092019160209182019101613737565b6001836020036101000a03801982511681845116808217855250505050505090500191505060006040518083038185875af1925050503d80600081146137b8576040519150601f19603f3d011682016040523d82523d6000602084013e6137bd565b606091505b509150915081156137d15791506136b39050565b8051156137e15780518082602001fd5b60405162461bcd60e51b8152602060048201818152865160248401528651879391928392604401919085019080838360008315613548578181015183820152602001613530565b3b151590565b828054828255906000526020600020908101928215613881579160200282015b828111156138815781546001600160a01b0319166001600160a01b0384351617825560209092019160019091019061384e565b5061388d929150613891565b5090565b5b8082111561388d5780546001600160a01b031916815560010161389256fe4f776e61626c653a206e6577206f776e657220697320746865207a65726f206164647265737354726561737572793a2063616e6e6f742072656465656d20626f6e64732077697468207a65726f20616d6f756e7454726561737572793a20636173685072696365206e6f7420656c696769626c6520666f7220626f6e642070757263686173656f70657261746f723a207a65726f206164647265737320676976656e20666f72206e6577206f70657261746f7254726561737572793a20747265617375727920686173206e6f206d6f726520627564676574536166654d6174683a206d756c7469706c69636174696f6e206f766572666c6f7754726561737572793a206661696c656420746f20636f6e73756c7420636173682070726963652066726f6d20746865206f7261636c6554726561737572793a206e656564206d6f7265207065726d697373696f6e000054726561737572793a2063616e6e6f7420707572636861736520626f6e64732077697468207a65726f20616d6f756e746f70657261746f723a2063616c6c6572206973206e6f7420746865206f70657261746f725361666545524332303a204552433230206f7065726174696f6e20646964206e6f742073756363656564436f6e747261637447756172643a206f6e6520626c6f636b2c206f6e652066756e6374696f6e5361666545524332303a20617070726f76652066726f6d206e6f6e2d7a65726f20746f206e6f6e2d7a65726f20616c6c6f77616e636554726561737572793a207468657265206973206e6f20736569676e696f7261676520746f20626520616c6c6f6361746564a26469706673582212206fe6d308821303a691b822c0e776603043d768b9c8b8cad95c03e60170d6e36664736f6c634300060c0033536166654d6174683a206d756c7469706c69636174696f6e206f766572666c6f77",
  "linkReferences": {},
  "deployedLinkReferences": {}
}