{
  "_format": "hh-sol-artifact-1",
  "contractName": "Oracle",
  "sourceName": "contracts/Oracle.sol",
  "abi": [
    {
      "inputs": [
        {
          "internalType": "address",
          "name": "_factory",
          "type": "address"
        },
        {
          "internalType": "address",
          "name": "_tokenA",
          "type": "address"
        },
        {
          "internalType": "address",
          "name": "_tokenB",
          "type": "address"
        },
        {
          "internalType": "uint256",
          "name": "_startTime",
          "type": "uint256"
        }
      ],
      "stateMutability": "nonpayable",
      "type": "constructor"
    },
    {
      "anonymous": false,
      "inputs": [
        {
          "indexed": false,
          "internalType": "uint256",
          "name": "price0CumulativeLast",
          "type": "uint256"
        },
        {
          "indexed": false,
          "internalType": "uint256",
          "name": "price1CumulativeLast",
          "type": "uint256"
        }
      ],
      "name": "Updated",
      "type": "event"
    },
    {
      "inputs": [],
      "name": "PERIOD",
      "outputs": [
        {
          "internalType": "uint256",
          "name": "",
          "type": "uint256"
        }
      ],
      "stateMutability": "view",
      "type": "function"
    },
    {
      "inputs": [],
      "name": "blockTimestampLast",
      "outputs": [
        {
          "internalType": "uint32",
          "name": "",
          "type": "uint32"
        }
      ],
      "stateMutability": "view",
      "type": "function"
    },
    {
      "inputs": [
        {
          "internalType": "address",
          "name": "token",
          "type": "address"
        },
        {
          "internalType": "uint256",
          "name": "amountIn",
          "type": "uint256"
        }
      ],
      "name": "consult",
      "outputs": [
        {
          "internalType": "uint144",
          "name": "amountOut",
          "type": "uint144"
        }
      ],
      "stateMutability": "view",
      "type": "function"
    },
    {
      "inputs": [],
      "name": "epoch",
      "outputs": [
        {
          "internalType": "uint256",
          "name": "",
          "type": "uint256"
        }
      ],
      "stateMutability": "view",
      "type": "function"
    },
    {
      "inputs": [
        {
          "internalType": "address",
          "name": "token",
          "type": "address"
        }
      ],
      "name": "getReserves",
      "outputs": [
        {
          "internalType": "uint112",
          "name": "reserve",
          "type": "uint112"
        }
      ],
      "stateMutability": "view",
      "type": "function"
    },
    {
      "inputs": [],
      "name": "nextEpochPoint",
      "outputs": [
        {
          "internalType": "uint256",
          "name": "",
          "type": "uint256"
        }
      ],
      "stateMutability": "view",
      "type": "function"
    },
    {
      "inputs": [],
      "name": "pair",
      "outputs": [
        {
          "internalType": "contract IUniswapV2Pair",
          "name": "",
          "type": "address"
        }
      ],
      "stateMutability": "view",
      "type": "function"
    },
    {
      "inputs": [
        {
          "internalType": "address",
          "name": "factory",
          "type": "address"
        },
        {
          "internalType": "address",
          "name": "tokenA",
          "type": "address"
        },
        {
          "internalType": "address",
          "name": "tokenB",
          "type": "address"
        }
      ],
      "name": "pairFor",
      "outputs": [
        {
          "internalType": "address",
          "name": "lpt",
          "type": "address"
        }
      ],
      "stateMutability": "pure",
      "type": "function"
    },
    {
      "inputs": [],
      "name": "price0Average",
      "outputs": [
        {
          "internalType": "uint224",
          "name": "_x",
          "type": "uint224"
        }
      ],
      "stateMutability": "view",
      "type": "function"
    },
    {
      "inputs": [],
      "name": "price0CumulativeLast",
      "outputs": [
        {
          "internalType": "uint256",
          "name": "",
          "type": "uint256"
        }
      ],
      "stateMutability": "view",
      "type": "function"
    },
    {
      "inputs": [],
      "name": "price1Average",
      "outputs": [
        {
          "internalType": "uint224",
          "name": "_x",
          "type": "uint224"
        }
      ],
      "stateMutability": "view",
      "type": "function"
    },
    {
      "inputs": [],
      "name": "price1CumulativeLast",
      "outputs": [
        {
          "internalType": "uint256",
          "name": "",
          "type": "uint256"
        }
      ],
      "stateMutability": "view",
      "type": "function"
    },
    {
      "inputs": [],
      "name": "startTime",
      "outputs": [
        {
          "internalType": "uint256",
          "name": "",
          "type": "uint256"
        }
      ],
      "stateMutability": "view",
      "type": "function"
    },
    {
      "inputs": [],
      "name": "token0",
      "outputs": [
        {
          "internalType": "address",
          "name": "",
          "type": "address"
        }
      ],
      "stateMutability": "view",
      "type": "function"
    },
    {
      "inputs": [],
      "name": "token1",
      "outputs": [
        {
          "internalType": "address",
          "name": "",
          "type": "address"
        }
      ],
      "stateMutability": "view",
      "type": "function"
    },
    {
      "inputs": [],
      "name": "update",
      "outputs": [],
      "stateMutability": "nonpayable",
      "type": "function"
    }
  ],
  "bytecode": "0x608060405260006001553480156200001657600080fd5b506040516200129238038062001292833981810160405260808110156200003c57600080fd5b50805160208083015160408401516060909401519293909290916000906200007390869086908690620006e2620003a1821b17901c565b600480546001600160a01b0319166001600160a01b038316908117825560408051630dfe168160e01b815290519394509092630dfe168192828101926020929190829003018186803b158015620000c957600080fd5b505afa158015620000de573d6000803e3d6000fd5b505050506040513d6020811015620000f557600080fd5b5051600280546001600160a01b0319166001600160a01b039283161790556040805163d21220a760e01b815290519183169163d21220a791600480820192602092909190829003018186803b1580156200014e57600080fd5b505afa15801562000163573d6000803e3d6000fd5b505050506040513d60208110156200017a57600080fd5b5051600380546001600160a01b0319166001600160a01b0392831617905560408051635909c0d560e01b8152905191831691635909c0d591600480820192602092909190829003018186803b158015620001d357600080fd5b505afa158015620001e8573d6000803e3d6000fd5b505050506040513d6020811015620001ff57600080fd5b505160055560408051635a3d549360e01b815290516001600160a01b03831691635a3d5493916004808301926020929190829003018186803b1580156200024557600080fd5b505afa1580156200025a573d6000803e3d6000fd5b505050506040513d60208110156200027157600080fd5b505160065560408051630240bc6b60e21b8152905160009182916001600160a01b03851691630902f1ac916004808301926060929190829003018186803b158015620002bc57600080fd5b505afa158015620002d1573d6000803e3d6000fd5b505050506040513d6060811015620002e857600080fd5b50805160208201516040909201516004805463ffffffff909216600160a01b0263ffffffff60a01b19909216919091179055925090506001600160701b038216158015906200033f57506001600160701b03811615155b62000391576040805162461bcd60e51b815260206004820152601360248201527f4f7261636c653a204e4f5f524553455256455300000000000000000000000000604482015290519081900360640190fd5b5050506000555062000558915050565b60008080620003b1858562000475565b604080516001600160601b0319606094851b811660208084019190915293851b81166034830152825160288184030181526048830184528051908501207fff0000000000000000000000000000000000000000000000000000000000000060688401529a90941b9093166069840152607d8301989098527f96e8ac4277198ff8b6f785478aa9a39f403cb768dd02cbee326c3e7da348845f609d808401919091528851808403909101815260bd909201909752805196019590952095945050505050565b600080826001600160a01b0316846001600160a01b03161415620004cb5760405162461bcd60e51b81526004018080602001828103825260258152602001806200126d6025913960400191505060405180910390fd5b826001600160a01b0316846001600160a01b031610620004ed578284620004f0565b83835b90925090506001600160a01b03821662000551576040805162461bcd60e51b815260206004820152601e60248201527f556e697377617056324c6962726172793a205a45524f5f414444524553530000604482015290519081900360640190fd5b9250929050565b610d0580620005686000396000f3fe608060405234801561001057600080fd5b50600436106101005760003560e01c8063900cf0cf11610097578063b4d1d79511610066578063b4d1d79514610266578063c5700a021461026e578063c5967c261461028f578063d21220a71461029757610100565b8063900cf0cf14610244578063a2e620451461024c578063a6bb453914610256578063a8aa1b311461025e57610100565b80635a3d5493116100d35780635a3d5493146101d85780635e6aaf2c146101e05780636d91c0e21461020457806378e979251461023c57610100565b80630dfe1681146101055780633ddac953146101295780633e99c1e41461017c5780635909c0d5146101be575b600080fd5b61010d61029f565b604080516001600160a01b039092168252519081900360200190f35b6101556004803603604081101561013f57600080fd5b506001600160a01b0381351690602001356102ae565b6040805171ffffffffffffffffffffffffffffffffffff9092168252519081900360200190f35b6101a26004803603602081101561019257600080fd5b50356001600160a01b0316610384565b604080516001600160701b039092168252519081900360200190f35b6101c6610492565b60408051918252519081900360200190f35b6101c6610498565b6101e861049e565b604080516001600160e01b039092168252519081900360200190f35b61010d6004803603606081101561021a57600080fd5b506001600160a01b0381358116916020810135821691604090910135166104ad565b6101c66104c2565b6101c66104c8565b6102546104ce565b005b6101e8610670565b61010d61067f565b6101c661068e565b610276610695565b6040805163ffffffff9092168252519081900360200190f35b6101c66106a8565b61010d6106d3565b6002546001600160a01b031681565b6002546000906001600160a01b03848116911614156102fa5760408051602081019091526007546001600160e01b031681526102f3906102ee90846107a2565b610820565b905061037e565b6003546001600160a01b03848116911614610354576040805162461bcd60e51b815260206004820152601560248201527427b930b1b6329d1024a72b20a624a22faa27a5a2a760591b604482015290519081900360640190fd5b60408051602081019091526008546001600160e01b0316815261037b906102ee90846107a2565b90505b92915050565b6000806000600460009054906101000a90046001600160a01b03166001600160a01b0316630902f1ac6040518163ffffffff1660e01b815260040160606040518083038186803b1580156103d757600080fd5b505afa1580156103eb573d6000803e3d6000fd5b505050506040513d606081101561040157600080fd5b50805160209091015160025491935091506001600160a01b038581169116141561042d5781925061048b565b6003546001600160a01b03858116911614610487576040805162461bcd60e51b815260206004820152601560248201527427b930b1b6329d1024a72b20a624a22faa27a5a2a760591b604482015290519081900360640190fd5b8092505b5050919050565b60055481565b60065481565b6008546001600160e01b031681565b60006104ba8484846106e2565b949350505050565b60005481565b60015481565b6104d66106a8565b421015610523576040805162461bcd60e51b815260206004820152601660248201527513dc9858db194e881b9bdd081bdc195b9959081e595d60521b604482015290519081900360640190fd5b6004546000908190819061053f906001600160a01b0316610827565b600454929550909350915063ffffffff600160a01b9091048116820390811661056b575050505061065e565b60405180602001604052808263ffffffff1660055487038161058957fe5b046001600160e01b039081169091529051600780546001600160e01b031916919092161790556040805160208101909152600654819063ffffffff8416908603816105d057fe5b046001600160e01b039081169091529051600880546001600160e01b03191691909216179055600584905560068390556004805463ffffffff60a01b1916600160a01b63ffffffff851602179055604080518581526020810185905281517fd78a0cb8bb633d06981248b816e7bd33c2a35a6089241d099fa519e361cab902929181900390910190a1505050505b6001805461066b916109f6565b600155565b6007546001600160e01b031681565b6004546001600160a01b031681565b6201518081565b600454600160a01b900463ffffffff1681565b60006106ce6106c562015180600154610a5090919063ffffffff16565b600054906109f6565b905090565b6003546001600160a01b031681565b60008060006106f18585610aa9565b604080516bffffffffffffffffffffffff19606094851b811660208084019190915293851b81166034830152825160288184030181526048830184528051908501206001600160f81b031960688401529a90941b9093166069840152607d8301989098527f96e8ac4277198ff8b6f785478aa9a39f403cb768dd02cbee326c3e7da348845f609d808401919091528851808403909101815260bd909201909752805196019590952095945050505050565b6107aa610c41565b60008215806107d057505082516001600160e01b0316828102908382816107cd57fe5b04145b61080b5760405162461bcd60e51b8152600401808060200182810382526023815260200180610cad6023913960400191505060405180910390fd5b60408051602081019091529081529392505050565b5160701c90565b6000806000610834610b87565b9050836001600160a01b0316635909c0d56040518163ffffffff1660e01b815260040160206040518083038186803b15801561086f57600080fd5b505afa158015610883573d6000803e3d6000fd5b505050506040513d602081101561089957600080fd5b505160408051635a3d549360e01b815290519194506001600160a01b03861691635a3d549391600480820192602092909190829003018186803b1580156108df57600080fd5b505afa1580156108f3573d6000803e3d6000fd5b505050506040513d602081101561090957600080fd5b505160408051630240bc6b60e21b81529051919350600091829182916001600160a01b03891691630902f1ac916004808301926060929190829003018186803b15801561095557600080fd5b505afa158015610969573d6000803e3d6000fd5b505050506040513d606081101561097f57600080fd5b5080516020820151604090920151909450909250905063ffffffff808216908516146109ec5780840363ffffffff81166109b98486610b91565b516001600160e01b031602969096019563ffffffff81166109da8585610b91565b516001600160e01b0316029590950194505b5050509193909250565b60008282018381101561037b576040805162461bcd60e51b815260206004820152601b60248201527f536166654d6174683a206164646974696f6e206f766572666c6f770000000000604482015290519081900360640190fd5b600082610a5f5750600061037e565b82820282848281610a6c57fe5b041461037b5760405162461bcd60e51b8152600401808060200182810382526021815260200180610c8c6021913960400191505060405180910390fd5b600080826001600160a01b0316846001600160a01b03161415610afd5760405162461bcd60e51b8152600401808060200182810382526025815260200180610c676025913960400191505060405180910390fd5b826001600160a01b0316846001600160a01b031610610b1d578284610b20565b83835b90925090506001600160a01b038216610b80576040805162461bcd60e51b815260206004820152601e60248201527f556e697377617056324c6962726172793a205a45524f5f414444524553530000604482015290519081900360640190fd5b9250929050565b63ffffffff421690565b610b99610c54565b6000826001600160701b031611610bf7576040805162461bcd60e51b815260206004820152601760248201527f4669786564506f696e743a204449565f42595f5a45524f000000000000000000604482015290519081900360640190fd5b6040805160208101909152806001600160701b0384166dffffffffffffffffffffffffffff60701b607087901b1681610c2c57fe5b046001600160e01b0316815250905092915050565b6040518060200160405280600081525090565b6040805160208101909152600081529056fe556e697377617056324c6962726172793a204944454e544943414c5f414444524553534553536166654d6174683a206d756c7469706c69636174696f6e206f766572666c6f774669786564506f696e743a204d554c5449504c49434154494f4e5f4f564552464c4f57a2646970667358221220aa61fed272953f6e82822b4ac8c0fe7f1e25e27c8764355f22d4e2cf11eeaeb764736f6c634300060c0033556e697377617056324c6962726172793a204944454e544943414c5f414444524553534553",
  "linkReferences": {},
  "deployedLinkReferences": {}
}