{
  "_format": "hh-sol-artifact-1",
  "contractName": "USDCPOSLPTokenSharePool",
  "sourceName": "contracts/distribution/USDCPOSLPTokenSharePool.sol",
  "abi": [
    {
      "inputs": [
        {
          "internalType": "address",
          "name": "polkaShare_",
          "type": "address"
        },
        {
          "internalType": "address",
          "name": "lptoken_",
          "type": "address"
        },
        {
          "internalType": "uint256",
          "name": "starttime_",
          "type": "uint256"
        },
        {
          "internalType": "address",
          "name": "devAddr_",
          "type": "address"
        }
      ],
      "stateMutability": "nonpayable",
      "type": "constructor"
    },
    {
      "anonymous": false,
      "inputs": [
        {
          "indexed": true,
          "internalType": "address",
          "name": "previousOwner",
          "type": "address"
        },
        {
          "indexed": true,
          "internalType": "address",
          "name": "newOwner",
          "type": "address"
        }
      ],
      "name": "OwnershipTransferred",
      "type": "event"
    },
    {
      "anonymous": false,
      "inputs": [
        {
          "indexed": false,
          "internalType": "uint256",
          "name": "reward",
          "type": "uint256"
        }
      ],
      "name": "RewardAdded",
      "type": "event"
    },
    {
      "anonymous": false,
      "inputs": [
        {
          "indexed": true,
          "internalType": "address",
          "name": "user",
          "type": "address"
        },
        {
          "indexed": false,
          "internalType": "uint256",
          "name": "reward",
          "type": "uint256"
        }
      ],
      "name": "RewardPaid",
      "type": "event"
    },
    {
      "anonymous": false,
      "inputs": [
        {
          "indexed": true,
          "internalType": "address",
          "name": "user",
          "type": "address"
        },
        {
          "indexed": false,
          "internalType": "uint256",
          "name": "amount",
          "type": "uint256"
        }
      ],
      "name": "Staked",
      "type": "event"
    },
    {
      "anonymous": false,
      "inputs": [
        {
          "indexed": true,
          "internalType": "address",
          "name": "user",
          "type": "address"
        },
        {
          "indexed": false,
          "internalType": "uint256",
          "name": "amount",
          "type": "uint256"
        }
      ],
      "name": "Withdrawn",
      "type": "event"
    },
    {
      "inputs": [],
      "name": "DURATION",
      "outputs": [
        {
          "internalType": "uint256",
          "name": "",
          "type": "uint256"
        }
      ],
      "stateMutability": "view",
      "type": "function"
    },
    {
      "inputs": [
        {
          "internalType": "address",
          "name": "account",
          "type": "address"
        }
      ],
      "name": "balanceOf",
      "outputs": [
        {
          "internalType": "uint256",
          "name": "",
          "type": "uint256"
        }
      ],
      "stateMutability": "view",
      "type": "function"
    },
    {
      "inputs": [],
      "name": "devAddr",
      "outputs": [
        {
          "internalType": "address",
          "name": "",
          "type": "address"
        }
      ],
      "stateMutability": "view",
      "type": "function"
    },
    {
      "inputs": [
        {
          "internalType": "address",
          "name": "account",
          "type": "address"
        }
      ],
      "name": "earned",
      "outputs": [
        {
          "internalType": "uint256",
          "name": "",
          "type": "uint256"
        }
      ],
      "stateMutability": "view",
      "type": "function"
    },
    {
      "inputs": [],
      "name": "exit",
      "outputs": [],
      "stateMutability": "nonpayable",
      "type": "function"
    },
    {
      "inputs": [],
      "name": "getReward",
      "outputs": [],
      "stateMutability": "nonpayable",
      "type": "function"
    },
    {
      "inputs": [],
      "name": "lastTimeRewardApplicable",
      "outputs": [
        {
          "internalType": "uint256",
          "name": "",
          "type": "uint256"
        }
      ],
      "stateMutability": "view",
      "type": "function"
    },
    {
      "inputs": [],
      "name": "lastUpdateTime",
      "outputs": [
        {
          "internalType": "uint256",
          "name": "",
          "type": "uint256"
        }
      ],
      "stateMutability": "view",
      "type": "function"
    },
    {
      "inputs": [],
      "name": "lpt",
      "outputs": [
        {
          "internalType": "contract IERC20",
          "name": "",
          "type": "address"
        }
      ],
      "stateMutability": "view",
      "type": "function"
    },
    {
      "inputs": [
        {
          "internalType": "uint256",
          "name": "reward",
          "type": "uint256"
        }
      ],
      "name": "notifyRewardAmount",
      "outputs": [],
      "stateMutability": "nonpayable",
      "type": "function"
    },
    {
      "inputs": [],
      "name": "owner",
      "outputs": [
        {
          "internalType": "address",
          "name": "",
          "type": "address"
        }
      ],
      "stateMutability": "view",
      "type": "function"
    },
    {
      "inputs": [],
      "name": "periodFinish",
      "outputs": [
        {
          "internalType": "uint256",
          "name": "",
          "type": "uint256"
        }
      ],
      "stateMutability": "view",
      "type": "function"
    },
    {
      "inputs": [],
      "name": "polkaShare",
      "outputs": [
        {
          "internalType": "contract IERC20",
          "name": "",
          "type": "address"
        }
      ],
      "stateMutability": "view",
      "type": "function"
    },
    {
      "inputs": [],
      "name": "renounceOwnership",
      "outputs": [],
      "stateMutability": "nonpayable",
      "type": "function"
    },
    {
      "inputs": [],
      "name": "rewardDistribution",
      "outputs": [
        {
          "internalType": "address",
          "name": "",
          "type": "address"
        }
      ],
      "stateMutability": "view",
      "type": "function"
    },
    {
      "inputs": [],
      "name": "rewardPerToken",
      "outputs": [
        {
          "internalType": "uint256",
          "name": "",
          "type": "uint256"
        }
      ],
      "stateMutability": "view",
      "type": "function"
    },
    {
      "inputs": [],
      "name": "rewardPerTokenStored",
      "outputs": [
        {
          "internalType": "uint256",
          "name": "",
          "type": "uint256"
        }
      ],
      "stateMutability": "view",
      "type": "function"
    },
    {
      "inputs": [],
      "name": "rewardRate",
      "outputs": [
        {
          "internalType": "uint256",
          "name": "",
          "type": "uint256"
        }
      ],
      "stateMutability": "view",
      "type": "function"
    },
    {
      "inputs": [
        {
          "internalType": "address",
          "name": "",
          "type": "address"
        }
      ],
      "name": "rewards",
      "outputs": [
        {
          "internalType": "uint256",
          "name": "",
          "type": "uint256"
        }
      ],
      "stateMutability": "view",
      "type": "function"
    },
    {
      "inputs": [
        {
          "internalType": "address",
          "name": "_rewardDistribution",
          "type": "address"
        }
      ],
      "name": "setRewardDistribution",
      "outputs": [],
      "stateMutability": "nonpayable",
      "type": "function"
    },
    {
      "inputs": [
        {
          "internalType": "uint256",
          "name": "amount",
          "type": "uint256"
        }
      ],
      "name": "stake",
      "outputs": [],
      "stateMutability": "nonpayable",
      "type": "function"
    },
    {
      "inputs": [],
      "name": "starttime",
      "outputs": [
        {
          "internalType": "uint256",
          "name": "",
          "type": "uint256"
        }
      ],
      "stateMutability": "view",
      "type": "function"
    },
    {
      "inputs": [],
      "name": "totalSupply",
      "outputs": [
        {
          "internalType": "uint256",
          "name": "",
          "type": "uint256"
        }
      ],
      "stateMutability": "view",
      "type": "function"
    },
    {
      "inputs": [
        {
          "internalType": "address",
          "name": "newOwner",
          "type": "address"
        }
      ],
      "name": "transferOwnership",
      "outputs": [],
      "stateMutability": "nonpayable",
      "type": "function"
    },
    {
      "inputs": [
        {
          "internalType": "address",
          "name": "",
          "type": "address"
        }
      ],
      "name": "userRewardPerTokenPaid",
      "outputs": [
        {
          "internalType": "uint256",
          "name": "",
          "type": "uint256"
        }
      ],
      "stateMutability": "view",
      "type": "function"
    },
    {
      "inputs": [
        {
          "internalType": "uint256",
          "name": "amount",
          "type": "uint256"
        }
      ],
      "name": "withdraw",
      "outputs": [],
      "stateMutability": "nonpayable",
      "type": "function"
    }
  ],
  "bytecode": "0x60806040526301e133806006556000600855600060095534801561002257600080fd5b506040516114f93803806114f98339818101604052608081101561004557600080fd5b508051602082015160408301516060909301519192909160006100666100fc565b600380546001600160a01b0319166001600160a01b038316908117909155604051919250906000907f8be0079c531659141344cd1fd0a4f28419497f9722a3daafe3b4186f6b6457e0908290a350600580546001600160a01b039586166001600160a01b0319918216179091556000805494861694821694909417909355600791909155600c8054919093169116179055610100565b3390565b6113ea8061010f6000396000f3fe608060405234801561001057600080fd5b506004361061018d5760003560e01c80638b876347116100de578063cd3daf9d11610097578063df136d6511610071578063df136d6514610347578063e9fad8ee1461034f578063ebe2b12b14610357578063f2fde38b1461035f5761018d565b8063cd3daf9d1461032f578063ce5fc8d014610337578063da09c72c1461033f5761018d565b80638b876347146102cc5780638da58897146102f25780638da5cb5b146102fa5780638eb4105014610302578063a694fc3a1461030a578063c8f33c91146103275761018d565b80632e1a7d4d1161014b57806370a082311161012557806370a082311461028e578063715018a6146102b45780637b0a47ee146102bc57806380faa57d146102c45761018d565b80632e1a7d4d1461024c5780633c6b16ab146102695780633d18b912146102865761018d565b80628cc262146101925780630700037d146101ca5780630d68b761146101f0578063101114cf1461021857806318160ddd1461023c5780631be0528914610244575b600080fd5b6101b8600480360360208110156101a857600080fd5b50356001600160a01b0316610385565b60408051918252519081900360200190f35b6101b8600480360360208110156101e057600080fd5b50356001600160a01b03166103f3565b6102166004803603602081101561020657600080fd5b50356001600160a01b0316610405565b005b610220610491565b604080516001600160a01b039092168252519081900360200190f35b6101b86104a0565b6101b86104a7565b6102166004803603602081101561026257600080fd5b50356104ad565b6102166004803603602081101561027f57600080fd5b50356105cb565b61021661079b565b6101b8600480360360208110156102a457600080fd5b50356001600160a01b03166108db565b6102166108f6565b6101b86109aa565b6101b86109b0565b6101b8600480360360208110156102e257600080fd5b50356001600160a01b03166109c3565b6101b86109d5565b6102206109db565b6102206109ea565b6102166004803603602081101561032057600080fd5b50356109f9565b6101b8610b17565b6101b8610b1d565b610220610b6b565b610220610b7a565b6101b8610b89565b610216610b8f565b6101b8610baa565b6102166004803603602081101561037557600080fd5b50356001600160a01b0316610bb0565b6001600160a01b0381166000908152600e6020908152604080832054600d9092528220546103ed91906103e790670de0b6b3a7640000906103e1906103d2906103cc610b1d565b90610cbb565b6103db886108db565b90610d04565b90610d5d565b90610d9f565b92915050565b600e6020526000908152604090205481565b61040d610df9565b6003546001600160a01b0390811691161461046f576040805162461bcd60e51b815260206004820181905260248201527f4f776e61626c653a2063616c6c6572206973206e6f7420746865206f776e6572604482015290519081900360640190fd5b600480546001600160a01b0319166001600160a01b0392909216919091179055565b6004546001600160a01b031681565b6001545b90565b60065481565b336104b6610b1d565b600b556104c16109b0565b600a556001600160a01b03811615610508576104dc81610385565b6001600160a01b0382166000908152600e6020908152604080832093909355600b54600d909152919020555b6007544210156105495760405162461bcd60e51b81526004018080602001828103825260228152602001806113006022913960400191505060405180910390fd5b600082116105885760405162461bcd60e51b815260040180806020018281038252602a8152602001806112b0602a913960400191505060405180910390fd5b61059182610dfd565b60408051838152905133917f7084f5476618d8e60b11ef0d7d3f06914655adb8793e28ff7f018d4c76d505d5919081900360200190a25050565b6004546001600160a01b03166105df610df9565b6001600160a01b0316146106245760405162461bcd60e51b815260040180806020018281038252602181526020018061136a6021913960400191505060405180910390fd5b600061062e610b1d565b600b556106396109b0565b600a556001600160a01b038116156106805761065481610385565b6001600160a01b0382166000908152600e6020908152604080832093909355600b54600d909152919020555b60075442111561073a5760085442106106a9576006546106a1908390610d5d565b6009556106ec565b6008546000906106b99042610cbb565b905060006106d260095483610d0490919063ffffffff16565b6006549091506106e6906103e18684610d9f565b60095550505b42600a8190556006546106ff9190610d9f565b6008556040805183815290517fde88a922e0d3b88b24e9623efeb464919c6bf9f66857a65e2bfcf2ce87a9433d9181900360200190a1610797565b600654610748908390610d5d565b600955600754600a8190556006546107609190610d9f565b6008556040805183815290517fde88a922e0d3b88b24e9623efeb464919c6bf9f66857a65e2bfcf2ce87a9433d9181900360200190a15b5050565b336107a4610b1d565b600b556107af6109b0565b600a556001600160a01b038116156107f6576107ca81610385565b6001600160a01b0382166000908152600e6020908152604080832093909355600b54600d909152919020555b6007544210156108375760405162461bcd60e51b81526004018080602001828103825260228152602001806113006022913960400191505060405180910390fd5b600061084233610385565b9050801561079757336000818152600e60205260408120556108819061086e60646103e185605d610d04565b6005546001600160a01b03169190610e55565b600c546108a1906001600160a01b031661086e60646103e1856007610d04565b60408051828152905133917fe2403640ba68fed3a2f88b7557551d1993f84b99bb10ff833f0cf8db0c5e0486919081900360200190a25050565b6001600160a01b031660009081526002602052604090205490565b6108fe610df9565b6003546001600160a01b03908116911614610960576040805162461bcd60e51b815260206004820181905260248201527f4f776e61626c653a2063616c6c6572206973206e6f7420746865206f776e6572604482015290519081900360640190fd5b6003546040516000916001600160a01b0316907f8be0079c531659141344cd1fd0a4f28419497f9722a3daafe3b4186f6b6457e0908390a3600380546001600160a01b0319169055565b60095481565b60006109be42600854610eac565b905090565b600d6020526000908152604090205481565b60075481565b6003546001600160a01b031690565b6005546001600160a01b031681565b33610a02610b1d565b600b55610a0d6109b0565b600a556001600160a01b03811615610a5457610a2881610385565b6001600160a01b0382166000908152600e6020908152604080832093909355600b54600d909152919020555b600754421015610a955760405162461bcd60e51b81526004018080602001828103825260228152602001806113006022913960400191505060405180910390fd5b60008211610ad45760405162461bcd60e51b81526004018080602001828103825260278152602001806113226027913960400191505060405180910390fd5b610add82610ec2565b60408051838152905133917f9e71bc8eea02a63969f509818f2dafb9254532904319f9dbda79b67bd34a5f3d919081900360200190a25050565b600a5481565b6000610b276104a0565b610b345750600b546104a4565b6109be610b62610b426104a0565b6103e1670de0b6b3a76400006103db6009546103db600a546103cc6109b0565b600b5490610d9f565b6000546001600160a01b031681565b600c546001600160a01b031681565b600b5481565b610ba0610b9b336108db565b6104ad565b610ba861079b565b565b60085481565b610bb8610df9565b6003546001600160a01b03908116911614610c1a576040805162461bcd60e51b815260206004820181905260248201527f4f776e61626c653a2063616c6c6572206973206e6f7420746865206f776e6572604482015290519081900360640190fd5b6001600160a01b038116610c5f5760405162461bcd60e51b81526004018080602001828103825260268152602001806112da6026913960400191505060405180910390fd5b6003546040516001600160a01b038084169216907f8be0079c531659141344cd1fd0a4f28419497f9722a3daafe3b4186f6b6457e090600090a3600380546001600160a01b0319166001600160a01b0392909216919091179055565b6000610cfd83836040518060400160405280601e81526020017f536166654d6174683a207375627472616374696f6e206f766572666c6f770000815250610f18565b9392505050565b600082610d13575060006103ed565b82820282848281610d2057fe5b0414610cfd5760405162461bcd60e51b81526004018080602001828103825260218152602001806113496021913960400191505060405180910390fd5b6000610cfd83836040518060400160405280601a81526020017f536166654d6174683a206469766973696f6e206279207a65726f000000000000815250610faf565b600082820183811015610cfd576040805162461bcd60e51b815260206004820152601b60248201527f536166654d6174683a206164646974696f6e206f766572666c6f770000000000604482015290519081900360640190fd5b3390565b600154610e0a9082610cbb565b60015533600090815260026020526040902054610e279082610cbb565b336000818152600260205260408120929092559054610e52916001600160a01b039091169083610e55565b50565b604080516001600160a01b038416602482015260448082018490528251808303909101815260649091019091526020810180516001600160e01b031663a9059cbb60e01b179052610ea7908490611014565b505050565b6000818310610ebb5781610cfd565b5090919050565b600154610ecf9082610d9f565b60015533600090815260026020526040902054610eec9082610d9f565b336000818152600260205260408120929092559054610e52916001600160a01b039091169030846110c5565b60008184841115610fa75760405162461bcd60e51b81526004018080602001828103825283818151815260200191508051906020019080838360005b83811015610f6c578181015183820152602001610f54565b50505050905090810190601f168015610f995780820380516001836020036101000a031916815260200191505b509250505060405180910390fd5b505050900390565b60008183610ffe5760405162461bcd60e51b8152602060048201818152835160248401528351909283926044909101919085019080838360008315610f6c578181015183820152602001610f54565b50600083858161100a57fe5b0495945050505050565b6060611069826040518060400160405280602081526020017f5361666545524332303a206c6f772d6c6576656c2063616c6c206661696c6564815250856001600160a01b03166111259092919063ffffffff16565b805190915015610ea75780806020019051602081101561108857600080fd5b5051610ea75760405162461bcd60e51b815260040180806020018281038252602a81526020018061138b602a913960400191505060405180910390fd5b604080516001600160a01b0380861660248301528416604482015260648082018490528251808303909101815260849091019091526020810180516001600160e01b03166323b872dd60e01b17905261111f908590611014565b50505050565b6060611134848460008561113c565b949350505050565b6060611147856112a9565b611198576040805162461bcd60e51b815260206004820152601d60248201527f416464726573733a2063616c6c20746f206e6f6e2d636f6e7472616374000000604482015290519081900360640190fd5b60006060866001600160a01b031685876040518082805190602001908083835b602083106111d75780518252601f1990920191602091820191016111b8565b6001836020036101000a03801982511681845116808217855250505050505090500191505060006040518083038185875af1925050503d8060008114611239576040519150601f19603f3d011682016040523d82523d6000602084013e61123e565b606091505b509150915081156112525791506111349050565b8051156112625780518082602001fd5b60405162461bcd60e51b8152602060048201818152865160248401528651879391928392604401919085019080838360008315610f6c578181015183820152602001610f54565b3b15159056fe55534443504f534c50546f6b656e5368617265506f6f6c3a2043616e6e6f7420776974686472617720304f776e61626c653a206e6577206f776e657220697320746865207a65726f206164647265737355534443504f534c50546f6b656e5368617265506f6f6c3a206e6f7420737461727455534443504f534c50546f6b656e5368617265506f6f6c3a2043616e6e6f74207374616b652030536166654d6174683a206d756c7469706c69636174696f6e206f766572666c6f7743616c6c6572206973206e6f742072657761726420646973747269627574696f6e5361666545524332303a204552433230206f7065726174696f6e20646964206e6f742073756363656564a264697066735822122025621ce59430898777a89d8df64d6286677b0a158c24045313532d4772b7888064736f6c634300060c0033",
  "linkReferences": {},
  "deployedLinkReferences": {}
}