{
  "_format": "hh-sol-artifact-1",
  "contractName": "MockOracle",
  "sourceName": "contracts/test/MockOracle.sol",
  "abi": [
    {
      "anonymous": false,
      "inputs": [
        {
          "indexed": false,
          "internalType": "uint256",
          "name": "price0CumulativeLast",
          "type": "uint256"
        },
        {
          "indexed": false,
          "internalType": "uint256",
          "name": "price1CumulativeLast",
          "type": "uint256"
        }
      ],
      "name": "Updated",
      "type": "event"
    },
    {
      "inputs": [],
      "name": "PERIOD",
      "outputs": [
        {
          "internalType": "uint256",
          "name": "",
          "type": "uint256"
        }
      ],
      "stateMutability": "view",
      "type": "function"
    },
    {
      "inputs": [],
      "name": "blockTimestampLast",
      "outputs": [
        {
          "internalType": "uint32",
          "name": "",
          "type": "uint32"
        }
      ],
      "stateMutability": "view",
      "type": "function"
    },
    {
      "inputs": [
        {
          "internalType": "address",
          "name": "",
          "type": "address"
        },
        {
          "internalType": "uint256",
          "name": "amountIn",
          "type": "uint256"
        }
      ],
      "name": "consult",
      "outputs": [
        {
          "internalType": "uint256",
          "name": "",
          "type": "uint256"
        }
      ],
      "stateMutability": "view",
      "type": "function"
    },
    {
      "inputs": [],
      "name": "epoch",
      "outputs": [
        {
          "internalType": "uint256",
          "name": "",
          "type": "uint256"
        }
      ],
      "stateMutability": "view",
      "type": "function"
    },
    {
      "inputs": [],
      "name": "error",
      "outputs": [
        {
          "internalType": "bool",
          "name": "",
          "type": "bool"
        }
      ],
      "stateMutability": "view",
      "type": "function"
    },
    {
      "inputs": [
        {
          "internalType": "address",
          "name": "token",
          "type": "address"
        }
      ],
      "name": "getReserves",
      "outputs": [
        {
          "internalType": "uint112",
          "name": "reserve",
          "type": "uint112"
        }
      ],
      "stateMutability": "view",
      "type": "function"
    },
    {
      "inputs": [],
      "name": "nextEpochPoint",
      "outputs": [
        {
          "internalType": "uint256",
          "name": "",
          "type": "uint256"
        }
      ],
      "stateMutability": "view",
      "type": "function"
    },
    {
      "inputs": [
        {
          "internalType": "address",
          "name": "factory",
          "type": "address"
        },
        {
          "internalType": "address",
          "name": "tokenA",
          "type": "address"
        },
        {
          "internalType": "address",
          "name": "tokenB",
          "type": "address"
        }
      ],
      "name": "pairFor",
      "outputs": [
        {
          "internalType": "address",
          "name": "lpt",
          "type": "address"
        }
      ],
      "stateMutability": "pure",
      "type": "function"
    },
    {
      "inputs": [],
      "name": "price",
      "outputs": [
        {
          "internalType": "uint256",
          "name": "",
          "type": "uint256"
        }
      ],
      "stateMutability": "view",
      "type": "function"
    },
    {
      "inputs": [],
      "name": "price0CumulativeLast",
      "outputs": [
        {
          "internalType": "uint256",
          "name": "",
          "type": "uint256"
        }
      ],
      "stateMutability": "view",
      "type": "function"
    },
    {
      "inputs": [],
      "name": "price1CumulativeLast",
      "outputs": [
        {
          "internalType": "uint256",
          "name": "",
          "type": "uint256"
        }
      ],
      "stateMutability": "view",
      "type": "function"
    },
    {
      "inputs": [
        {
          "internalType": "uint256",
          "name": "_price",
          "type": "uint256"
        }
      ],
      "name": "setPrice",
      "outputs": [],
      "stateMutability": "nonpayable",
      "type": "function"
    },
    {
      "inputs": [
        {
          "internalType": "bool",
          "name": "_error",
          "type": "bool"
        }
      ],
      "name": "setRevert",
      "outputs": [],
      "stateMutability": "nonpayable",
      "type": "function"
    },
    {
      "inputs": [],
      "name": "startTime",
      "outputs": [
        {
          "internalType": "uint256",
          "name": "",
          "type": "uint256"
        }
      ],
      "stateMutability": "view",
      "type": "function"
    },
    {
      "inputs": [],
      "name": "token0",
      "outputs": [
        {
          "internalType": "address",
          "name": "",
          "type": "address"
        }
      ],
      "stateMutability": "view",
      "type": "function"
    },
    {
      "inputs": [],
      "name": "token1",
      "outputs": [
        {
          "internalType": "address",
          "name": "",
          "type": "address"
        }
      ],
      "stateMutability": "view",
      "type": "function"
    },
    {
      "inputs": [],
      "name": "update",
      "outputs": [],
      "stateMutability": "nonpayable",
      "type": "function"
    }
  ],
  "bytecode": "0x6080604052600060035534801561001557600080fd5b50610613806100256000396000f3fe608060405234801561001057600080fd5b506004361061010b5760003560e01c8063900cf0cf116100a2578063b4d1d79511610071578063b4d1d79514610261578063c5700a0214610269578063c5967c261461028a578063c79f8b6214610292578063d21220a7146102ae5761010b565b8063900cf0cf1461022c57806391b7f5ed14610234578063a035b1fe14610251578063a2e62045146102595761010b565b80635a3d5493116100de5780635a3d5493146101c35780636d91c0e2146101cb57806378e97925146102035780638fb5f1711461020b5761010b565b80630dfe1681146101105780633ddac953146101345780633e99c1e4146101725780635909c0d5146101bb575b600080fd5b6101186102b6565b604080516001600160a01b039092168252519081900360200190f35b6101606004803603604081101561014a57600080fd5b506001600160a01b0381351690602001356102c5565b60408051918252519081900360200190f35b6101986004803603602081101561018857600080fd5b50356001600160a01b03166102f7565b604080516dffffffffffffffffffffffffffff9092168252519081900360200190f35b6101606102fd565b610160610303565b610118600480360360608110156101e157600080fd5b506001600160a01b038135811691602081013582169160409091013516610309565b610160610312565b61022a6004803603602081101561022157600080fd5b50351515610318565b005b61016061032b565b61022a6004803603602081101561024a57600080fd5b5035610331565b610160610336565b61022a61033c565b6101606103c8565b6102716103cf565b6040805163ffffffff9092168252519081900360200190f35b6101606103e2565b61029a61040d565b604080519115158252519081900360200190f35b610118610416565b6004546001600160a01b031681565b60006102ee670de0b6b3a76400006102e88460005461042590919063ffffffff16565b9061047e565b90505b92915050565b50600090565b60065481565b60075481565b60009392505050565b60025481565b6001805460ff1916911515919091179055565b60035481565b600055565b60005481565b60015460ff161561038b576040805162461bcd60e51b815260206004820152601460248201527327b930b1b6329d1036b7b1b5b2b21032b93937b960611b604482015290519081900360640190fd5b604080516000808252602082015281517fd78a0cb8bb633d06981248b816e7bd33c2a35a6089241d099fa519e361cab902929181900390910190a1565b6201518081565b600554600160a01b900463ffffffff1681565b60006104086103ff6201518060035461042590919063ffffffff16565b600254906104c0565b905090565b60015460ff1681565b6005546001600160a01b031681565b600082610434575060006102f1565b8282028284828161044157fe5b04146102ee5760405162461bcd60e51b81526004018080602001828103825260218152602001806105bd6021913960400191505060405180910390fd5b60006102ee83836040518060400160405280601a81526020017f536166654d6174683a206469766973696f6e206279207a65726f00000000000081525061051a565b6000828201838110156102ee576040805162461bcd60e51b815260206004820152601b60248201527f536166654d6174683a206164646974696f6e206f766572666c6f770000000000604482015290519081900360640190fd5b600081836105a65760405162461bcd60e51b81526004018080602001828103825283818151815260200191508051906020019080838360005b8381101561056b578181015183820152602001610553565b50505050905090810190601f1680156105985780820380516001836020036101000a031916815260200191505b509250505060405180910390fd5b5060008385816105b257fe5b049594505050505056fe536166654d6174683a206d756c7469706c69636174696f6e206f766572666c6f77a2646970667358221220c9a4d12cb19a9de108ddb1e69898a11c3de458ad20213dec63583130dac8b91d64736f6c634300060c0033",
  "linkReferences": {},
  "deployedLinkReferences": {}
}