{
  "_format": "hh-sol-artifact-1",
  "contractName": "MockOracle",
  "sourceName": "contracts/test/MockOracle.sol",
  "abi": [
    {
      "anonymous": false,
      "inputs": [
        {
          "indexed": false,
          "internalType": "uint256",
          "name": "price0CumulativeLast",
          "type": "uint256"
        },
        {
          "indexed": false,
          "internalType": "uint256",
          "name": "price1CumulativeLast",
          "type": "uint256"
        }
      ],
      "name": "Updated",
      "type": "event"
    },
    {
      "inputs": [],
      "name": "PERIOD",
      "outputs": [
        {
          "internalType": "uint256",
          "name": "",
          "type": "uint256"
        }
      ],
      "stateMutability": "view",
      "type": "function"
    },
    {
      "inputs": [],
      "name": "blockTimestampLast",
      "outputs": [
        {
          "internalType": "uint32",
          "name": "",
          "type": "uint32"
        }
      ],
      "stateMutability": "view",
      "type": "function"
    },
    {
      "inputs": [
        {
          "internalType": "address",
          "name": "",
          "type": "address"
        },
        {
          "internalType": "uint256",
          "name": "amountIn",
          "type": "uint256"
        }
      ],
      "name": "consult",
      "outputs": [
        {
          "internalType": "uint256",
          "name": "",
          "type": "uint256"
        }
      ],
      "stateMutability": "view",
      "type": "function"
    },
    {
      "inputs": [],
      "name": "epoch",
      "outputs": [
        {
          "internalType": "uint256",
          "name": "",
          "type": "uint256"
        }
      ],
      "stateMutability": "view",
      "type": "function"
    },
    {
      "inputs": [],
      "name": "error",
      "outputs": [
        {
          "internalType": "bool",
          "name": "",
          "type": "bool"
        }
      ],
      "stateMutability": "view",
      "type": "function"
    },
    {
      "inputs": [
        {
          "internalType": "address",
          "name": "token",
          "type": "address"
        }
      ],
      "name": "getReserves",
      "outputs": [
        {
          "internalType": "uint112",
          "name": "reserve",
          "type": "uint112"
        }
      ],
      "stateMutability": "view",
      "type": "function"
    },
    {
      "inputs": [],
      "name": "nextEpochPoint",
      "outputs": [
        {
          "internalType": "uint256",
          "name": "",
          "type": "uint256"
        }
      ],
      "stateMutability": "view",
      "type": "function"
    },
    {
      "inputs": [],
      "name": "price",
      "outputs": [
        {
          "internalType": "uint256",
          "name": "",
          "type": "uint256"
        }
      ],
      "stateMutability": "view",
      "type": "function"
    },
    {
      "inputs": [],
      "name": "price0CumulativeLast",
      "outputs": [
        {
          "internalType": "uint256",
          "name": "",
          "type": "uint256"
        }
      ],
      "stateMutability": "view",
      "type": "function"
    },
    {
      "inputs": [],
      "name": "price1CumulativeLast",
      "outputs": [
        {
          "internalType": "uint256",
          "name": "",
          "type": "uint256"
        }
      ],
      "stateMutability": "view",
      "type": "function"
    },
    {
      "inputs": [
        {
          "internalType": "uint256",
          "name": "_price",
          "type": "uint256"
        }
      ],
      "name": "setPrice",
      "outputs": [],
      "stateMutability": "nonpayable",
      "type": "function"
    },
    {
      "inputs": [
        {
          "internalType": "bool",
          "name": "_error",
          "type": "bool"
        }
      ],
      "name": "setRevert",
      "outputs": [],
      "stateMutability": "nonpayable",
      "type": "function"
    },
    {
      "inputs": [],
      "name": "startTime",
      "outputs": [
        {
          "internalType": "uint256",
          "name": "",
          "type": "uint256"
        }
      ],
      "stateMutability": "view",
      "type": "function"
    },
    {
      "inputs": [],
      "name": "token0",
      "outputs": [
        {
          "internalType": "address",
          "name": "",
          "type": "address"
        }
      ],
      "stateMutability": "view",
      "type": "function"
    },
    {
      "inputs": [],
      "name": "token1",
      "outputs": [
        {
          "internalType": "address",
          "name": "",
          "type": "address"
        }
      ],
      "stateMutability": "view",
      "type": "function"
    },
    {
      "inputs": [],
      "name": "update",
      "outputs": [],
      "stateMutability": "nonpayable",
      "type": "function"
    }
  ],
  "bytecode": "0x6080604052600060035534801561001557600080fd5b506105c7806100256000396000f3fe608060405234801561001057600080fd5b50600436106101005760003560e01c806391b7f5ed11610097578063c5700a0211610066578063c5700a0214610226578063c5967c2614610247578063c79f8b621461024f578063d21220a71461026b57610100565b806391b7f5ed146101f1578063a035b1fe1461020e578063a2e6204514610216578063b4d1d7951461021e57610100565b80635a3d5493116100d35780635a3d5493146101b857806378e97925146101c05780638fb5f171146101c8578063900cf0cf146101e957610100565b80630dfe1681146101055780633ddac953146101295780633e99c1e4146101675780635909c0d5146101b0575b600080fd5b61010d610273565b604080516001600160a01b039092168252519081900360200190f35b6101556004803603604081101561013f57600080fd5b506001600160a01b038135169060200135610282565b60408051918252519081900360200190f35b61018d6004803603602081101561017d57600080fd5b50356001600160a01b03166102b4565b604080516dffffffffffffffffffffffffffff9092168252519081900360200190f35b6101556102ba565b6101556102c0565b6101556102c6565b6101e7600480360360208110156101de57600080fd5b503515156102cc565b005b6101556102df565b6101e76004803603602081101561020757600080fd5b50356102e5565b6101556102ea565b6101e76102f0565b61015561037c565b61022e610383565b6040805163ffffffff9092168252519081900360200190f35b610155610396565b6102576103c1565b604080519115158252519081900360200190f35b61010d6103ca565b6004546001600160a01b031681565b60006102ab670de0b6b3a76400006102a5846000546103d990919063ffffffff16565b90610432565b90505b92915050565b50600090565b60065481565b60075481565b60025481565b6001805460ff1916911515919091179055565b60035481565b600055565b60005481565b60015460ff161561033f576040805162461bcd60e51b815260206004820152601460248201527327b930b1b6329d1036b7b1b5b2b21032b93937b960611b604482015290519081900360640190fd5b604080516000808252602082015281517fd78a0cb8bb633d06981248b816e7bd33c2a35a6089241d099fa519e361cab902929181900390910190a1565b6201518081565b600554600160a01b900463ffffffff1681565b60006103bc6103b3620151806003546103d990919063ffffffff16565b60025490610474565b905090565b60015460ff1681565b6005546001600160a01b031681565b6000826103e8575060006102ae565b828202828482816103f557fe5b04146102ab5760405162461bcd60e51b81526004018080602001828103825260218152602001806105716021913960400191505060405180910390fd5b60006102ab83836040518060400160405280601a81526020017f536166654d6174683a206469766973696f6e206279207a65726f0000000000008152506104ce565b6000828201838110156102ab576040805162461bcd60e51b815260206004820152601b60248201527f536166654d6174683a206164646974696f6e206f766572666c6f770000000000604482015290519081900360640190fd5b6000818361055a5760405162461bcd60e51b81526004018080602001828103825283818151815260200191508051906020019080838360005b8381101561051f578181015183820152602001610507565b50505050905090810190601f16801561054c5780820380516001836020036101000a031916815260200191505b509250505060405180910390fd5b50600083858161056657fe5b049594505050505056fe536166654d6174683a206d756c7469706c69636174696f6e206f766572666c6f77a264697066735822122013590891d1a055b0fce6072c33dfdc0e60e1d0c3214cd40c9461594d4192d7aa64736f6c634300060c0033",
  "linkReferences": {},
  "deployedLinkReferences": {}
}