{
  "_format": "hh-sol-artifact-1",
  "contractName": "Tester",
  "sourceName": "contracts/test/Tester.sol",
  "abi": [
    {
      "inputs": [
        {
          "internalType": "address payable",
          "name": "_treasury",
          "type": "address"
        },
        {
          "internalType": "address",
          "name": "_boardroom",
          "type": "address"
        }
      ],
      "stateMutability": "nonpayable",
      "type": "constructor"
    },
    {
      "anonymous": false,
      "inputs": [
        {
          "indexed": false,
          "internalType": "address",
          "name": "caller",
          "type": "address"
        }
      ],
      "name": "OKOnlyOperator",
      "type": "event"
    },
    {
      "anonymous": false,
      "inputs": [
        {
          "indexed": true,
          "internalType": "address",
          "name": "previousOperator",
          "type": "address"
        },
        {
          "indexed": true,
          "internalType": "address",
          "name": "newOperator",
          "type": "address"
        }
      ],
      "name": "OperatorTransferred",
      "type": "event"
    },
    {
      "anonymous": false,
      "inputs": [
        {
          "indexed": true,
          "internalType": "address",
          "name": "previousOwner",
          "type": "address"
        },
        {
          "indexed": true,
          "internalType": "address",
          "name": "newOwner",
          "type": "address"
        }
      ],
      "name": "OwnershipTransferred",
      "type": "event"
    },
    {
      "inputs": [],
      "name": "OnlyOperator",
      "outputs": [],
      "stateMutability": "nonpayable",
      "type": "function"
    },
    {
      "inputs": [
        {
          "internalType": "address",
          "name": "share",
          "type": "address"
        },
        {
          "internalType": "uint256",
          "name": "amount",
          "type": "uint256"
        }
      ],
      "name": "actionBoardroom",
      "outputs": [],
      "stateMutability": "nonpayable",
      "type": "function"
    },
    {
      "inputs": [],
      "name": "actionTreasury",
      "outputs": [],
      "stateMutability": "nonpayable",
      "type": "function"
    },
    {
      "inputs": [],
      "name": "boardroom",
      "outputs": [
        {
          "internalType": "contract Boardroom",
          "name": "",
          "type": "address"
        }
      ],
      "stateMutability": "view",
      "type": "function"
    },
    {
      "inputs": [],
      "name": "isOperator",
      "outputs": [
        {
          "internalType": "bool",
          "name": "",
          "type": "bool"
        }
      ],
      "stateMutability": "view",
      "type": "function"
    },
    {
      "inputs": [],
      "name": "operator",
      "outputs": [
        {
          "internalType": "address",
          "name": "",
          "type": "address"
        }
      ],
      "stateMutability": "view",
      "type": "function"
    },
    {
      "inputs": [],
      "name": "owner",
      "outputs": [
        {
          "internalType": "address",
          "name": "",
          "type": "address"
        }
      ],
      "stateMutability": "view",
      "type": "function"
    },
    {
      "inputs": [],
      "name": "renounceOwnership",
      "outputs": [],
      "stateMutability": "nonpayable",
      "type": "function"
    },
    {
      "inputs": [
        {
          "internalType": "address",
          "name": "newOperator_",
          "type": "address"
        }
      ],
      "name": "transferOperator",
      "outputs": [],
      "stateMutability": "nonpayable",
      "type": "function"
    },
    {
      "inputs": [
        {
          "internalType": "address",
          "name": "newOwner",
          "type": "address"
        }
      ],
      "name": "transferOwnership",
      "outputs": [],
      "stateMutability": "nonpayable",
      "type": "function"
    },
    {
      "inputs": [],
      "name": "treasury",
      "outputs": [
        {
          "internalType": "contract Treasury",
          "name": "",
          "type": "address"
        }
      ],
      "stateMutability": "view",
      "type": "function"
    }
  ],
  "bytecode": "0x608060405234801561001057600080fd5b506040516109443803806109448339818101604052604081101561003357600080fd5b5080516020909101516000610046610115565b600080546001600160a01b0319166001600160a01b0383169081178255604051929350917f8be0079c531659141344cd1fd0a4f28419497f9722a3daafe3b4186f6b6457e0908290a350610098610115565b600180546001600160a01b0319166001600160a01b0392831617908190556040519116906000907f74da04524d50c64947f5dd5381ef1a4dca5cba8ed1d816243f9e48aa0b5617ed908290a3600280546001600160a01b039384166001600160a01b03199182161790915560038054929093169116179055610119565b3390565b61081c806101286000396000f3fe608060405234801561001057600080fd5b50600436106100a95760003560e01c806361d027b31161007157806361d027b314610126578063715018a61461012e5780638da5cb5b14610136578063a896778d1461013e578063b7b32e3014610146578063f2fde38b14610172576100a9565b806327e1f1e5146100ae57806329605e77146100b85780634456eda2146100de578063570ca735146100fa5780635e02c51e1461011e575b600080fd5b6100b6610198565b005b6100b6600480360360208110156100ce57600080fd5b50356001600160a01b0316610216565b6100e661028c565b604080519115158252519081900360200190f35b6101026102b2565b604080516001600160a01b039092168252519081900360200190f35b6101026102c1565b6101026102d0565b6100b66102df565b610102610393565b6100b66103a2565b6100b66004803603604081101561015c57600080fd5b506001600160a01b038135169060200135610474565b6100b66004803603602081101561018857600080fd5b50356001600160a01b03166105c4565b6001546001600160a01b031633146101e15760405162461bcd60e51b81526004018080602001828103825260248152602001806107c36024913960400191505060405180910390fd5b6040805133815290517fe13aa23e2738ad45ad72f4f69377902e27837fdcad7f9751fa7b9128cb743eea9181900360200190a1565b61021e6106ce565b6000546001600160a01b03908116911614610280576040805162461bcd60e51b815260206004820181905260248201527f4f776e61626c653a2063616c6c6572206973206e6f7420746865206f776e6572604482015290519081900360640190fd5b610289816106d2565b50565b6001546000906001600160a01b03166102a36106ce565b6001600160a01b031614905090565b6001546001600160a01b031690565b6003546001600160a01b031681565b6002546001600160a01b031681565b6102e76106ce565b6000546001600160a01b03908116911614610349576040805162461bcd60e51b815260206004820181905260248201527f4f776e61626c653a2063616c6c6572206973206e6f7420746865206f776e6572604482015290519081900360640190fd5b600080546040516001600160a01b03909116907f8be0079c531659141344cd1fd0a4f28419497f9722a3daafe3b4186f6b6457e0908390a3600080546001600160a01b0319169055565b6000546001600160a01b031690565b600260009054906101000a90046001600160a01b03166001600160a01b0316635b7561796040518163ffffffff1660e01b8152600401600060405180830381600087803b1580156103f257600080fd5b505af1158015610406573d6000803e3d6000fd5b50505050600260009054906101000a90046001600160a01b03166001600160a01b0316635b7561796040518163ffffffff1660e01b8152600401600060405180830381600087803b15801561045a57600080fd5b505af115801561046e573d6000803e3d6000fd5b50505050565b6003546040805163095ea7b360e01b81526001600160a01b0392831660048201526024810184905290519184169163095ea7b3916044808201926020929091908290030181600087803b1580156104ca57600080fd5b505af11580156104de573d6000803e3d6000fd5b505050506040513d60208110156104f457600080fd5b50506003546040805163534a7e1d60e11b81526004810184905290516001600160a01b039092169163a694fc3a9160248082019260009290919082900301818387803b15801561054357600080fd5b505af1158015610557573d6000803e3d6000fd5b505060035460408051632e1a7d4d60e01b81526004810186905290516001600160a01b039092169350632e1a7d4d925060248082019260009290919082900301818387803b1580156105a857600080fd5b505af11580156105bc573d6000803e3d6000fd5b505050505050565b6105cc6106ce565b6000546001600160a01b0390811691161461062e576040805162461bcd60e51b815260206004820181905260248201527f4f776e61626c653a2063616c6c6572206973206e6f7420746865206f776e6572604482015290519081900360640190fd5b6001600160a01b0381166106735760405162461bcd60e51b81526004018080602001828103825260268152602001806107706026913960400191505060405180910390fd5b600080546040516001600160a01b03808516939216917f8be0079c531659141344cd1fd0a4f28419497f9722a3daafe3b4186f6b6457e091a3600080546001600160a01b0319166001600160a01b0392909216919091179055565b3390565b6001600160a01b0381166107175760405162461bcd60e51b815260040180806020018281038252602d815260200180610796602d913960400191505060405180910390fd5b6040516001600160a01b038216906000907f74da04524d50c64947f5dd5381ef1a4dca5cba8ed1d816243f9e48aa0b5617ed908290a3600180546001600160a01b0319166001600160a01b039290921691909117905556fe4f776e61626c653a206e6577206f776e657220697320746865207a65726f20616464726573736f70657261746f723a207a65726f206164647265737320676976656e20666f72206e6577206f70657261746f726f70657261746f723a2063616c6c6572206973206e6f7420746865206f70657261746f72a26469706673582212200a2a673036331efa083f8003345c0e49fe5ba62594550fc5a61c1328bc4ffdda64736f6c634300060c0033",
  "linkReferences": {},
  "deployedLinkReferences": {}
}