{
  "_format": "hh-sol-artifact-1",
  "contractName": "ShareWrapper",
  "sourceName": "contracts/Boardroom.sol",
  "abi": [
    {
      "inputs": [
        {
          "internalType": "address",
          "name": "account",
          "type": "address"
        }
      ],
      "name": "balanceOf",
      "outputs": [
        {
          "internalType": "uint256",
          "name": "",
          "type": "uint256"
        }
      ],
      "stateMutability": "view",
      "type": "function"
    },
    {
      "inputs": [],
      "name": "share",
      "outputs": [
        {
          "internalType": "contract IERC20",
          "name": "",
          "type": "address"
        }
      ],
      "stateMutability": "view",
      "type": "function"
    },
    {
      "inputs": [
        {
          "internalType": "uint256",
          "name": "amount",
          "type": "uint256"
        }
      ],
      "name": "stake",
      "outputs": [],
      "stateMutability": "nonpayable",
      "type": "function"
    },
    {
      "inputs": [],
      "name": "totalSupply",
      "outputs": [
        {
          "internalType": "uint256",
          "name": "",
          "type": "uint256"
        }
      ],
      "stateMutability": "view",
      "type": "function"
    },
    {
      "inputs": [
        {
          "internalType": "uint256",
          "name": "amount",
          "type": "uint256"
        }
      ],
      "name": "withdraw",
      "outputs": [],
      "stateMutability": "nonpayable",
      "type": "function"
    }
  ],
  "bytecode": "0x608060405234801561001057600080fd5b506106df806100206000396000f3fe608060405234801561001057600080fd5b50600436106100575760003560e01c806318160ddd1461005c5780632e1a7d4d1461007657806370a0823114610095578063a694fc3a146100bb578063a8d5fd65146100d8575b600080fd5b6100646100fc565b60408051918252519081900360200190f35b6100936004803603602081101561008c57600080fd5b5035610102565b005b610064600480360360208110156100ab57600080fd5b50356001600160a01b031661019a565b610093600480360360208110156100d157600080fd5b50356101b5565b6100e061020e565b604080516001600160a01b039092168252519081900360200190f35b60015490565b33600090815260026020526040902054818110156101515760405162461bcd60e51b81526004018080602001828103825260368152602001806106746036913960400191505060405180910390fd5b60015461015e908361021d565b60015561016b818361021d565b336000818152600260205260408120929092559054610196916001600160a01b039091169084610266565b5050565b6001600160a01b031660009081526002602052604090205490565b6001546101c290826102bd565b600155336000908152600260205260409020546101df90826102bd565b33600081815260026020526040812092909255905461020b916001600160a01b03909116903084610317565b50565b6000546001600160a01b031681565b600061025f83836040518060400160405280601e81526020017f536166654d6174683a207375627472616374696f6e206f766572666c6f770000815250610377565b9392505050565b604080516001600160a01b038416602482015260448082018490528251808303909101815260649091019091526020810180516001600160e01b031663a9059cbb60e01b1790526102b890849061040e565b505050565b60008282018381101561025f576040805162461bcd60e51b815260206004820152601b60248201527f536166654d6174683a206164646974696f6e206f766572666c6f770000000000604482015290519081900360640190fd5b604080516001600160a01b0380861660248301528416604482015260648082018490528251808303909101815260849091019091526020810180516001600160e01b03166323b872dd60e01b17905261037190859061040e565b50505050565b600081848411156104065760405162461bcd60e51b81526004018080602001828103825283818151815260200191508051906020019080838360005b838110156103cb5781810151838201526020016103b3565b50505050905090810190601f1680156103f85780820380516001836020036101000a031916815260200191505b509250505060405180910390fd5b505050900390565b6060610463826040518060400160405280602081526020017f5361666545524332303a206c6f772d6c6576656c2063616c6c206661696c6564815250856001600160a01b03166104bf9092919063ffffffff16565b8051909150156102b85780806020019051602081101561048257600080fd5b50516102b85760405162461bcd60e51b815260040180806020018281038252602a81526020018061064a602a913960400191505060405180910390fd5b60606104ce84846000856104d6565b949350505050565b60606104e185610643565b610532576040805162461bcd60e51b815260206004820152601d60248201527f416464726573733a2063616c6c20746f206e6f6e2d636f6e7472616374000000604482015290519081900360640190fd5b60006060866001600160a01b031685876040518082805190602001908083835b602083106105715780518252601f199092019160209182019101610552565b6001836020036101000a03801982511681845116808217855250505050505090500191505060006040518083038185875af1925050503d80600081146105d3576040519150601f19603f3d011682016040523d82523d6000602084013e6105d8565b606091505b509150915081156105ec5791506104ce9050565b8051156105fc5780518082602001fd5b60405162461bcd60e51b81526020600482018181528651602484015286518793919283926044019190850190808383600083156103cb5781810151838201526020016103b3565b3b15159056fe5361666545524332303a204552433230206f7065726174696f6e20646964206e6f742073756363656564426f617264726f6f6d3a20776974686472617720726571756573742067726561746572207468616e207374616b656420616d6f756e74a26469706673582212204468495f859746e2bf53fb34c061dab528575055fbdff187d3e14b7a44ff88fe64736f6c634300060c0033",
  "linkReferences": {},
  "deployedLinkReferences": {}
}