{
  "_format": "hh-sol-artifact-1",
  "contractName": "MockBoardroom",
  "sourceName": "contracts/test/MockBoardroom.sol",
  "abi": [
    {
      "inputs": [
        {
          "internalType": "address",
          "name": "_cash",
          "type": "address"
        }
      ],
      "stateMutability": "nonpayable",
      "type": "constructor"
    },
    {
      "anonymous": false,
      "inputs": [
        {
          "indexed": true,
          "internalType": "address",
          "name": "previousOperator",
          "type": "address"
        },
        {
          "indexed": true,
          "internalType": "address",
          "name": "newOperator",
          "type": "address"
        }
      ],
      "name": "OperatorTransferred",
      "type": "event"
    },
    {
      "anonymous": false,
      "inputs": [
        {
          "indexed": true,
          "internalType": "address",
          "name": "previousOwner",
          "type": "address"
        },
        {
          "indexed": true,
          "internalType": "address",
          "name": "newOwner",
          "type": "address"
        }
      ],
      "name": "OwnershipTransferred",
      "type": "event"
    },
    {
      "anonymous": false,
      "inputs": [
        {
          "indexed": true,
          "internalType": "address",
          "name": "user",
          "type": "address"
        },
        {
          "indexed": false,
          "internalType": "uint256",
          "name": "reward",
          "type": "uint256"
        }
      ],
      "name": "RewardAdded",
      "type": "event"
    },
    {
      "inputs": [
        {
          "internalType": "uint256",
          "name": "amount",
          "type": "uint256"
        }
      ],
      "name": "allocateSeigniorage",
      "outputs": [],
      "stateMutability": "nonpayable",
      "type": "function"
    },
    {
      "inputs": [],
      "name": "cash",
      "outputs": [
        {
          "internalType": "contract IERC20",
          "name": "",
          "type": "address"
        }
      ],
      "stateMutability": "view",
      "type": "function"
    },
    {
      "inputs": [],
      "name": "isOperator",
      "outputs": [
        {
          "internalType": "bool",
          "name": "",
          "type": "bool"
        }
      ],
      "stateMutability": "view",
      "type": "function"
    },
    {
      "inputs": [],
      "name": "operator",
      "outputs": [
        {
          "internalType": "address",
          "name": "",
          "type": "address"
        }
      ],
      "stateMutability": "view",
      "type": "function"
    },
    {
      "inputs": [],
      "name": "owner",
      "outputs": [
        {
          "internalType": "address",
          "name": "",
          "type": "address"
        }
      ],
      "stateMutability": "view",
      "type": "function"
    },
    {
      "inputs": [],
      "name": "renounceOwnership",
      "outputs": [],
      "stateMutability": "nonpayable",
      "type": "function"
    },
    {
      "inputs": [
        {
          "internalType": "address",
          "name": "newOperator_",
          "type": "address"
        }
      ],
      "name": "transferOperator",
      "outputs": [],
      "stateMutability": "nonpayable",
      "type": "function"
    },
    {
      "inputs": [
        {
          "internalType": "address",
          "name": "newOwner",
          "type": "address"
        }
      ],
      "name": "transferOwnership",
      "outputs": [],
      "stateMutability": "nonpayable",
      "type": "function"
    }
  ],
  "bytecode": "0x608060405234801561001057600080fd5b50604051610a31380380610a318339818101604052602081101561003357600080fd5b5051600061003f610102565b600080546001600160a01b0319166001600160a01b0383169081178255604051929350917f8be0079c531659141344cd1fd0a4f28419497f9722a3daafe3b4186f6b6457e0908290a350610091610102565b600180546001600160a01b0319166001600160a01b0392831617908190556040519116906000907f74da04524d50c64947f5dd5381ef1a4dca5cba8ed1d816243f9e48aa0b5617ed908290a3600280546001600160a01b0319166001600160a01b0392909216919091179055610106565b3390565b61091c806101156000396000f3fe608060405234801561001057600080fd5b50600436106100885760003560e01c80638da5cb5b1161005b5780638da5cb5b146100fd578063961be3911461010557806397ffe1d71461010d578063f2fde38b1461012a57610088565b806329605e771461008d5780634456eda2146100b5578063570ca735146100d1578063715018a6146100f5575b600080fd5b6100b3600480360360208110156100a357600080fd5b50356001600160a01b0316610150565b005b6100bd6101c6565b604080519115158252519081900360200190f35b6100d96101ec565b604080516001600160a01b039092168252519081900360200190f35b6100b36101fb565b6100d96102af565b6100d96102be565b6100b36004803603602081101561012357600080fd5b50356102cd565b6100b36004803603602081101561014057600080fd5b50356001600160a01b03166103bc565b6101586104c6565b6000546001600160a01b039081169116146101ba576040805162461bcd60e51b815260206004820181905260248201527f4f776e61626c653a2063616c6c6572206973206e6f7420746865206f776e6572604482015290519081900360640190fd5b6101c3816104ca565b50565b6001546000906001600160a01b03166101dd6104c6565b6001600160a01b031614905090565b6001546001600160a01b031690565b6102036104c6565b6000546001600160a01b03908116911614610265576040805162461bcd60e51b815260206004820181905260248201527f4f776e61626c653a2063616c6c6572206973206e6f7420746865206f776e6572604482015290519081900360640190fd5b600080546040516001600160a01b03909116907f8be0079c531659141344cd1fd0a4f28419497f9722a3daafe3b4186f6b6457e0908390a3600080546001600160a01b0319169055565b6000546001600160a01b031690565b6002546001600160a01b031681565b6001546001600160a01b031633146103165760405162461bcd60e51b81526004018080602001828103825260248152602001806108996024913960400191505060405180910390fd5b6000811161036b576040805162461bcd60e51b815260206004820152601c60248201527f426f617264726f6f6d3a2043616e6e6f7420616c6c6f63617465203000000000604482015290519081900360640190fd5b600254610383906001600160a01b0316333084610567565b60408051828152905133917fac24935fd910bc682b5ccb1a07b718cadf8cf2f6d1404c4f3ddc3662dae40e29919081900360200190a250565b6103c46104c6565b6000546001600160a01b03908116911614610426576040805162461bcd60e51b815260206004820181905260248201527f4f776e61626c653a2063616c6c6572206973206e6f7420746865206f776e6572604482015290519081900360640190fd5b6001600160a01b03811661046b5760405162461bcd60e51b81526004018080602001828103825260268152602001806108466026913960400191505060405180910390fd5b600080546040516001600160a01b03808516939216917f8be0079c531659141344cd1fd0a4f28419497f9722a3daafe3b4186f6b6457e091a3600080546001600160a01b0319166001600160a01b0392909216919091179055565b3390565b6001600160a01b03811661050f5760405162461bcd60e51b815260040180806020018281038252602d81526020018061086c602d913960400191505060405180910390fd5b6040516001600160a01b038216906000907f74da04524d50c64947f5dd5381ef1a4dca5cba8ed1d816243f9e48aa0b5617ed908290a3600180546001600160a01b0319166001600160a01b0392909216919091179055565b604080516001600160a01b0380861660248301528416604482015260648082018490528251808303909101815260849091019091526020810180516001600160e01b03166323b872dd60e01b1790526105c19085906105c7565b50505050565b606061061c826040518060400160405280602081526020017f5361666545524332303a206c6f772d6c6576656c2063616c6c206661696c6564815250856001600160a01b031661067d9092919063ffffffff16565b8051909150156106785780806020019051602081101561063b57600080fd5b50516106785760405162461bcd60e51b815260040180806020018281038252602a8152602001806108bd602a913960400191505060405180910390fd5b505050565b606061068c8484600085610694565b949350505050565b606061069f8561083f565b6106f0576040805162461bcd60e51b815260206004820152601d60248201527f416464726573733a2063616c6c20746f206e6f6e2d636f6e7472616374000000604482015290519081900360640190fd5b60006060866001600160a01b031685876040518082805190602001908083835b6020831061072f5780518252601f199092019160209182019101610710565b6001836020036101000a03801982511681845116808217855250505050505090500191505060006040518083038185875af1925050503d8060008114610791576040519150601f19603f3d011682016040523d82523d6000602084013e610796565b606091505b509150915081156107aa57915061068c9050565b8051156107ba5780518082602001fd5b8360405162461bcd60e51b81526004018080602001828103825283818151815260200191508051906020019080838360005b838110156108045781810151838201526020016107ec565b50505050905090810190601f1680156108315780820380516001836020036101000a031916815260200191505b509250505060405180910390fd5b3b15159056fe4f776e61626c653a206e6577206f776e657220697320746865207a65726f20616464726573736f70657261746f723a207a65726f206164647265737320676976656e20666f72206e6577206f70657261746f726f70657261746f723a2063616c6c6572206973206e6f7420746865206f70657261746f725361666545524332303a204552433230206f7065726174696f6e20646964206e6f742073756363656564a264697066735822122073de046d5f17af04ce8739cfda62b97ff6a6236ecc6cdef01fd1d6c3e5d2e5aa64736f6c634300060c0033",
  "linkReferences": {},
  "deployedLinkReferences": {}
}