{
  "_format": "hh-sol-artifact-1",
  "contractName": "InitialCashDistributor",
  "sourceName": "contracts/distributor/InitialCashDistributor.sol",
  "abi": [
    {
      "inputs": [
        {
          "internalType": "contract IERC20",
          "name": "_cash",
          "type": "address"
        },
        {
          "internalType": "contract IRewardDistributionRecipient[]",
          "name": "_pools",
          "type": "address[]"
        },
        {
          "internalType": "uint256",
          "name": "_totalInitialBalance",
          "type": "uint256"
        }
      ],
      "stateMutability": "nonpayable",
      "type": "constructor"
    },
    {
      "anonymous": false,
      "inputs": [
        {
          "indexed": false,
          "internalType": "address",
          "name": "pool",
          "type": "address"
        },
        {
          "indexed": false,
          "internalType": "uint256",
          "name": "cashAmount",
          "type": "uint256"
        }
      ],
      "name": "Distributed",
      "type": "event"
    },
    {
      "inputs": [],
      "name": "cash",
      "outputs": [
        {
          "internalType": "contract IERC20",
          "name": "",
          "type": "address"
        }
      ],
      "stateMutability": "view",
      "type": "function"
    },
    {
      "inputs": [],
      "name": "distribute",
      "outputs": [],
      "stateMutability": "nonpayable",
      "type": "function"
    },
    {
      "inputs": [],
      "name": "once",
      "outputs": [
        {
          "internalType": "bool",
          "name": "",
          "type": "bool"
        }
      ],
      "stateMutability": "view",
      "type": "function"
    },
    {
      "inputs": [
        {
          "internalType": "uint256",
          "name": "",
          "type": "uint256"
        }
      ],
      "name": "pools",
      "outputs": [
        {
          "internalType": "contract IRewardDistributionRecipient",
          "name": "",
          "type": "address"
        }
      ],
      "stateMutability": "view",
      "type": "function"
    },
    {
      "inputs": [],
      "name": "totalInitialBalance",
      "outputs": [
        {
          "internalType": "uint256",
          "name": "",
          "type": "uint256"
        }
      ],
      "stateMutability": "view",
      "type": "function"
    }
  ],
  "bytecode": "0x60806040526000805460ff1916600117905534801561001d57600080fd5b506040516106853803806106858339818101604052606081101561004057600080fd5b81516020830180516040519294929383019291908464010000000082111561006757600080fd5b90830190602082018581111561007c57600080fd5b825186602082028301116401000000008211171561009957600080fd5b82525081516020918201928201910280838360005b838110156100c65781810151838201526020016100ae565b50505050919091016040525060200151835190925015159050610130576040805162461bcd60e51b815260206004820181905260248201527f61206c697374206f6620504f4320706f6f6c7320617265207265717569726564604482015290519081900360640190fd5b60008054610100600160a81b0319166101006001600160a01b03861602179055815161016390600190602085019061016f565b50600255506101f39050565b8280548282559060005260206000209081019282156101c4579160200282015b828111156101c457825182546001600160a01b0319166001600160a01b0390911617825560209092019160019091019061018f565b506101d09291506101d4565b5090565b5b808211156101d05780546001600160a01b03191681556001016101d5565b610483806102026000396000f3fe608060405234801561001057600080fd5b50600436106100575760003560e01c80631d1076031461005c578063292a3f7e14610076578063961be39114610092578063ac4afa38146100b6578063e4fc6b6d146100d3575b600080fd5b6100646100dd565b60408051918252519081900360200190f35b61007e6100e3565b604080519115158252519081900360200190f35b61009a6100ec565b604080516001600160a01b039092168252519081900360200190f35b61009a600480360360208110156100cc57600080fd5b5035610100565b6100db610127565b005b60025481565b60005460ff1681565b60005461010090046001600160a01b031681565b6001818154811061010d57fe5b6000918252602090912001546001600160a01b0316905081565b60005460ff166101685760405162461bcd60e51b815260040180806020018281038252603a815260200180610414603a913960400191505060405180910390fd5b60005b60015481101561031b576001546002546000916101889190610328565b9050600060019054906101000a90046001600160a01b03166001600160a01b031663a9059cbb600184815481106101bb57fe5b6000918252602080832090910154604080516001600160e01b031960e087901b1681526001600160a01b039092166004830152602482018790525160448083019491928390030190829087803b15801561021457600080fd5b505af1158015610228573d6000803e3d6000fd5b505050506040513d602081101561023e57600080fd5b5050600180548390811061024e57fe5b600091825260208220015460408051633c6b16ab60e01b81526004810185905290516001600160a01b0390921692633c6b16ab9260248084019382900301818387803b15801561029d57600080fd5b505af11580156102b1573d6000803e3d6000fd5b505050507fb649c98f58055c520df0dcb5709eff2e931217ff2fb1e21376130d31bbb1c0af600183815481106102e357fe5b60009182526020918290200154604080516001600160a01b03909216825291810184905281519081900390910190a15060010161016b565b506000805460ff19169055565b600061036a83836040518060400160405280601a81526020017f536166654d6174683a206469766973696f6e206279207a65726f000000000000815250610371565b9392505050565b600081836103fd5760405162461bcd60e51b81526004018080602001828103825283818151815260200191508051906020019080838360005b838110156103c25781810151838201526020016103aa565b50505050905090810190601f1680156103ef5780820380516001836020036101000a031916815260200191505b509250505060405180910390fd5b50600083858161040957fe5b049594505050505056fe496e697469616c436173684469737472696275746f723a20796f752063616e6e6f742072756e20746869732066756e6374696f6e207477696365a2646970667358221220ab54e896209b58ce707d524aa1b1dc4d96bbeb5345d1b5bb7bc58447af75e6c364736f6c634300060c0033",
  "linkReferences": {},
  "deployedLinkReferences": {}
}