{
  "_format": "hh-sol-artifact-1",
  "contractName": "InitialShareDistributor",
  "sourceName": "contracts/distributor/InitialShareDistributor.sol",
  "abi": [
    {
      "inputs": [
        {
          "internalType": "contract IERC20",
          "name": "_share",
          "type": "address"
        },
        {
          "internalType": "contract IRewardDistributionRecipient",
          "name": "_usdcpocLPPool",
          "type": "address"
        },
        {
          "internalType": "uint256",
          "name": "_usdcpocInitialBalance",
          "type": "uint256"
        },
        {
          "internalType": "contract IRewardDistributionRecipient",
          "name": "_usdcposLPPool",
          "type": "address"
        },
        {
          "internalType": "uint256",
          "name": "_usdcposInitialBalance",
          "type": "uint256"
        }
      ],
      "stateMutability": "nonpayable",
      "type": "constructor"
    },
    {
      "anonymous": false,
      "inputs": [
        {
          "indexed": false,
          "internalType": "address",
          "name": "pool",
          "type": "address"
        },
        {
          "indexed": false,
          "internalType": "uint256",
          "name": "cashAmount",
          "type": "uint256"
        }
      ],
      "name": "Distributed",
      "type": "event"
    },
    {
      "inputs": [],
      "name": "distribute",
      "outputs": [],
      "stateMutability": "nonpayable",
      "type": "function"
    },
    {
      "inputs": [],
      "name": "once",
      "outputs": [
        {
          "internalType": "bool",
          "name": "",
          "type": "bool"
        }
      ],
      "stateMutability": "view",
      "type": "function"
    },
    {
      "inputs": [],
      "name": "share",
      "outputs": [
        {
          "internalType": "contract IERC20",
          "name": "",
          "type": "address"
        }
      ],
      "stateMutability": "view",
      "type": "function"
    },
    {
      "inputs": [],
      "name": "usdcpocInitialBalance",
      "outputs": [
        {
          "internalType": "uint256",
          "name": "",
          "type": "uint256"
        }
      ],
      "stateMutability": "view",
      "type": "function"
    },
    {
      "inputs": [],
      "name": "usdcpocLPPool",
      "outputs": [
        {
          "internalType": "contract IRewardDistributionRecipient",
          "name": "",
          "type": "address"
        }
      ],
      "stateMutability": "view",
      "type": "function"
    },
    {
      "inputs": [],
      "name": "usdcposInitialBalance",
      "outputs": [
        {
          "internalType": "uint256",
          "name": "",
          "type": "uint256"
        }
      ],
      "stateMutability": "view",
      "type": "function"
    },
    {
      "inputs": [],
      "name": "usdcposLPPool",
      "outputs": [
        {
          "internalType": "contract IRewardDistributionRecipient",
          "name": "",
          "type": "address"
        }
      ],
      "stateMutability": "view",
      "type": "function"
    }
  ],
  "bytecode": "0x60806040526000805460ff1916600117905534801561001d57600080fd5b50604051610544380380610544833981810160405260a081101561004057600080fd5b508051602082015160408301516060840151608090940151600080546001600160a01b0395861661010002610100600160a81b0319909116179055600180549385166001600160a01b031994851617905560029190915560038054939094169290911691909117909155600455610488806100bc6000396000f3fe608060405234801561001057600080fd5b506004361061007d5760003560e01c8063a8d5fd651161005b578063a8d5fd65146100ca578063abae6167146100d2578063b7cee7b8146100ec578063e4fc6b6d146100f45761007d565b8063068c4bc514610082578063292a3f7e146100a6578063338f4140146100c2575b600080fd5b61008a6100fe565b604080516001600160a01b039092168252519081900360200190f35b6100ae61010d565b604080519115158252519081900360200190f35b61008a610116565b61008a610125565b6100da610139565b60408051918252519081900360200190f35b6100da61013f565b6100fc610145565b005b6001546001600160a01b031681565b60005460ff1681565b6003546001600160a01b031681565b60005461010090046001600160a01b031681565b60025481565b60045481565b60005460ff166101865760405162461bcd60e51b815260040180806020018281038252603b815260200180610418603b913960400191505060405180910390fd5b600080546001546002546040805163a9059cbb60e01b81526001600160a01b0393841660048201526024810192909252516101009093049091169263a9059cbb926044808401936020939083900390910190829087803b1580156101e957600080fd5b505af11580156101fd573d6000803e3d6000fd5b505050506040513d602081101561021357600080fd5b505060015460025460408051633c6b16ab60e01b81526004810192909252516001600160a01b0390921691633c6b16ab9160248082019260009290919082900301818387803b15801561026557600080fd5b505af1158015610279573d6000803e3d6000fd5b5050600154600254604080516001600160a01b039093168352602083019190915280517fb649c98f58055c520df0dcb5709eff2e931217ff2fb1e21376130d31bbb1c0af945091829003019150a160008054600354600480546040805163a9059cbb60e01b81526001600160a01b03948516938101939093526024830191909152516101009093049091169263a9059cbb926044808401936020939083900390910190829087803b15801561032d57600080fd5b505af1158015610341573d6000803e3d6000fd5b505050506040513d602081101561035757600080fd5b50506003546004805460408051633c6b16ab60e01b815292830191909152516001600160a01b0390921691633c6b16ab9160248082019260009290919082900301818387803b1580156103a957600080fd5b505af11580156103bd573d6000803e3d6000fd5b5050600354600454604080516001600160a01b039093168352602083019190915280517fb649c98f58055c520df0dcb5709eff2e931217ff2fb1e21376130d31bbb1c0af945091829003019150a16000805460ff1916905556fe496e697469616c53686172654469737472696275746f723a20796f752063616e6e6f742072756e20746869732066756e6374696f6e207477696365a26469706673582212207b9144fdc18bef66310e83fc6e8026f7b002a82110af03964a593e8c9014f36364736f6c634300060c0033",
  "linkReferences": {},
  "deployedLinkReferences": {}
}