{
  "contractName": "InitialShareDistributor",
  "abi": [
    {
      "inputs": [
        {
          "internalType": "contract IERC20",
          "name": "_share",
          "type": "address"
        },
        {
          "internalType": "contract IRewardDistributionRecipient",
          "name": "_usdcpocLPPool",
          "type": "address"
        },
        {
          "internalType": "uint256",
          "name": "_usdcpocInitialBalance",
          "type": "uint256"
        },
        {
          "internalType": "contract IRewardDistributionRecipient",
          "name": "_usdcposLPPool",
          "type": "address"
        },
        {
          "internalType": "uint256",
          "name": "_usdcposInitialBalance",
          "type": "uint256"
        }
      ],
      "stateMutability": "nonpayable",
      "type": "constructor"
    },
    {
      "anonymous": false,
      "inputs": [
        {
          "indexed": false,
          "internalType": "address",
          "name": "pool",
          "type": "address"
        },
        {
          "indexed": false,
          "internalType": "uint256",
          "name": "cashAmount",
          "type": "uint256"
        }
      ],
      "name": "Distributed",
      "type": "event"
    },
    {
      "inputs": [],
      "name": "once",
      "outputs": [
        {
          "internalType": "bool",
          "name": "",
          "type": "bool"
        }
      ],
      "stateMutability": "view",
      "type": "function",
      "constant": true
    },
    {
      "inputs": [],
      "name": "share",
      "outputs": [
        {
          "internalType": "contract IERC20",
          "name": "",
          "type": "address"
        }
      ],
      "stateMutability": "view",
      "type": "function",
      "constant": true
    },
    {
      "inputs": [],
      "name": "usdcpocInitialBalance",
      "outputs": [
        {
          "internalType": "uint256",
          "name": "",
          "type": "uint256"
        }
      ],
      "stateMutability": "view",
      "type": "function",
      "constant": true
    },
    {
      "inputs": [],
      "name": "usdcpocLPPool",
      "outputs": [
        {
          "internalType": "contract IRewardDistributionRecipient",
          "name": "",
          "type": "address"
        }
      ],
      "stateMutability": "view",
      "type": "function",
      "constant": true
    },
    {
      "inputs": [],
      "name": "usdcposInitialBalance",
      "outputs": [
        {
          "internalType": "uint256",
          "name": "",
          "type": "uint256"
        }
      ],
      "stateMutability": "view",
      "type": "function",
      "constant": true
    },
    {
      "inputs": [],
      "name": "usdcposLPPool",
      "outputs": [
        {
          "internalType": "contract IRewardDistributionRecipient",
          "name": "",
          "type": "address"
        }
      ],
      "stateMutability": "view",
      "type": "function",
      "constant": true
    },
    {
      "inputs": [],
      "name": "distribute",
      "outputs": [],
      "stateMutability": "nonpayable",
      "type": "function"
    }
  ],
  "bytecode": "0x608060405260016000806101000a81548160ff02191690831515021790555034801561002a57600080fd5b50604051610864380380610864833981810160405260a081101561004d57600080fd5b81019080805190602001909291908051906020019092919080519060200190929190805190602001909291908051906020019092919050505084600060016101000a81548173ffffffffffffffffffffffffffffffffffffffff021916908373ffffffffffffffffffffffffffffffffffffffff16021790555083600160006101000a81548173ffffffffffffffffffffffffffffffffffffffff021916908373ffffffffffffffffffffffffffffffffffffffff1602179055508260028190555081600360006101000a81548173ffffffffffffffffffffffffffffffffffffffff021916908373ffffffffffffffffffffffffffffffffffffffff1602179055508060048190555050505050506106f98061016b6000396000f3fe608060405234801561001057600080fd5b506004361061007d5760003560e01c8063a8d5fd651161005b578063a8d5fd651461010a578063abae61671461013e578063b7cee7b81461015c578063e4fc6b6d1461017a5761007d565b8063068c4bc514610082578063292a3f7e146100b6578063338f4140146100d6575b600080fd5b61008a610184565b604051808273ffffffffffffffffffffffffffffffffffffffff16815260200191505060405180910390f35b6100be6101aa565b60405180821515815260200191505060405180910390f35b6100de6101bb565b604051808273ffffffffffffffffffffffffffffffffffffffff16815260200191505060405180910390f35b6101126101e1565b604051808273ffffffffffffffffffffffffffffffffffffffff16815260200191505060405180910390f35b610146610207565b6040518082815260200191505060405180910390f35b61016461020d565b6040518082815260200191505060405180910390f35b610182610213565b005b600160009054906101000a900473ffffffffffffffffffffffffffffffffffffffff1681565b60008054906101000a900460ff1681565b600360009054906101000a900473ffffffffffffffffffffffffffffffffffffffff1681565b600060019054906101000a900473ffffffffffffffffffffffffffffffffffffffff1681565b60025481565b60045481565b60008054906101000a900460ff16610276576040517f08c379a000000000000000000000000000000000000000000000000000000000815260040180806020018281038252603b815260200180610689603b913960400191505060405180910390fd5b600060019054906101000a900473ffffffffffffffffffffffffffffffffffffffff1673ffffffffffffffffffffffffffffffffffffffff1663a9059cbb600160009054906101000a900473ffffffffffffffffffffffffffffffffffffffff166002546040518363ffffffff1660e01b8152600401808373ffffffffffffffffffffffffffffffffffffffff16815260200182815260200192505050602060405180830381600087803b15801561032d57600080fd5b505af1158015610341573d6000803e3d6000fd5b505050506040513d602081101561035757600080fd5b810190808051906020019092919050505050600160009054906101000a900473ffffffffffffffffffffffffffffffffffffffff1673ffffffffffffffffffffffffffffffffffffffff16633c6b16ab6002546040518263ffffffff1660e01b815260040180828152602001915050600060405180830381600087803b1580156103e057600080fd5b505af11580156103f4573d6000803e3d6000fd5b505050507fb649c98f58055c520df0dcb5709eff2e931217ff2fb1e21376130d31bbb1c0af600160009054906101000a900473ffffffffffffffffffffffffffffffffffffffff16600254604051808373ffffffffffffffffffffffffffffffffffffffff1681526020018281526020019250505060405180910390a1600060019054906101000a900473ffffffffffffffffffffffffffffffffffffffff1673ffffffffffffffffffffffffffffffffffffffff1663a9059cbb600360009054906101000a900473ffffffffffffffffffffffffffffffffffffffff166004546040518363ffffffff1660e01b8152600401808373ffffffffffffffffffffffffffffffffffffffff16815260200182815260200192505050602060405180830381600087803b15801561052857600080fd5b505af115801561053c573d6000803e3d6000fd5b505050506040513d602081101561055257600080fd5b810190808051906020019092919050505050600360009054906101000a900473ffffffffffffffffffffffffffffffffffffffff1673ffffffffffffffffffffffffffffffffffffffff16633c6b16ab6004546040518263ffffffff1660e01b815260040180828152602001915050600060405180830381600087803b1580156105db57600080fd5b505af11580156105ef573d6000803e3d6000fd5b505050507fb649c98f58055c520df0dcb5709eff2e931217ff2fb1e21376130d31bbb1c0af600360009054906101000a900473ffffffffffffffffffffffffffffffffffffffff16600454604051808373ffffffffffffffffffffffffffffffffffffffff1681526020018281526020019250505060405180910390a160008060006101000a81548160ff02191690831515021790555056fe496e697469616c53686172654469737472696275746f723a20796f752063616e6e6f742072756e20746869732066756e6374696f6e207477696365a2646970667358221220fb4b5d46daadcb1d4f83c68758a71e881cd559fdba19b46088d5e4c0d038ef4464736f6c634300060c0033",
  "immutableReferences": {},
  "source": "// SPDX-License-Identifier: MIT\npragma solidity ^0.6.0;\n\nimport '@openzeppelin/contracts/math/SafeMath.sol';\nimport '@openzeppelin/contracts/token/ERC20/IERC20.sol';\n\nimport '../interfaces/IDistributor.sol';\nimport '../interfaces/IRewardDistributionRecipient.sol';\n\ncontract InitialShareDistributor is IDistributor {\n    using SafeMath for uint256;\n\n    event Distributed(address pool, uint256 cashAmount);\n\n    bool public once = true;\n\n    IERC20 public share;\n    IRewardDistributionRecipient public usdcpocLPPool;\n    uint256 public usdcpocInitialBalance;\n    IRewardDistributionRecipient public usdcposLPPool;\n    uint256 public usdcposInitialBalance;\n\n    constructor(\n        IERC20 _share,\n        IRewardDistributionRecipient _usdcpocLPPool,\n        uint256 _usdcpocInitialBalance,\n        IRewardDistributionRecipient _usdcposLPPool,\n        uint256 _usdcposInitialBalance\n    ) public {\n        share = _share;\n        usdcpocLPPool = _usdcpocLPPool;\n        usdcpocInitialBalance = _usdcpocInitialBalance;\n        usdcposLPPool = _usdcposLPPool;\n        usdcposInitialBalance = _usdcposInitialBalance;\n    }\n\n    function distribute() public override {\n        require(\n            once,\n            'InitialShareDistributor: you cannot run this function twice'\n        );\n\n        share.transfer(address(usdcpocLPPool), usdcpocInitialBalance);\n        usdcpocLPPool.notifyRewardAmount(usdcpocInitialBalance);\n        emit Distributed(address(usdcpocLPPool), usdcpocInitialBalance);\n\n        share.transfer(address(usdcposLPPool), usdcposInitialBalance);\n        usdcposLPPool.notifyRewardAmount(usdcposInitialBalance);\n        emit Distributed(address(usdcposLPPool), usdcposInitialBalance);\n\n        once = false;\n    }\n}\n",
  "sourcePath": "/Users/anunair/work/release/new/POLKACASH_MAIN/contracts/distributor/InitialShareDistributor.sol",
  "compiler": {
    "name": "solc",
    "version": "0.6.12+commit.27d51765.Emscripten.clang"
  },
  "schemaVersion": "3.3.1",
  "updatedAt": "2021-01-25T04:32:30.114Z",
  "networkType": "ethereum",
  "devdoc": {
    "kind": "dev",
    "methods": {},
    "version": 1
  },
  "userdoc": {
    "kind": "user",
    "methods": {},
    "version": 1
  }
}