{
  "contractName": "MockOracle",
  "abi": [
    {
      "anonymous": false,
      "inputs": [
        {
          "indexed": false,
          "internalType": "uint256",
          "name": "price0CumulativeLast",
          "type": "uint256"
        },
        {
          "indexed": false,
          "internalType": "uint256",
          "name": "price1CumulativeLast",
          "type": "uint256"
        }
      ],
      "name": "Updated",
      "type": "event"
    },
    {
      "inputs": [],
      "name": "PERIOD",
      "outputs": [
        {
          "internalType": "uint256",
          "name": "",
          "type": "uint256"
        }
      ],
      "stateMutability": "view",
      "type": "function",
      "constant": true
    },
    {
      "inputs": [],
      "name": "blockTimestampLast",
      "outputs": [
        {
          "internalType": "uint32",
          "name": "",
          "type": "uint32"
        }
      ],
      "stateMutability": "view",
      "type": "function",
      "constant": true
    },
    {
      "inputs": [],
      "name": "epoch",
      "outputs": [
        {
          "internalType": "uint256",
          "name": "",
          "type": "uint256"
        }
      ],
      "stateMutability": "view",
      "type": "function",
      "constant": true
    },
    {
      "inputs": [],
      "name": "error",
      "outputs": [
        {
          "internalType": "bool",
          "name": "",
          "type": "bool"
        }
      ],
      "stateMutability": "view",
      "type": "function",
      "constant": true
    },
    {
      "inputs": [],
      "name": "price",
      "outputs": [
        {
          "internalType": "uint256",
          "name": "",
          "type": "uint256"
        }
      ],
      "stateMutability": "view",
      "type": "function",
      "constant": true
    },
    {
      "inputs": [],
      "name": "price0CumulativeLast",
      "outputs": [
        {
          "internalType": "uint256",
          "name": "",
          "type": "uint256"
        }
      ],
      "stateMutability": "view",
      "type": "function",
      "constant": true
    },
    {
      "inputs": [],
      "name": "price1CumulativeLast",
      "outputs": [
        {
          "internalType": "uint256",
          "name": "",
          "type": "uint256"
        }
      ],
      "stateMutability": "view",
      "type": "function",
      "constant": true
    },
    {
      "inputs": [],
      "name": "startTime",
      "outputs": [
        {
          "internalType": "uint256",
          "name": "",
          "type": "uint256"
        }
      ],
      "stateMutability": "view",
      "type": "function",
      "constant": true
    },
    {
      "inputs": [],
      "name": "token0",
      "outputs": [
        {
          "internalType": "address",
          "name": "",
          "type": "address"
        }
      ],
      "stateMutability": "view",
      "type": "function",
      "constant": true
    },
    {
      "inputs": [],
      "name": "token1",
      "outputs": [
        {
          "internalType": "address",
          "name": "",
          "type": "address"
        }
      ],
      "stateMutability": "view",
      "type": "function",
      "constant": true
    },
    {
      "inputs": [],
      "name": "nextEpochPoint",
      "outputs": [
        {
          "internalType": "uint256",
          "name": "",
          "type": "uint256"
        }
      ],
      "stateMutability": "view",
      "type": "function",
      "constant": true
    },
    {
      "inputs": [
        {
          "internalType": "address",
          "name": "factory",
          "type": "address"
        },
        {
          "internalType": "address",
          "name": "tokenA",
          "type": "address"
        },
        {
          "internalType": "address",
          "name": "tokenB",
          "type": "address"
        }
      ],
      "name": "pairFor",
      "outputs": [
        {
          "internalType": "address",
          "name": "lpt",
          "type": "address"
        }
      ],
      "stateMutability": "pure",
      "type": "function",
      "constant": true
    },
    {
      "inputs": [
        {
          "internalType": "uint256",
          "name": "_price",
          "type": "uint256"
        }
      ],
      "name": "setPrice",
      "outputs": [],
      "stateMutability": "nonpayable",
      "type": "function"
    },
    {
      "inputs": [
        {
          "internalType": "bool",
          "name": "_error",
          "type": "bool"
        }
      ],
      "name": "setRevert",
      "outputs": [],
      "stateMutability": "nonpayable",
      "type": "function"
    },
    {
      "inputs": [],
      "name": "update",
      "outputs": [],
      "stateMutability": "nonpayable",
      "type": "function"
    },
    {
      "inputs": [
        {
          "internalType": "address",
          "name": "",
          "type": "address"
        },
        {
          "internalType": "uint256",
          "name": "amountIn",
          "type": "uint256"
        }
      ],
      "name": "consult",
      "outputs": [
        {
          "internalType": "uint256",
          "name": "",
          "type": "uint256"
        }
      ],
      "stateMutability": "view",
      "type": "function",
      "constant": true
    },
    {
      "inputs": [
        {
          "internalType": "address",
          "name": "token",
          "type": "address"
        }
      ],
      "name": "getReserves",
      "outputs": [
        {
          "internalType": "uint112",
          "name": "reserve",
          "type": "uint112"
        }
      ],
      "stateMutability": "view",
      "type": "function",
      "constant": true
    }
  ],
  "bytecode": "0x6080604052600060035534801561001557600080fd5b506108e5806100256000396000f3fe608060405234801561001057600080fd5b506004361061010b5760003560e01c8063900cf0cf116100a2578063b4d1d79511610071578063b4d1d795146103ba578063c5700a02146103d8578063c5967c26146103fc578063c79f8b621461041a578063d21220a71461043a5761010b565b8063900cf0cf1461034657806391b7f5ed14610364578063a035b1fe14610392578063a2e62045146103b05761010b565b80635a3d5493116100de5780635a3d54931461022c5780636d91c0e21461024a57806378e97925146102f85780638fb5f171146103165761010b565b80630dfe1681146101105780633ddac953146101445780633e99c1e4146101a65780635909c0d51461020e575b600080fd5b61011861046e565b604051808273ffffffffffffffffffffffffffffffffffffffff16815260200191505060405180910390f35b6101906004803603604081101561015a57600080fd5b81019080803573ffffffffffffffffffffffffffffffffffffffff16906020019092919080359060200190929190505050610494565b6040518082815260200191505060405180910390f35b6101e8600480360360208110156101bc57600080fd5b81019080803573ffffffffffffffffffffffffffffffffffffffff1690602001909291905050506104cd565b60405180826dffffffffffffffffffffffffffff16815260200191505060405180910390f35b6102166104d4565b6040518082815260200191505060405180910390f35b6102346104da565b6040518082815260200191505060405180910390f35b6102cc6004803603606081101561026057600080fd5b81019080803573ffffffffffffffffffffffffffffffffffffffff169060200190929190803573ffffffffffffffffffffffffffffffffffffffff169060200190929190803573ffffffffffffffffffffffffffffffffffffffff1690602001909291905050506104e0565b604051808273ffffffffffffffffffffffffffffffffffffffff16815260200191505060405180910390f35b6103006104e9565b6040518082815260200191505060405180910390f35b6103446004803603602081101561032c57600080fd5b810190808035151590602001909291905050506104ef565b005b61034e61050c565b6040518082815260200191505060405180910390f35b6103906004803603602081101561037a57600080fd5b8101908080359060200190929190505050610512565b005b61039a61051c565b6040518082815260200191505060405180910390f35b6103b8610522565b005b6103c26105e7565b6040518082815260200191505060405180910390f35b6103e06105ee565b604051808263ffffffff16815260200191505060405180910390f35b610404610604565b6040518082815260200191505060405180910390f35b610422610637565b60405180821515815260200191505060405180910390f35b61044261064a565b604051808273ffffffffffffffffffffffffffffffffffffffff16815260200191505060405180910390f35b600460009054906101000a900473ffffffffffffffffffffffffffffffffffffffff1681565b60006104c5670de0b6b3a76400006104b78460005461067090919063ffffffff16565b6106f690919063ffffffff16565b905092915050565b6000919050565b60065481565b60075481565b60009392505050565b60025481565b80600160006101000a81548160ff02191690831515021790555050565b60035481565b8060008190555050565b60005481565b600160009054906101000a900460ff16156105a5576040517f08c379a00000000000000000000000000000000000000000000000000000000081526004018080602001828103825260148152602001807f4f7261636c653a206d6f636b6564206572726f7200000000000000000000000081525060200191505060405180910390fd5b7fd78a0cb8bb633d06981248b816e7bd33c2a35a6089241d099fa519e361cab902600080604051808381526020018281526020019250505060405180910390a1565b6201518081565b600560149054906101000a900463ffffffff1681565b60006106326106216201518060035461067090919063ffffffff16565b60025461074090919063ffffffff16565b905090565b600160009054906101000a900460ff1681565b600560009054906101000a900473ffffffffffffffffffffffffffffffffffffffff1681565b60008083141561068357600090506106f0565b600082840290508284828161069457fe5b04146106eb576040517f08c379a000000000000000000000000000000000000000000000000000000000815260040180806020018281038252602181526020018061088f6021913960400191505060405180910390fd5b809150505b92915050565b600061073883836040518060400160405280601a81526020017f536166654d6174683a206469766973696f6e206279207a65726f0000000000008152506107c8565b905092915050565b6000808284019050838110156107be576040517f08c379a000000000000000000000000000000000000000000000000000000000815260040180806020018281038252601b8152602001807f536166654d6174683a206164646974696f6e206f766572666c6f77000000000081525060200191505060405180910390fd5b8091505092915050565b60008083118290610874576040517f08c379a00000000000000000000000000000000000000000000000000000000081526004018080602001828103825283818151815260200191508051906020019080838360005b8381101561083957808201518184015260208101905061081e565b50505050905090810190601f1680156108665780820380516001836020036101000a031916815260200191505b509250505060405180910390fd5b50600083858161088057fe5b04905080915050939250505056fe536166654d6174683a206d756c7469706c69636174696f6e206f766572666c6f77a26469706673582212209010f8147d3b4ff88a2cb3d391d54823883530a55cc3d3219301b24fe31d2d9e64736f6c634300060c0033",
  "immutableReferences": {},
  "source": "// SPDX-License-Identifier: MIT\npragma solidity ^0.6.0;\n\nimport '@openzeppelin/contracts/math/SafeMath.sol';\n\nimport '../interfaces/IOracle.sol';\n\ncontract MockOracle is IOracle {\n    using SafeMath for uint256;\n\n    uint256 public price;\n    bool public error;\n\n    /* ========= CONSTANT VARIABLES ======== */\n\n    uint256 public constant PERIOD = 1 days;\n\n    /* ========== STATE VARIABLES ========== */\n\n    // epoch\n    uint256 public startTime;\n    uint256 public epoch = 0;\n\n    // uniswap\n    address public token0;\n    address public token1;\n    //IUniswapV2Pair public pair;\n\n    // oracle\n    uint32 public blockTimestampLast;\n    uint256 public price0CumulativeLast;\n    uint256 public price1CumulativeLast;\n    //FixedPoint.uq112x112 public price0Average;\n    //FixedPoint.uq112x112 public price1Average;\n\n    /* ========== CONSTRUCTOR ========== */\n\n    /* =================== Modifier =================== */\n\n    modifier checkEpoch {\n        require(now >= nextEpochPoint(), 'Oracle: not opened yet');\n\n        _;\n\n        epoch = epoch.add(1);\n    }\n\n    /* ========== VIEW FUNCTIONS ========== */\n\n    function nextEpochPoint() public view returns (uint256) {\n        return startTime.add(epoch.mul(PERIOD));\n    }\n\n    function pairFor(\n        address factory,\n        address tokenA,\n        address tokenB\n    ) external pure returns (address lpt){\n        //return UniswapV2Library.pairFor(factory, tokenA, tokenB);\n        return address(0);\n    }\n\n    function setPrice(uint256 _price) public {\n        price = _price;\n    }\n\n    function setRevert(bool _error) public {\n        error = _error;\n    }\n\n    function update() external override {\n        require(!error, 'Oracle: mocked error');\n        emit Updated(0, 0);\n    }\n\n    function consult(address, uint256 amountIn)\n        external\n        override\n        view\n        returns (uint256)\n    {\n        return price.mul(amountIn).div(1e18);\n    }\n\n    function getReserves(address token) external override view returns (uint112 reserve) {\n        token;\n        reserve = 0;\n    }\n\n    event Updated(uint256 price0CumulativeLast, uint256 price1CumulativeLast);\n}\n",
  "sourcePath": "/Users/anunair/work/release/POLKACASH_MAIN/contracts/test/MockOracle.sol",
  "compiler": {
    "name": "solc",
    "version": "0.6.12+commit.27d51765.Emscripten.clang"
  },
  "schemaVersion": "3.3.1",
  "updatedAt": "2021-01-25T03:59:10.018Z",
  "networkType": "ethereum",
  "devdoc": {
    "kind": "dev",
    "methods": {},
    "version": 1
  },
  "userdoc": {
    "kind": "user",
    "methods": {},
    "version": 1
  }
}