{
  "contractName": "MockOracle",
  "abi": [
    {
      "anonymous": false,
      "inputs": [
        {
          "indexed": false,
          "internalType": "uint256",
          "name": "price0CumulativeLast",
          "type": "uint256"
        },
        {
          "indexed": false,
          "internalType": "uint256",
          "name": "price1CumulativeLast",
          "type": "uint256"
        }
      ],
      "name": "Updated",
      "type": "event"
    },
    {
      "inputs": [],
      "name": "PERIOD",
      "outputs": [
        {
          "internalType": "uint256",
          "name": "",
          "type": "uint256"
        }
      ],
      "stateMutability": "view",
      "type": "function"
    },
    {
      "inputs": [],
      "name": "blockTimestampLast",
      "outputs": [
        {
          "internalType": "uint32",
          "name": "",
          "type": "uint32"
        }
      ],
      "stateMutability": "view",
      "type": "function"
    },
    {
      "inputs": [],
      "name": "epoch",
      "outputs": [
        {
          "internalType": "uint256",
          "name": "",
          "type": "uint256"
        }
      ],
      "stateMutability": "view",
      "type": "function"
    },
    {
      "inputs": [],
      "name": "error",
      "outputs": [
        {
          "internalType": "bool",
          "name": "",
          "type": "bool"
        }
      ],
      "stateMutability": "view",
      "type": "function"
    },
    {
      "inputs": [],
      "name": "price",
      "outputs": [
        {
          "internalType": "uint256",
          "name": "",
          "type": "uint256"
        }
      ],
      "stateMutability": "view",
      "type": "function"
    },
    {
      "inputs": [],
      "name": "price0CumulativeLast",
      "outputs": [
        {
          "internalType": "uint256",
          "name": "",
          "type": "uint256"
        }
      ],
      "stateMutability": "view",
      "type": "function"
    },
    {
      "inputs": [],
      "name": "price1CumulativeLast",
      "outputs": [
        {
          "internalType": "uint256",
          "name": "",
          "type": "uint256"
        }
      ],
      "stateMutability": "view",
      "type": "function"
    },
    {
      "inputs": [],
      "name": "startTime",
      "outputs": [
        {
          "internalType": "uint256",
          "name": "",
          "type": "uint256"
        }
      ],
      "stateMutability": "view",
      "type": "function"
    },
    {
      "inputs": [],
      "name": "token0",
      "outputs": [
        {
          "internalType": "address",
          "name": "",
          "type": "address"
        }
      ],
      "stateMutability": "view",
      "type": "function"
    },
    {
      "inputs": [],
      "name": "token1",
      "outputs": [
        {
          "internalType": "address",
          "name": "",
          "type": "address"
        }
      ],
      "stateMutability": "view",
      "type": "function"
    },
    {
      "inputs": [],
      "name": "nextEpochPoint",
      "outputs": [
        {
          "internalType": "uint256",
          "name": "",
          "type": "uint256"
        }
      ],
      "stateMutability": "view",
      "type": "function"
    },
    {
      "inputs": [
        {
          "internalType": "uint256",
          "name": "_price",
          "type": "uint256"
        }
      ],
      "name": "setPrice",
      "outputs": [],
      "stateMutability": "nonpayable",
      "type": "function"
    },
    {
      "inputs": [
        {
          "internalType": "bool",
          "name": "_error",
          "type": "bool"
        }
      ],
      "name": "setRevert",
      "outputs": [],
      "stateMutability": "nonpayable",
      "type": "function"
    },
    {
      "inputs": [],
      "name": "update",
      "outputs": [],
      "stateMutability": "nonpayable",
      "type": "function"
    },
    {
      "inputs": [
        {
          "internalType": "address",
          "name": "",
          "type": "address"
        },
        {
          "internalType": "uint256",
          "name": "amountIn",
          "type": "uint256"
        }
      ],
      "name": "consult",
      "outputs": [
        {
          "internalType": "uint256",
          "name": "",
          "type": "uint256"
        }
      ],
      "stateMutability": "view",
      "type": "function"
    },
    {
      "inputs": [
        {
          "internalType": "address",
          "name": "token",
          "type": "address"
        }
      ],
      "name": "getReserves",
      "outputs": [
        {
          "internalType": "uint112",
          "name": "reserve",
          "type": "uint112"
        }
      ],
      "stateMutability": "view",
      "type": "function"
    }
  ],
  "bytecode": "0x6080604052600060035534801561001557600080fd5b50610823806100256000396000f3fe608060405234801561001057600080fd5b50600436106101005760003560e01c806391b7f5ed11610097578063c5700a0211610066578063c5700a021461031f578063c5967c2614610343578063c79f8b6214610361578063d21220a71461038157610100565b806391b7f5ed146102ab578063a035b1fe146102d9578063a2e62045146102f7578063b4d1d7951461030157610100565b80635a3d5493116100d35780635a3d54931461022157806378e979251461023f5780638fb5f1711461025d578063900cf0cf1461028d57610100565b80630dfe1681146101055780633ddac953146101395780633e99c1e41461019b5780635909c0d514610203575b600080fd5b61010d6103b5565b604051808273ffffffffffffffffffffffffffffffffffffffff16815260200191505060405180910390f35b6101856004803603604081101561014f57600080fd5b81019080803573ffffffffffffffffffffffffffffffffffffffff169060200190929190803590602001909291905050506103db565b6040518082815260200191505060405180910390f35b6101dd600480360360208110156101b157600080fd5b81019080803573ffffffffffffffffffffffffffffffffffffffff169060200190929190505050610414565b60405180826dffffffffffffffffffffffffffff16815260200191505060405180910390f35b61020b61041b565b6040518082815260200191505060405180910390f35b610229610421565b6040518082815260200191505060405180910390f35b610247610427565b6040518082815260200191505060405180910390f35b61028b6004803603602081101561027357600080fd5b8101908080351515906020019092919050505061042d565b005b61029561044a565b6040518082815260200191505060405180910390f35b6102d7600480360360208110156102c157600080fd5b8101908080359060200190929190505050610450565b005b6102e161045a565b6040518082815260200191505060405180910390f35b6102ff610460565b005b610309610525565b6040518082815260200191505060405180910390f35b61032761052c565b604051808263ffffffff16815260200191505060405180910390f35b61034b610542565b6040518082815260200191505060405180910390f35b610369610575565b60405180821515815260200191505060405180910390f35b610389610588565b604051808273ffffffffffffffffffffffffffffffffffffffff16815260200191505060405180910390f35b600460009054906101000a900473ffffffffffffffffffffffffffffffffffffffff1681565b600061040c670de0b6b3a76400006103fe846000546105ae90919063ffffffff16565b61063490919063ffffffff16565b905092915050565b6000919050565b60065481565b60075481565b60025481565b80600160006101000a81548160ff02191690831515021790555050565b60035481565b8060008190555050565b60005481565b600160009054906101000a900460ff16156104e3576040517f08c379a00000000000000000000000000000000000000000000000000000000081526004018080602001828103825260148152602001807f4f7261636c653a206d6f636b6564206572726f7200000000000000000000000081525060200191505060405180910390fd5b7fd78a0cb8bb633d06981248b816e7bd33c2a35a6089241d099fa519e361cab902600080604051808381526020018281526020019250505060405180910390a1565b6201518081565b600560149054906101000a900463ffffffff1681565b600061057061055f620151806003546105ae90919063ffffffff16565b60025461067e90919063ffffffff16565b905090565b600160009054906101000a900460ff1681565b600560009054906101000a900473ffffffffffffffffffffffffffffffffffffffff1681565b6000808314156105c1576000905061062e565b60008284029050828482816105d257fe5b0414610629576040517f08c379a00000000000000000000000000000000000000000000000000000000081526004018080602001828103825260218152602001806107cd6021913960400191505060405180910390fd5b809150505b92915050565b600061067683836040518060400160405280601a81526020017f536166654d6174683a206469766973696f6e206279207a65726f000000000000815250610706565b905092915050565b6000808284019050838110156106fc576040517f08c379a000000000000000000000000000000000000000000000000000000000815260040180806020018281038252601b8152602001807f536166654d6174683a206164646974696f6e206f766572666c6f77000000000081525060200191505060405180910390fd5b8091505092915050565b600080831182906107b2576040517f08c379a00000000000000000000000000000000000000000000000000000000081526004018080602001828103825283818151815260200191508051906020019080838360005b8381101561077757808201518184015260208101905061075c565b50505050905090810190601f1680156107a45780820380516001836020036101000a031916815260200191505b509250505060405180910390fd5b5060008385816107be57fe5b04905080915050939250505056fe536166654d6174683a206d756c7469706c69636174696f6e206f766572666c6f77a264697066735822122081033d24d56d90daa7e87a85914cfb947793cfecc6784910f331b0bbeea3ec3e64736f6c634300060c0033",
  "immutableReferences": {},
  "source": "// SPDX-License-Identifier: MIT\npragma solidity ^0.6.0;\n\nimport '@openzeppelin/contracts/math/SafeMath.sol';\n\nimport '../interfaces/IOracle.sol';\n\ncontract MockOracle is IOracle {\n    using SafeMath for uint256;\n\n    uint256 public price;\n    bool public error;\n\n    /* ========= CONSTANT VARIABLES ======== */\n\n    uint256 public constant PERIOD = 1 days;\n\n    /* ========== STATE VARIABLES ========== */\n\n    // epoch\n    uint256 public startTime;\n    uint256 public epoch = 0;\n\n    // uniswap\n    address public token0;\n    address public token1;\n    //IUniswapV2Pair public pair;\n\n    // oracle\n    uint32 public blockTimestampLast;\n    uint256 public price0CumulativeLast;\n    uint256 public price1CumulativeLast;\n    //FixedPoint.uq112x112 public price0Average;\n    //FixedPoint.uq112x112 public price1Average;\n\n    /* ========== CONSTRUCTOR ========== */\n\n    /* =================== Modifier =================== */\n\n    modifier checkEpoch {\n        require(now >= nextEpochPoint(), 'Oracle: not opened yet');\n\n        _;\n\n        epoch = epoch.add(1);\n    }\n\n    /* ========== VIEW FUNCTIONS ========== */\n\n    function nextEpochPoint() public view returns (uint256) {\n        return startTime.add(epoch.mul(PERIOD));\n    }\n\n    /*\n    function pairFor(\n        address factory,\n        address tokenA,\n        address tokenB\n    ) external pure returns (address lpt){\n        //UniswapV2Library.pairFor(factory, tokenA, tokenB);\n        return address(0);\n    }\n    */\n\n    function setPrice(uint256 _price) public {\n        price = _price;\n    }\n\n    function setRevert(bool _error) public {\n        error = _error;\n    }\n\n    function update() external override {\n        require(!error, 'Oracle: mocked error');\n        emit Updated(0, 0);\n    }\n\n    function consult(address, uint256 amountIn)\n        external\n        override\n        view\n        returns (uint256)\n    {\n        return price.mul(amountIn).div(1e18);\n    }\n\n    function getReserves(address token) external override view returns (uint112 reserve) {\n        token;\n        reserve = 0;\n    }\n\n    event Updated(uint256 price0CumulativeLast, uint256 price1CumulativeLast);\n}\n",
  "sourcePath": "/Users/anunair/work/release/new/POLKACASH_MAIN/contracts/test/MockOracle.sol",
  "compiler": {
    "name": "solc",
    "version": "0.6.12+commit.27d51765.Emscripten.clang"
  },
  "schemaVersion": "3.3.1",
  "updatedAt": "2021-01-26T08:21:54.293Z",
  "devdoc": {
    "kind": "dev",
    "methods": {},
    "version": 1
  },
  "userdoc": {
    "kind": "user",
    "methods": {},
    "version": 1
  }
}