{
  "contractName": "Treasury",
  "abi": [
    {
      "inputs": [
        {
          "internalType": "address",
          "name": "_cash",
          "type": "address"
        },
        {
          "internalType": "address",
          "name": "_bond",
          "type": "address"
        },
        {
          "internalType": "address",
          "name": "_share",
          "type": "address"
        },
        {
          "internalType": "address",
          "name": "_cashOracle",
          "type": "address"
        },
        {
          "internalType": "address",
          "name": "_boardroom",
          "type": "address"
        },
        {
          "internalType": "address",
          "name": "_unirouter",
          "type": "address"
        },
        {
          "internalType": "uint256",
          "name": "_startTime",
          "type": "uint256"
        }
      ],
      "stateMutability": "nonpayable",
      "type": "constructor"
    },
    {
      "anonymous": false,
      "inputs": [
        {
          "indexed": false,
          "internalType": "uint256",
          "name": "timestamp",
          "type": "uint256"
        },
        {
          "indexed": false,
          "internalType": "uint256",
          "name": "seigniorage",
          "type": "uint256"
        }
      ],
      "name": "BoardroomFunded",
      "type": "event"
    },
    {
      "anonymous": false,
      "inputs": [
        {
          "indexed": true,
          "internalType": "address",
          "name": "from",
          "type": "address"
        },
        {
          "indexed": false,
          "internalType": "uint256",
          "name": "amount",
          "type": "uint256"
        }
      ],
      "name": "BoughtBonds",
      "type": "event"
    },
    {
      "anonymous": false,
      "inputs": [
        {
          "indexed": true,
          "internalType": "address",
          "name": "executor",
          "type": "address"
        },
        {
          "indexed": false,
          "internalType": "uint256",
          "name": "at",
          "type": "uint256"
        }
      ],
      "name": "Initialized",
      "type": "event"
    },
    {
      "anonymous": false,
      "inputs": [
        {
          "indexed": true,
          "internalType": "address",
          "name": "target",
          "type": "address"
        }
      ],
      "name": "Migration",
      "type": "event"
    },
    {
      "anonymous": false,
      "inputs": [
        {
          "indexed": true,
          "internalType": "address",
          "name": "previousOperator",
          "type": "address"
        },
        {
          "indexed": true,
          "internalType": "address",
          "name": "newOperator",
          "type": "address"
        }
      ],
      "name": "OperatorTransferred",
      "type": "event"
    },
    {
      "anonymous": false,
      "inputs": [
        {
          "indexed": true,
          "internalType": "address",
          "name": "previousOwner",
          "type": "address"
        },
        {
          "indexed": true,
          "internalType": "address",
          "name": "newOwner",
          "type": "address"
        }
      ],
      "name": "OwnershipTransferred",
      "type": "event"
    },
    {
      "anonymous": false,
      "inputs": [
        {
          "indexed": true,
          "internalType": "address",
          "name": "from",
          "type": "address"
        },
        {
          "indexed": false,
          "internalType": "uint256",
          "name": "amount",
          "type": "uint256"
        }
      ],
      "name": "RedeemedBonds",
      "type": "event"
    },
    {
      "anonymous": false,
      "inputs": [
        {
          "indexed": false,
          "internalType": "uint256",
          "name": "timestamp",
          "type": "uint256"
        },
        {
          "indexed": false,
          "internalType": "uint256",
          "name": "seigniorage",
          "type": "uint256"
        }
      ],
      "name": "TreasuryFunded",
      "type": "event"
    },
    {
      "inputs": [],
      "name": "PERIOD",
      "outputs": [
        {
          "internalType": "uint256",
          "name": "",
          "type": "uint256"
        }
      ],
      "stateMutability": "view",
      "type": "function",
      "constant": true
    },
    {
      "inputs": [],
      "name": "boardroom",
      "outputs": [
        {
          "internalType": "address",
          "name": "",
          "type": "address"
        }
      ],
      "stateMutability": "view",
      "type": "function",
      "constant": true
    },
    {
      "inputs": [],
      "name": "bond",
      "outputs": [
        {
          "internalType": "address",
          "name": "",
          "type": "address"
        }
      ],
      "stateMutability": "view",
      "type": "function",
      "constant": true
    },
    {
      "inputs": [],
      "name": "bondDepletionFloor",
      "outputs": [
        {
          "internalType": "uint256",
          "name": "",
          "type": "uint256"
        }
      ],
      "stateMutability": "view",
      "type": "function",
      "constant": true
    },
    {
      "inputs": [],
      "name": "cash",
      "outputs": [
        {
          "internalType": "address",
          "name": "",
          "type": "address"
        }
      ],
      "stateMutability": "view",
      "type": "function",
      "constant": true
    },
    {
      "inputs": [],
      "name": "cashOracle",
      "outputs": [
        {
          "internalType": "address",
          "name": "",
          "type": "address"
        }
      ],
      "stateMutability": "view",
      "type": "function",
      "constant": true
    },
    {
      "inputs": [],
      "name": "cashPriceCeiling",
      "outputs": [
        {
          "internalType": "uint256",
          "name": "",
          "type": "uint256"
        }
      ],
      "stateMutability": "view",
      "type": "function",
      "constant": true
    },
    {
      "inputs": [],
      "name": "cashPriceOne",
      "outputs": [
        {
          "internalType": "uint256",
          "name": "",
          "type": "uint256"
        }
      ],
      "stateMutability": "view",
      "type": "function",
      "constant": true
    },
    {
      "inputs": [],
      "name": "epoch",
      "outputs": [
        {
          "internalType": "uint256",
          "name": "",
          "type": "uint256"
        }
      ],
      "stateMutability": "view",
      "type": "function",
      "constant": true
    },
    {
      "inputs": [],
      "name": "isOperator",
      "outputs": [
        {
          "internalType": "bool",
          "name": "",
          "type": "bool"
        }
      ],
      "stateMutability": "view",
      "type": "function",
      "constant": true
    },
    {
      "inputs": [],
      "name": "operator",
      "outputs": [
        {
          "internalType": "address",
          "name": "",
          "type": "address"
        }
      ],
      "stateMutability": "view",
      "type": "function",
      "constant": true
    },
    {
      "inputs": [],
      "name": "owner",
      "outputs": [
        {
          "internalType": "address",
          "name": "",
          "type": "address"
        }
      ],
      "stateMutability": "view",
      "type": "function",
      "constant": true
    },
    {
      "inputs": [
        {
          "internalType": "uint256",
          "name": "",
          "type": "uint256"
        }
      ],
      "name": "path",
      "outputs": [
        {
          "internalType": "address",
          "name": "",
          "type": "address"
        }
      ],
      "stateMutability": "view",
      "type": "function",
      "constant": true
    },
    {
      "inputs": [],
      "name": "renounceOwnership",
      "outputs": [],
      "stateMutability": "nonpayable",
      "type": "function"
    },
    {
      "inputs": [],
      "name": "seigniorageSaved",
      "outputs": [
        {
          "internalType": "uint256",
          "name": "",
          "type": "uint256"
        }
      ],
      "stateMutability": "view",
      "type": "function",
      "constant": true
    },
    {
      "inputs": [],
      "name": "share",
      "outputs": [
        {
          "internalType": "address",
          "name": "",
          "type": "address"
        }
      ],
      "stateMutability": "view",
      "type": "function",
      "constant": true
    },
    {
      "inputs": [],
      "name": "startTime",
      "outputs": [
        {
          "internalType": "uint256",
          "name": "",
          "type": "uint256"
        }
      ],
      "stateMutability": "view",
      "type": "function",
      "constant": true
    },
    {
      "inputs": [
        {
          "internalType": "address",
          "name": "newOperator_",
          "type": "address"
        }
      ],
      "name": "transferOperator",
      "outputs": [],
      "stateMutability": "nonpayable",
      "type": "function"
    },
    {
      "inputs": [
        {
          "internalType": "address",
          "name": "newOwner",
          "type": "address"
        }
      ],
      "name": "transferOwnership",
      "outputs": [],
      "stateMutability": "nonpayable",
      "type": "function"
    },
    {
      "inputs": [],
      "name": "treasuryavailable",
      "outputs": [
        {
          "internalType": "uint256",
          "name": "",
          "type": "uint256"
        }
      ],
      "stateMutability": "view",
      "type": "function",
      "constant": true
    },
    {
      "inputs": [],
      "name": "unirouter",
      "outputs": [
        {
          "internalType": "contract IUniswapV2Router02",
          "name": "",
          "type": "address"
        }
      ],
      "stateMutability": "view",
      "type": "function",
      "constant": true
    },
    {
      "stateMutability": "payable",
      "type": "receive",
      "payable": true
    },
    {
      "inputs": [],
      "name": "isMigrated",
      "outputs": [
        {
          "internalType": "bool",
          "name": "",
          "type": "bool"
        }
      ],
      "stateMutability": "view",
      "type": "function",
      "constant": true
    },
    {
      "inputs": [],
      "name": "isInitialized",
      "outputs": [
        {
          "internalType": "bool",
          "name": "",
          "type": "bool"
        }
      ],
      "stateMutability": "view",
      "type": "function",
      "constant": true
    },
    {
      "inputs": [],
      "name": "nextEpochPoint",
      "outputs": [
        {
          "internalType": "uint256",
          "name": "",
          "type": "uint256"
        }
      ],
      "stateMutability": "view",
      "type": "function",
      "constant": true
    },
    {
      "inputs": [],
      "name": "getCashPrice",
      "outputs": [
        {
          "internalType": "uint256",
          "name": "cashPrice",
          "type": "uint256"
        }
      ],
      "stateMutability": "view",
      "type": "function",
      "constant": true
    },
    {
      "inputs": [],
      "name": "getReserve",
      "outputs": [
        {
          "internalType": "uint256",
          "name": "",
          "type": "uint256"
        }
      ],
      "stateMutability": "view",
      "type": "function",
      "constant": true
    },
    {
      "inputs": [],
      "name": "initialize",
      "outputs": [],
      "stateMutability": "nonpayable",
      "type": "function"
    },
    {
      "inputs": [
        {
          "internalType": "address",
          "name": "target",
          "type": "address"
        }
      ],
      "name": "migrate",
      "outputs": [],
      "stateMutability": "nonpayable",
      "type": "function"
    },
    {
      "inputs": [
        {
          "internalType": "uint256",
          "name": "amount",
          "type": "uint256"
        },
        {
          "internalType": "uint256",
          "name": "targetPrice",
          "type": "uint256"
        }
      ],
      "name": "buyBonds",
      "outputs": [],
      "stateMutability": "nonpayable",
      "type": "function"
    },
    {
      "inputs": [
        {
          "internalType": "uint256",
          "name": "amount",
          "type": "uint256"
        },
        {
          "internalType": "uint256",
          "name": "targetPrice",
          "type": "uint256"
        }
      ],
      "name": "redeemBonds",
      "outputs": [],
      "stateMutability": "nonpayable",
      "type": "function"
    },
    {
      "inputs": [],
      "name": "allocateSeigniorage",
      "outputs": [],
      "stateMutability": "nonpayable",
      "type": "function"
    },
    {
      "inputs": [
        {
          "internalType": "address payable",
          "name": "account",
          "type": "address"
        },
        {
          "internalType": "uint256",
          "name": "amount",
          "type": "uint256"
        }
      ],
      "name": "handleReserve",
      "outputs": [],
      "stateMutability": "nonpayable",
      "type": "function"
    },
    {
      "inputs": [
        {
          "internalType": "address",
          "name": "_to",
          "type": "address"
        },
        {
          "internalType": "uint256",
          "name": "_amount",
          "type": "uint256"
        }
      ],
      "name": "withdrawTreasuryKeeped",
      "outputs": [],
      "stateMutability": "nonpayable",
      "type": "function"
    },
    {
      "inputs": [
        {
          "internalType": "address[]",
          "name": "_path",
          "type": "address[]"
        }
      ],
      "name": "setPath",
      "outputs": [],
      "stateMutability": "nonpayable",
      "type": "function"
    }
  ],
  "bytecode": "0x60806040526000600260146101000a81548160ff0219169083151502179055506000600260156101000a81548160ff02191690831515021790555060006004556000600f5560006010553480156200005657600080fd5b506040516200676e3803806200676e833981810160405260e08110156200007c57600080fd5b81019080805190602001909291908051906020019092919080519060200190929190805190602001909291908051906020019092919080519060200190929190805190602001909291905050506000620000db6200059960201b60201c565b905080600160006101000a81548173ffffffffffffffffffffffffffffffffffffffff021916908373ffffffffffffffffffffffffffffffffffffffff1602179055508073ffffffffffffffffffffffffffffffffffffffff16600073ffffffffffffffffffffffffffffffffffffffff167f8be0079c531659141344cd1fd0a4f28419497f9722a3daafe3b4186f6b6457e060405160405180910390a3506200018a6200059960201b60201c565b600260006101000a81548173ffffffffffffffffffffffffffffffffffffffff021916908373ffffffffffffffffffffffffffffffffffffffff160217905550600260009054906101000a900473ffffffffffffffffffffffffffffffffffffffff1673ffffffffffffffffffffffffffffffffffffffff16600073ffffffffffffffffffffffffffffffffffffffff167f74da04524d50c64947f5dd5381ef1a4dca5cba8ed1d816243f9e48aa0b5617ed60405160405180910390a386600560006101000a81548173ffffffffffffffffffffffffffffffffffffffff021916908373ffffffffffffffffffffffffffffffffffffffff16021790555085600660006101000a81548173ffffffffffffffffffffffffffffffffffffffff021916908373ffffffffffffffffffffffffffffffffffffffff16021790555084600760006101000a81548173ffffffffffffffffffffffffffffffffffffffff021916908373ffffffffffffffffffffffffffffffffffffffff16021790555083600960006101000a81548173ffffffffffffffffffffffffffffffffffffffff021916908373ffffffffffffffffffffffffffffffffffffffff16021790555082600860006101000a81548173ffffffffffffffffffffffffffffffffffffffff021916908373ffffffffffffffffffffffffffffffffffffffff16021790555081600a60006101000a81548173ffffffffffffffffffffffffffffffffffffffff021916908373ffffffffffffffffffffffffffffffffffffffff1602179055506000600a60009054906101000a900473ffffffffffffffffffffffffffffffffffffffff1673ffffffffffffffffffffffffffffffffffffffff1663ad5c46486040518163ffffffff1660e01b815260040160206040518083038186803b1580156200043857600080fd5b505afa1580156200044d573d6000803e3d6000fd5b505050506040513d60208110156200046457600080fd5b810190808051906020019092919050505090506040518060400160405280600560009054906101000a900473ffffffffffffffffffffffffffffffffffffffff1673ffffffffffffffffffffffffffffffffffffffff1673ffffffffffffffffffffffffffffffffffffffff1681526020018273ffffffffffffffffffffffffffffffffffffffff1673ffffffffffffffffffffffffffffffffffffffff16815250600b9060026200051892919062000749565b5081600381905550620f4240600c819055506200056160646200054d600c546069620005a160201b620050991790919060201c565b6200062c60201b6200511f1790919060201c565b600d8190555062000585600c546103e8620005a160201b620050991790919060201c565b600e81905550505050505050505062000815565b600033905090565b600080831415620005b6576000905062000626565b6000828402905082848281620005c857fe5b041462000621576040517f08c379a00000000000000000000000000000000000000000000000000000000081526004018080602001828103825260218152602001806200674d6021913960400191505060405180910390fd5b809150505b92915050565b60006200067683836040518060400160405280601a81526020017f536166654d6174683a206469766973696f6e206279207a65726f0000000000008152506200067e60201b60201c565b905092915050565b600080831182906200072e576040517f08c379a00000000000000000000000000000000000000000000000000000000081526004018080602001828103825283818151815260200191508051906020019080838360005b83811015620006f2578082015181840152602081019050620006d5565b50505050905090810190601f168015620007205780820380516001836020036101000a031916815260200191505b509250505060405180910390fd5b5060008385816200073b57fe5b049050809150509392505050565b828054828255906000526020600020908101928215620007c5579160200282015b82811115620007c45782518260006101000a81548173ffffffffffffffffffffffffffffffffffffffff021916908373ffffffffffffffffffffffffffffffffffffffff160217905550916020019190600101906200076a565b5b509050620007d49190620007d8565b5090565b5b808211156200081157600081816101000a81549073ffffffffffffffffffffffffffffffffffffffff021916905550600101620007d9565b5090565b615f2880620008256000396000f3fe6080604052600436106101fd5760003560e01c8063715018a61161010d578063a9cfc46e116100a0578063c5967c261161006f578063c5967c261461089b578063ce5494bb146108c6578063e03047b714610917578063e7a4e8a614610942578063f2fde38b1461098357610204565b8063a9cfc46e146107b3578063af6d1fe4146107de578063b06faf6214610843578063b4d1d7951461087057610204565b8063900cf0cf116100dc578063900cf0cf146106ab578063961be391146106d6578063a737b5e414610717578063a8d5fd651461077257610204565b8063715018a61461061157806378e97925146106285780638129fc1c146106535780638da5cb5b1461066a57610204565b80634456eda2116101905780635a0fc79c1161015f5780635a0fc79c146104c75780635b756179146104f25780635e02c51e1461050957806364c9ec6f1461054a578063686ca00d1461058b57610204565b80634456eda2146103e957806354f04a1114610416578063570ca7351461045b57806359bf5d391461049c57610204565b8063257ae0de116101cc578063257ae0de146102cf57806329605e7714610310578063392e53cd1461036157806343f531fa1461038e57610204565b806306cdcaf314610209578063118ebbf91461023457806316ec08941461027957806323ced135146102a457610204565b3661020457005b600080fd5b34801561021557600080fd5b5061021e6109d4565b6040518082815260200191505060405180910390f35b34801561024057600080fd5b506102776004803603604081101561025757600080fd5b8101908080359060200190929190803590602001909291905050506109da565b005b34801561028557600080fd5b5061028e6113f8565b6040518082815260200191505060405180910390f35b3480156102b057600080fd5b506102b9611545565b6040518082815260200191505060405180910390f35b3480156102db57600080fd5b506102e461154b565b604051808273ffffffffffffffffffffffffffffffffffffffff16815260200191505060405180910390f35b34801561031c57600080fd5b5061035f6004803603602081101561033357600080fd5b81019080803573ffffffffffffffffffffffffffffffffffffffff169060200190929190505050611571565b005b34801561036d57600080fd5b50610376611647565b60405180821515815260200191505060405180910390f35b34801561039a57600080fd5b506103e7600480360360408110156103b157600080fd5b81019080803573ffffffffffffffffffffffffffffffffffffffff1690602001909291908035906020019092919050505061165e565b005b3480156103f557600080fd5b506103fe6117c5565b60405180821515815260200191505060405180910390f35b34801561042257600080fd5b506104596004803603604081101561043957600080fd5b810190808035906020019092919080359060200190929190505050611824565b005b34801561046757600080fd5b506104706121af565b604051808273ffffffffffffffffffffffffffffffffffffffff16815260200191505060405180910390f35b3480156104a857600080fd5b506104b16121d9565b6040518082815260200191505060405180910390f35b3480156104d357600080fd5b506104dc6121e3565b6040518082815260200191505060405180910390f35b3480156104fe57600080fd5b506105076121e9565b005b34801561051557600080fd5b5061051e61325e565b604051808273ffffffffffffffffffffffffffffffffffffffff16815260200191505060405180910390f35b34801561055657600080fd5b5061055f613284565b604051808273ffffffffffffffffffffffffffffffffffffffff16815260200191505060405180910390f35b34801561059757600080fd5b5061060f600480360360208110156105ae57600080fd5b81019080803590602001906401000000008111156105cb57600080fd5b8201836020820111156105dd57600080fd5b803590602001918460208302840111640100000000831117156105ff57600080fd5b90919293919293905050506132aa565b005b34801561061d57600080fd5b50610626613366565b005b34801561063457600080fd5b5061063d6134f1565b6040518082815260200191505060405180910390f35b34801561065f57600080fd5b506106686134f7565b005b34801561067657600080fd5b5061067f613ca5565b604051808273ffffffffffffffffffffffffffffffffffffffff16815260200191505060405180910390f35b3480156106b757600080fd5b506106c0613ccf565b6040518082815260200191505060405180910390f35b3480156106e257600080fd5b506106eb613cd5565b604051808273ffffffffffffffffffffffffffffffffffffffff16815260200191505060405180910390f35b34801561072357600080fd5b506107706004803603604081101561073a57600080fd5b81019080803573ffffffffffffffffffffffffffffffffffffffff16906020019092919080359060200190929190505050613cfb565b005b34801561077e57600080fd5b50610787613fc4565b604051808273ffffffffffffffffffffffffffffffffffffffff16815260200191505060405180910390f35b3480156107bf57600080fd5b506107c8613fea565b6040518082815260200191505060405180910390f35b3480156107ea57600080fd5b506108176004803603602081101561080157600080fd5b8101908080359060200190929190505050613ff0565b604051808273ffffffffffffffffffffffffffffffffffffffff16815260200191505060405180910390f35b34801561084f57600080fd5b5061085861402c565b60405180821515815260200191505060405180910390f35b34801561087c57600080fd5b50610885614043565b6040518082815260200191505060405180910390f35b3480156108a757600080fd5b506108b061404a565b6040518082815260200191505060405180910390f35b3480156108d257600080fd5b50610915600480360360208110156108e957600080fd5b81019080803573ffffffffffffffffffffffffffffffffffffffff16906020019092919050505061407d565b005b34801561092357600080fd5b5061092c614e5d565b6040518082815260200191505060405180910390f35b34801561094e57600080fd5b50610957614e63565b604051808273ffffffffffffffffffffffffffffffffffffffff16815260200191505060405180910390f35b34801561098f57600080fd5b506109d2600480360360208110156109a657600080fd5b81019080803573ffffffffffffffffffffffffffffffffffffffff169060200190929190505050614e89565b005b60105481565b6109e2615169565b15610a38576040517f08c379a0000000000000000000000000000000000000000000000000000000008152600401808060200182810382526026815260200180615e666026913960400191505060405180910390fd5b610a406151cd565b15610a96576040517f08c379a0000000000000000000000000000000000000000000000000000000008152600401808060200182810382526026815260200180615e666026913960400191505060405180910390fd5b600260149054906101000a900460ff1615610b19576040517f08c379a00000000000000000000000000000000000000000000000000000000081526004018080602001828103825260128152602001807f54726561737572793a206d69677261746564000000000000000000000000000081525060200191505060405180910390fd5b600354421015610b91576040517f08c379a00000000000000000000000000000000000000000000000000000000081526004018080602001828103825260198152602001807f54726561737572793a206e6f742073746172746564207965740000000000000081525060200191505060405180910390fd5b3073ffffffffffffffffffffffffffffffffffffffff16600560009054906101000a900473ffffffffffffffffffffffffffffffffffffffff1673ffffffffffffffffffffffffffffffffffffffff1663570ca7356040518163ffffffff1660e01b815260040160206040518083038186803b158015610c1057600080fd5b505afa158015610c24573d6000803e3d6000fd5b505050506040513d6020811015610c3a57600080fd5b810190808051906020019092919050505073ffffffffffffffffffffffffffffffffffffffff16148015610d3b57503073ffffffffffffffffffffffffffffffffffffffff16600660009054906101000a900473ffffffffffffffffffffffffffffffffffffffff1673ffffffffffffffffffffffffffffffffffffffff1663570ca7356040518163ffffffff1660e01b815260040160206040518083038186803b158015610ce857600080fd5b505afa158015610cfc573d6000803e3d6000fd5b505050506040513d6020811015610d1257600080fd5b810190808051906020019092919050505073ffffffffffffffffffffffffffffffffffffffff16145b8015610e1457503073ffffffffffffffffffffffffffffffffffffffff16600760009054906101000a900473ffffffffffffffffffffffffffffffffffffffff1673ffffffffffffffffffffffffffffffffffffffff1663570ca7356040518163ffffffff1660e01b815260040160206040518083038186803b158015610dc157600080fd5b505afa158015610dd5573d6000803e3d6000fd5b505050506040513d6020811015610deb57600080fd5b810190808051906020019092919050505073ffffffffffffffffffffffffffffffffffffffff16145b8015610eed57503073ffffffffffffffffffffffffffffffffffffffff16600860009054906101000a900473ffffffffffffffffffffffffffffffffffffffff1673ffffffffffffffffffffffffffffffffffffffff1663570ca7356040518163ffffffff1660e01b815260040160206040518083038186803b158015610e9a57600080fd5b505afa158015610eae573d6000803e3d6000fd5b505050506040513d6020811015610ec457600080fd5b810190808051906020019092919050505073ffffffffffffffffffffffffffffffffffffffff16145b610f5f576040517f08c379a000000000000000000000000000000000000000000000000000000000815260040180806020018281038252601e8152602001807f54726561737572793a206e656564206d6f7265207065726d697373696f6e000081525060200191505060405180910390fd5b60008211610fb8576040517f08c379a000000000000000000000000000000000000000000000000000000000815260040180806020018281038252602e815260200180615cdf602e913960400191505060405180910390fd5b6000610fc26113f8565b9050818114611039576040517f08c379a000000000000000000000000000000000000000000000000000000000815260040180806020018281038252601a8152602001807f54726561737572793a2063617368207072696365206d6f76656400000000000081525060200191505060405180910390fd5b600d548111611093576040517f08c379a0000000000000000000000000000000000000000000000000000000008152600401808060200182810382526032815260200180615d0d6032913960400191505060405180910390fd5b82600560009054906101000a900473ffffffffffffffffffffffffffffffffffffffff1673ffffffffffffffffffffffffffffffffffffffff166370a08231306040518263ffffffff1660e01b8152600401808273ffffffffffffffffffffffffffffffffffffffff16815260200191505060206040518083038186803b15801561111d57600080fd5b505afa158015611131573d6000803e3d6000fd5b505050506040513d602081101561114757600080fd5b810190808051906020019092919050505010156111af576040517f08c379a0000000000000000000000000000000000000000000000000000000008152600401808060200182810382526025815260200180615d6c6025913960400191505060405180910390fd5b6111cf6111be600f5485615231565b600f5461524a90919063ffffffff16565b600f81905550600660009054906101000a900473ffffffffffffffffffffffffffffffffffffffff1673ffffffffffffffffffffffffffffffffffffffff166379cc679033856040518363ffffffff1660e01b8152600401808373ffffffffffffffffffffffffffffffffffffffff16815260200182815260200192505050600060405180830381600087803b15801561126857600080fd5b505af115801561127c573d6000803e3d6000fd5b505050506112cd3384600560009054906101000a900473ffffffffffffffffffffffffffffffffffffffff1673ffffffffffffffffffffffffffffffffffffffff166152949092919063ffffffff16565b6112d5615336565b3373ffffffffffffffffffffffffffffffffffffffff167f9c3478f12dce08d85673d802af16ed5b9ebab8420ffd7b145d65d3157084b2ce846040518082815260200191505060405180910390a250600160008043815260200190815260200160002060003273ffffffffffffffffffffffffffffffffffffffff1673ffffffffffffffffffffffffffffffffffffffff16815260200190815260200160002060006101000a81548160ff021916908315150217905550600160008043815260200190815260200160002060003373ffffffffffffffffffffffffffffffffffffffff1673ffffffffffffffffffffffffffffffffffffffff16815260200190815260200160002060006101000a81548160ff0219169083151502179055505050565b6000600960009054906101000a900473ffffffffffffffffffffffffffffffffffffffff1673ffffffffffffffffffffffffffffffffffffffff16633ddac953600560009054906101000a900473ffffffffffffffffffffffffffffffffffffffff16670de0b6b3a76400006040518363ffffffff1660e01b8152600401808373ffffffffffffffffffffffffffffffffffffffff1681526020018281526020019250505060206040518083038186803b1580156114b557600080fd5b505afa9250505080156114e957506040513d60208110156114d557600080fd5b810190808051906020019092919050505060015b61153e576040517f08c379a0000000000000000000000000000000000000000000000000000000008152600401808060200182810382526036815260200180615db26036913960400191505060405180910390fd5b8091505090565b600d5481565b600a60009054906101000a900473ffffffffffffffffffffffffffffffffffffffff1681565b6115796153bd565b73ffffffffffffffffffffffffffffffffffffffff16600160009054906101000a900473ffffffffffffffffffffffffffffffffffffffff1673ffffffffffffffffffffffffffffffffffffffff161461163b576040517f08c379a00000000000000000000000000000000000000000000000000000000081526004018080602001828103825260208152602001807f4f776e61626c653a2063616c6c6572206973206e6f7420746865206f776e657281525060200191505060405180910390fd5b611644816153c5565b50565b6000600260159054906101000a900460ff16905090565b3373ffffffffffffffffffffffffffffffffffffffff16600260009054906101000a900473ffffffffffffffffffffffffffffffffffffffff1673ffffffffffffffffffffffffffffffffffffffff1614611704576040517f08c379a0000000000000000000000000000000000000000000000000000000008152600401808060200182810382526024815260200180615e186024913960400191505060405180910390fd5b8047101561177a576040517f08c379a000000000000000000000000000000000000000000000000000000000815260040180806020018281038252601c8152602001807f54726561737572793a2062616c616e6365206e6f7420656e6f7567680000000081525060200191505060405180910390fd5b8173ffffffffffffffffffffffffffffffffffffffff166108fc829081150290604051600060405180830381858888f193505050501580156117c0573d6000803e3d6000fd5b505050565b6000600260009054906101000a900473ffffffffffffffffffffffffffffffffffffffff1673ffffffffffffffffffffffffffffffffffffffff166118086153bd565b73ffffffffffffffffffffffffffffffffffffffff1614905090565b61182c615169565b15611882576040517f08c379a0000000000000000000000000000000000000000000000000000000008152600401808060200182810382526026815260200180615e666026913960400191505060405180910390fd5b61188a6151cd565b156118e0576040517f08c379a0000000000000000000000000000000000000000000000000000000008152600401808060200182810382526026815260200180615e666026913960400191505060405180910390fd5b600260149054906101000a900460ff1615611963576040517f08c379a00000000000000000000000000000000000000000000000000000000081526004018080602001828103825260128152602001807f54726561737572793a206d69677261746564000000000000000000000000000081525060200191505060405180910390fd5b6003544210156119db576040517f08c379a00000000000000000000000000000000000000000000000000000000081526004018080602001828103825260198152602001807f54726561737572793a206e6f742073746172746564207965740000000000000081525060200191505060405180910390fd5b3073ffffffffffffffffffffffffffffffffffffffff16600560009054906101000a900473ffffffffffffffffffffffffffffffffffffffff1673ffffffffffffffffffffffffffffffffffffffff1663570ca7356040518163ffffffff1660e01b815260040160206040518083038186803b158015611a5a57600080fd5b505afa158015611a6e573d6000803e3d6000fd5b505050506040513d6020811015611a8457600080fd5b810190808051906020019092919050505073ffffffffffffffffffffffffffffffffffffffff16148015611b8557503073ffffffffffffffffffffffffffffffffffffffff16600660009054906101000a900473ffffffffffffffffffffffffffffffffffffffff1673ffffffffffffffffffffffffffffffffffffffff1663570ca7356040518163ffffffff1660e01b815260040160206040518083038186803b158015611b3257600080fd5b505afa158015611b46573d6000803e3d6000fd5b505050506040513d6020811015611b5c57600080fd5b810190808051906020019092919050505073ffffffffffffffffffffffffffffffffffffffff16145b8015611c5e57503073ffffffffffffffffffffffffffffffffffffffff16600760009054906101000a900473ffffffffffffffffffffffffffffffffffffffff1673ffffffffffffffffffffffffffffffffffffffff1663570ca7356040518163ffffffff1660e01b815260040160206040518083038186803b158015611c0b57600080fd5b505afa158015611c1f573d6000803e3d6000fd5b505050506040513d6020811015611c3557600080fd5b810190808051906020019092919050505073ffffffffffffffffffffffffffffffffffffffff16145b8015611d3757503073ffffffffffffffffffffffffffffffffffffffff16600860009054906101000a900473ffffffffffffffffffffffffffffffffffffffff1673ffffffffffffffffffffffffffffffffffffffff1663570ca7356040518163ffffffff1660e01b815260040160206040518083038186803b158015611ce457600080fd5b505afa158015611cf8573d6000803e3d6000fd5b505050506040513d6020811015611d0e57600080fd5b810190808051906020019092919050505073ffffffffffffffffffffffffffffffffffffffff16145b611da9576040517f08c379a000000000000000000000000000000000000000000000000000000000815260040180806020018281038252601e8152602001807f54726561737572793a206e656564206d6f7265207065726d697373696f6e000081525060200191505060405180910390fd5b60008211611e02576040517f08c379a0000000000000000000000000000000000000000000000000000000008152600401808060200182810382526030815260200180615de86030913960400191505060405180910390fd5b6000611e0c6113f8565b9050818114611e83576040517f08c379a000000000000000000000000000000000000000000000000000000000815260040180806020018281038252601a8152602001807f54726561737572793a2063617368207072696365206d6f76656400000000000081525060200191505060405180910390fd5b600c548110611edd576040517f08c379a0000000000000000000000000000000000000000000000000000000008152600401808060200182810382526032815260200180615d0d6032913960400191505060405180910390fd5b6000819050600560009054906101000a900473ffffffffffffffffffffffffffffffffffffffff1673ffffffffffffffffffffffffffffffffffffffff166379cc679033866040518363ffffffff1660e01b8152600401808373ffffffffffffffffffffffffffffffffffffffff16815260200182815260200192505050600060405180830381600087803b158015611f7557600080fd5b505af1158015611f89573d6000803e3d6000fd5b50505050600660009054906101000a900473ffffffffffffffffffffffffffffffffffffffff1673ffffffffffffffffffffffffffffffffffffffff166340c10f1933611ff484611fe6620f42408a61509990919063ffffffff16565b61511f90919063ffffffff16565b6040518363ffffffff1660e01b8152600401808373ffffffffffffffffffffffffffffffffffffffff16815260200182815260200192505050602060405180830381600087803b15801561204757600080fd5b505af115801561205b573d6000803e3d6000fd5b505050506040513d602081101561207157600080fd5b81019080805190602001909291905050505061208b615336565b3373ffffffffffffffffffffffffffffffffffffffff167fdbf5270c3cf4729fec4fdac76fda864aa4f3d14d657ad21772ac28f627141ed9856040518082815260200191505060405180910390a25050600160008043815260200190815260200160002060003273ffffffffffffffffffffffffffffffffffffffff1673ffffffffffffffffffffffffffffffffffffffff16815260200190815260200160002060006101000a81548160ff021916908315150217905550600160008043815260200190815260200160002060003373ffffffffffffffffffffffffffffffffffffffff1673ffffffffffffffffffffffffffffffffffffffff16815260200190815260200160002060006101000a81548160ff0219169083151502179055505050565b6000600260009054906101000a900473ffffffffffffffffffffffffffffffffffffffff16905090565b6000600f54905090565b600f5481565b6121f1615169565b15612247576040517f08c379a0000000000000000000000000000000000000000000000000000000008152600401808060200182810382526026815260200180615e666026913960400191505060405180910390fd5b61224f6151cd565b156122a5576040517f08c379a0000000000000000000000000000000000000000000000000000000008152600401808060200182810382526026815260200180615e666026913960400191505060405180910390fd5b600260149054906101000a900460ff1615612328576040517f08c379a00000000000000000000000000000000000000000000000000000000081526004018080602001828103825260128152602001807f54726561737572793a206d69677261746564000000000000000000000000000081525060200191505060405180910390fd5b6003544210156123a0576040517f08c379a00000000000000000000000000000000000000000000000000000000081526004018080602001828103825260198152602001807f54726561737572793a206e6f742073746172746564207965740000000000000081525060200191505060405180910390fd5b6123a861404a565b42101561241d576040517f08c379a00000000000000000000000000000000000000000000000000000000081526004018080602001828103825260188152602001807f54726561737572793a206e6f74206f70656e656420796574000000000000000081525060200191505060405180910390fd5b3073ffffffffffffffffffffffffffffffffffffffff16600560009054906101000a900473ffffffffffffffffffffffffffffffffffffffff1673ffffffffffffffffffffffffffffffffffffffff1663570ca7356040518163ffffffff1660e01b815260040160206040518083038186803b15801561249c57600080fd5b505afa1580156124b0573d6000803e3d6000fd5b505050506040513d60208110156124c657600080fd5b810190808051906020019092919050505073ffffffffffffffffffffffffffffffffffffffff161480156125c757503073ffffffffffffffffffffffffffffffffffffffff16600660009054906101000a900473ffffffffffffffffffffffffffffffffffffffff1673ffffffffffffffffffffffffffffffffffffffff1663570ca7356040518163ffffffff1660e01b815260040160206040518083038186803b15801561257457600080fd5b505afa158015612588573d6000803e3d6000fd5b505050506040513d602081101561259e57600080fd5b810190808051906020019092919050505073ffffffffffffffffffffffffffffffffffffffff16145b80156126a057503073ffffffffffffffffffffffffffffffffffffffff16600760009054906101000a900473ffffffffffffffffffffffffffffffffffffffff1673ffffffffffffffffffffffffffffffffffffffff1663570ca7356040518163ffffffff1660e01b815260040160206040518083038186803b15801561264d57600080fd5b505afa158015612661573d6000803e3d6000fd5b505050506040513d602081101561267757600080fd5b810190808051906020019092919050505073ffffffffffffffffffffffffffffffffffffffff16145b801561277957503073ffffffffffffffffffffffffffffffffffffffff16600860009054906101000a900473ffffffffffffffffffffffffffffffffffffffff1673ffffffffffffffffffffffffffffffffffffffff1663570ca7356040518163ffffffff1660e01b815260040160206040518083038186803b15801561272657600080fd5b505afa15801561273a573d6000803e3d6000fd5b505050506040513d602081101561275057600080fd5b810190808051906020019092919050505073ffffffffffffffffffffffffffffffffffffffff16145b6127eb576040517f08c379a000000000000000000000000000000000000000000000000000000000815260040180806020018281038252601e8152602001807f54726561737572793a206e656564206d6f7265207065726d697373696f6e000081525060200191505060405180910390fd5b6127f3615336565b60006127fd6113f8565b9050600d548111612859576040517f08c379a0000000000000000000000000000000000000000000000000000000008152600401808060200182810382526031815260200180615ec26031913960400191505060405180910390fd5b6000612912600f54600560009054906101000a900473ffffffffffffffffffffffffffffffffffffffff1673ffffffffffffffffffffffffffffffffffffffff166318160ddd6040518163ffffffff1660e01b815260040160206040518083038186803b1580156128c957600080fd5b505afa1580156128dd573d6000803e3d6000fd5b505050506040513d60208110156128f357600080fd5b810190808051906020019092919050505061524a90919063ffffffff16565b9050600061292b600c548461524a90919063ffffffff16565b90506000612957620f4240612949848661509990919063ffffffff16565b61511f90919063ffffffff16565b9050612971620f4240600e5461511f90919063ffffffff16565b61298e670de0b6b3a7640000600f5461511f90919063ffffffff16565b111561304257600560009054906101000a900473ffffffffffffffffffffffffffffffffffffffff1673ffffffffffffffffffffffffffffffffffffffff166340c10f1930836040518363ffffffff1660e01b8152600401808373ffffffffffffffffffffffffffffffffffffffff16815260200182815260200192505050602060405180830381600087803b158015612a2757600080fd5b505af1158015612a3b573d6000803e3d6000fd5b505050506040513d6020811015612a5157600080fd5b8101908080519060200190929190505050506000600960009054906101000a900473ffffffffffffffffffffffffffffffffffffffff1673ffffffffffffffffffffffffffffffffffffffff16633e99c1e4600560009054906101000a900473ffffffffffffffffffffffffffffffffffffffff166040518263ffffffff1660e01b8152600401808273ffffffffffffffffffffffffffffffffffffffff16815260200191505060206040518083038186803b158015612b1057600080fd5b505afa158015612b24573d6000803e3d6000fd5b505050506040513d6020811015612b3a57600080fd5b810190808051906020019092919050505090506000612b63600a8461511f90919063ffffffff16565b90506000612b9482612b8f6002866dffffffffffffffffffffffffffff1661511f90919063ffffffff16565b615231565b9050612c05600a60009054906101000a900473ffffffffffffffffffffffffffffffffffffffff1682600560009054906101000a900473ffffffffffffffffffffffffffffffffffffffff1673ffffffffffffffffffffffffffffffffffffffff166154ea9092919063ffffffff16565b600a60009054906101000a900473ffffffffffffffffffffffffffffffffffffffff1673ffffffffffffffffffffffffffffffffffffffff166318cbafe5826000600b30612c5e610708426156af90919063ffffffff16565b6040518663ffffffff1660e01b815260040180868152602001858152602001806020018473ffffffffffffffffffffffffffffffffffffffff1681526020018381526020018281038252858181548152602001915080548015612d1657602002820191906000526020600020905b8160009054906101000a900473ffffffffffffffffffffffffffffffffffffffff1673ffffffffffffffffffffffffffffffffffffffff1681526020019060010190808311612ccc575b50509650505050505050600060405180830381600087803b158015612d3a57600080fd5b505af1925050508015612e0857506040513d6000823e3d601f19601f820116820180604052506020811015612d6e57600080fd5b8101908080516040519392919084640100000000821115612d8e57600080fd5b83820191506020820185811115612da457600080fd5b8251866020820283011164010000000082111715612dc157600080fd5b8083526020830192505050908051906020019060200280838360005b83811015612df8578082015181840152602081019050612ddd565b5050505090500160405250505060015b612e9e57600560009054906101000a900473ffffffffffffffffffffffffffffffffffffffff1673ffffffffffffffffffffffffffffffffffffffff166342966c68826040518263ffffffff1660e01b815260040180828152602001915050600060405180830381600087803b158015612e8157600080fd5b505af1158015612e95573d6000803e3d6000fd5b50505050612ea0565b505b6000612eb5828461524a90919063ffffffff16565b9050612ecc816010546156af90919063ffffffff16565b6010819055506000612efb6064612eed605a8961509990919063ffffffff16565b61511f90919063ffffffff16565b9050612f6c600860009054906101000a900473ffffffffffffffffffffffffffffffffffffffff1682600560009054906101000a900473ffffffffffffffffffffffffffffffffffffffff1673ffffffffffffffffffffffffffffffffffffffff166154ea9092919063ffffffff16565b600860009054906101000a900473ffffffffffffffffffffffffffffffffffffffff1673ffffffffffffffffffffffffffffffffffffffff166397ffe1d7826040518263ffffffff1660e01b815260040180828152602001915050600060405180830381600087803b158015612fe157600080fd5b505af1158015612ff5573d6000803e3d6000fd5b505050507f03ca7276ab7799bf73fb79d27ff0610cd7049574f2508ef8445162833d439aea4282604051808381526020018281526020019250505060405180910390a1505050505061316c565b61305781600f546156af90919063ffffffff16565b600f81905550600560009054906101000a900473ffffffffffffffffffffffffffffffffffffffff1673ffffffffffffffffffffffffffffffffffffffff166340c10f1930836040518363ffffffff1660e01b8152600401808373ffffffffffffffffffffffffffffffffffffffff16815260200182815260200192505050602060405180830381600087803b1580156130f057600080fd5b505af1158015613104573d6000803e3d6000fd5b505050506040513d602081101561311a57600080fd5b8101908080519060200190929190505050507ff705142bf09f04297640495ddf7c59b7fd6f51894c5aea9602d631cf05f0efc24282604051808381526020018281526020019250505060405180910390a15b5050505061318660016004546156af90919063ffffffff16565b600481905550600160008043815260200190815260200160002060003273ffffffffffffffffffffffffffffffffffffffff1673ffffffffffffffffffffffffffffffffffffffff16815260200190815260200160002060006101000a81548160ff021916908315150217905550600160008043815260200190815260200160002060003373ffffffffffffffffffffffffffffffffffffffff1673ffffffffffffffffffffffffffffffffffffffff16815260200190815260200160002060006101000a81548160ff021916908315150217905550565b600860009054906101000a900473ffffffffffffffffffffffffffffffffffffffff1681565b600660009054906101000a900473ffffffffffffffffffffffffffffffffffffffff1681565b3373ffffffffffffffffffffffffffffffffffffffff16600260009054906101000a900473ffffffffffffffffffffffffffffffffffffffff1673ffffffffffffffffffffffffffffffffffffffff1614613350576040517f08c379a0000000000000000000000000000000000000000000000000000000008152600401808060200182810382526024815260200180615e186024913960400191505060405180910390fd5b8181600b9190613361929190615bdd565b505050565b61336e6153bd565b73ffffffffffffffffffffffffffffffffffffffff16600160009054906101000a900473ffffffffffffffffffffffffffffffffffffffff1673ffffffffffffffffffffffffffffffffffffffff1614613430576040517f08c379a00000000000000000000000000000000000000000000000000000000081526004018080602001828103825260208152602001807f4f776e61626c653a2063616c6c6572206973206e6f7420746865206f776e657281525060200191505060405180910390fd5b600073ffffffffffffffffffffffffffffffffffffffff16600160009054906101000a900473ffffffffffffffffffffffffffffffffffffffff1673ffffffffffffffffffffffffffffffffffffffff167f8be0079c531659141344cd1fd0a4f28419497f9722a3daafe3b4186f6b6457e060405160405180910390a36000600160006101000a81548173ffffffffffffffffffffffffffffffffffffffff021916908373ffffffffffffffffffffffffffffffffffffffff160217905550565b60035481565b600260159054906101000a900460ff161561357a576040517f08c379a000000000000000000000000000000000000000000000000000000000815260040180806020018281038252601d8152602001807f54726561737572793a20616c726561647920696e697469616c697a656400000081525060200191505060405180910390fd5b3073ffffffffffffffffffffffffffffffffffffffff16600560009054906101000a900473ffffffffffffffffffffffffffffffffffffffff1673ffffffffffffffffffffffffffffffffffffffff1663570ca7356040518163ffffffff1660e01b815260040160206040518083038186803b1580156135f957600080fd5b505afa15801561360d573d6000803e3d6000fd5b505050506040513d602081101561362357600080fd5b810190808051906020019092919050505073ffffffffffffffffffffffffffffffffffffffff1614801561372457503073ffffffffffffffffffffffffffffffffffffffff16600660009054906101000a900473ffffffffffffffffffffffffffffffffffffffff1673ffffffffffffffffffffffffffffffffffffffff1663570ca7356040518163ffffffff1660e01b815260040160206040518083038186803b1580156136d157600080fd5b505afa1580156136e5573d6000803e3d6000fd5b505050506040513d60208110156136fb57600080fd5b810190808051906020019092919050505073ffffffffffffffffffffffffffffffffffffffff16145b80156137fd57503073ffffffffffffffffffffffffffffffffffffffff16600760009054906101000a900473ffffffffffffffffffffffffffffffffffffffff1673ffffffffffffffffffffffffffffffffffffffff1663570ca7356040518163ffffffff1660e01b815260040160206040518083038186803b1580156137aa57600080fd5b505afa1580156137be573d6000803e3d6000fd5b505050506040513d60208110156137d457600080fd5b810190808051906020019092919050505073ffffffffffffffffffffffffffffffffffffffff16145b80156138d657503073ffffffffffffffffffffffffffffffffffffffff16600860009054906101000a900473ffffffffffffffffffffffffffffffffffffffff1673ffffffffffffffffffffffffffffffffffffffff1663570ca7356040518163ffffffff1660e01b815260040160206040518083038186803b15801561388357600080fd5b505afa158015613897573d6000803e3d6000fd5b505050506040513d60208110156138ad57600080fd5b810190808051906020019092919050505073ffffffffffffffffffffffffffffffffffffffff16145b613948576040517f08c379a000000000000000000000000000000000000000000000000000000000815260040180806020018281038252601e8152602001807f54726561737572793a206e656564206d6f7265207065726d697373696f6e000081525060200191505060405180910390fd5b600560009054906101000a900473ffffffffffffffffffffffffffffffffffffffff1673ffffffffffffffffffffffffffffffffffffffff166342966c68600560009054906101000a900473ffffffffffffffffffffffffffffffffffffffff1673ffffffffffffffffffffffffffffffffffffffff166370a08231306040518263ffffffff1660e01b8152600401808273ffffffffffffffffffffffffffffffffffffffff16815260200191505060206040518083038186803b158015613a0f57600080fd5b505afa158015613a23573d6000803e3d6000fd5b505050506040513d6020811015613a3957600080fd5b81019080805190602001909291905050506040518263ffffffff1660e01b815260040180828152602001915050600060405180830381600087803b158015613a8057600080fd5b505af1158015613a94573d6000803e3d6000fd5b50505050600560009054906101000a900473ffffffffffffffffffffffffffffffffffffffff1673ffffffffffffffffffffffffffffffffffffffff166340c10f1930683643aa6479860400006040518363ffffffff1660e01b8152600401808373ffffffffffffffffffffffffffffffffffffffff16815260200182815260200192505050602060405180830381600087803b158015613b3457600080fd5b505af1158015613b48573d6000803e3d6000fd5b505050506040513d6020811015613b5e57600080fd5b810190808051906020019092919050505050600560009054906101000a900473ffffffffffffffffffffffffffffffffffffffff1673ffffffffffffffffffffffffffffffffffffffff166370a08231306040518263ffffffff1660e01b8152600401808273ffffffffffffffffffffffffffffffffffffffff16815260200191505060206040518083038186803b158015613bf957600080fd5b505afa158015613c0d573d6000803e3d6000fd5b505050506040513d6020811015613c2357600080fd5b8101908080519060200190929190505050600f819055506001600260156101000a81548160ff0219169083151502179055503373ffffffffffffffffffffffffffffffffffffffff167f25ff68dd81b34665b5ba7e553ee5511bf6812e12adb4a7e2c0d9e26b3099ce79436040518082815260200191505060405180910390a2565b6000600160009054906101000a900473ffffffffffffffffffffffffffffffffffffffff16905090565b60045481565b600560009054906101000a900473ffffffffffffffffffffffffffffffffffffffff1681565b3373ffffffffffffffffffffffffffffffffffffffff16600260009054906101000a900473ffffffffffffffffffffffffffffffffffffffff1673ffffffffffffffffffffffffffffffffffffffff1614613da1576040517f08c379a0000000000000000000000000000000000000000000000000000000008152600401808060200182810382526024815260200180615e186024913960400191505060405180910390fd5b6000600560009054906101000a900473ffffffffffffffffffffffffffffffffffffffff1673ffffffffffffffffffffffffffffffffffffffff166370a08231306040518263ffffffff1660e01b8152600401808273ffffffffffffffffffffffffffffffffffffffff16815260200191505060206040518083038186803b158015613e2c57600080fd5b505afa158015613e40573d6000803e3d6000fd5b505050506040513d6020811015613e5657600080fd5b8101908080519060200190929190505050905080821115613edf576040517f08c379a00000000000000000000000000000000000000000000000000000000081526004018080602001828103825260208152602001807f54726561737572793a20216578636565647320746f74616c2062616c616e636581525060200191505060405180910390fd5b601054821115613f57576040517f08c379a000000000000000000000000000000000000000000000000000000000815260040180806020018281038252601b8152602001807f54726561737572793a202165786365656473206176616961626c65000000000081525060200191505060405180910390fd5b613f6c8260105461524a90919063ffffffff16565b601081905550613fbf8383600560009054906101000a900473ffffffffffffffffffffffffffffffffffffffff1673ffffffffffffffffffffffffffffffffffffffff166152949092919063ffffffff16565b505050565b600760009054906101000a900473ffffffffffffffffffffffffffffffffffffffff1681565b600c5481565b600b8181548110613ffd57fe5b906000526020600020016000915054906101000a900473ffffffffffffffffffffffffffffffffffffffff1681565b6000600260149054906101000a900460ff16905090565b6201518081565b60006140786140676201518060045461509990919063ffffffff16565b6003546156af90919063ffffffff16565b905090565b3373ffffffffffffffffffffffffffffffffffffffff16600260009054906101000a900473ffffffffffffffffffffffffffffffffffffffff1673ffffffffffffffffffffffffffffffffffffffff1614614123576040517f08c379a0000000000000000000000000000000000000000000000000000000008152600401808060200182810382526024815260200180615e186024913960400191505060405180910390fd5b3073ffffffffffffffffffffffffffffffffffffffff16600560009054906101000a900473ffffffffffffffffffffffffffffffffffffffff1673ffffffffffffffffffffffffffffffffffffffff1663570ca7356040518163ffffffff1660e01b815260040160206040518083038186803b1580156141a257600080fd5b505afa1580156141b6573d6000803e3d6000fd5b505050506040513d60208110156141cc57600080fd5b810190808051906020019092919050505073ffffffffffffffffffffffffffffffffffffffff161480156142cd57503073ffffffffffffffffffffffffffffffffffffffff16600660009054906101000a900473ffffffffffffffffffffffffffffffffffffffff1673ffffffffffffffffffffffffffffffffffffffff1663570ca7356040518163ffffffff1660e01b815260040160206040518083038186803b15801561427a57600080fd5b505afa15801561428e573d6000803e3d6000fd5b505050506040513d60208110156142a457600080fd5b810190808051906020019092919050505073ffffffffffffffffffffffffffffffffffffffff16145b80156143a657503073ffffffffffffffffffffffffffffffffffffffff16600760009054906101000a900473ffffffffffffffffffffffffffffffffffffffff1673ffffffffffffffffffffffffffffffffffffffff1663570ca7356040518163ffffffff1660e01b815260040160206040518083038186803b15801561435357600080fd5b505afa158015614367573d6000803e3d6000fd5b505050506040513d602081101561437d57600080fd5b810190808051906020019092919050505073ffffffffffffffffffffffffffffffffffffffff16145b801561447f57503073ffffffffffffffffffffffffffffffffffffffff16600860009054906101000a900473ffffffffffffffffffffffffffffffffffffffff1673ffffffffffffffffffffffffffffffffffffffff1663570ca7356040518163ffffffff1660e01b815260040160206040518083038186803b15801561442c57600080fd5b505afa158015614440573d6000803e3d6000fd5b505050506040513d602081101561445657600080fd5b810190808051906020019092919050505073ffffffffffffffffffffffffffffffffffffffff16145b6144f1576040517f08c379a000000000000000000000000000000000000000000000000000000000815260040180806020018281038252601e8152602001807f54726561737572793a206e656564206d6f7265207065726d697373696f6e000081525060200191505060405180910390fd5b600260149054906101000a900460ff1615614574576040517f08c379a00000000000000000000000000000000000000000000000000000000081526004018080602001828103825260128152602001807f54726561737572793a206d69677261746564000000000000000000000000000081525060200191505060405180910390fd5b600560009054906101000a900473ffffffffffffffffffffffffffffffffffffffff1673ffffffffffffffffffffffffffffffffffffffff166329605e77826040518263ffffffff1660e01b8152600401808273ffffffffffffffffffffffffffffffffffffffff168152602001915050600060405180830381600087803b1580156145ff57600080fd5b505af1158015614613573d6000803e3d6000fd5b50505050600560009054906101000a900473ffffffffffffffffffffffffffffffffffffffff1673ffffffffffffffffffffffffffffffffffffffff1663f2fde38b826040518263ffffffff1660e01b8152600401808273ffffffffffffffffffffffffffffffffffffffff168152602001915050600060405180830381600087803b1580156146a257600080fd5b505af11580156146b6573d6000803e3d6000fd5b50505050600560009054906101000a900473ffffffffffffffffffffffffffffffffffffffff1673ffffffffffffffffffffffffffffffffffffffff1663a9059cbb82600560009054906101000a900473ffffffffffffffffffffffffffffffffffffffff1673ffffffffffffffffffffffffffffffffffffffff166370a08231306040518263ffffffff1660e01b8152600401808273ffffffffffffffffffffffffffffffffffffffff16815260200191505060206040518083038186803b15801561478257600080fd5b505afa158015614796573d6000803e3d6000fd5b505050506040513d60208110156147ac57600080fd5b81019080805190602001909291905050506040518363ffffffff1660e01b8152600401808373ffffffffffffffffffffffffffffffffffffffff16815260200182815260200192505050602060405180830381600087803b15801561481057600080fd5b505af1158015614824573d6000803e3d6000fd5b505050506040513d602081101561483a57600080fd5b810190808051906020019092919050505050600660009054906101000a900473ffffffffffffffffffffffffffffffffffffffff1673ffffffffffffffffffffffffffffffffffffffff166329605e77826040518263ffffffff1660e01b8152600401808273ffffffffffffffffffffffffffffffffffffffff168152602001915050600060405180830381600087803b1580156148d757600080fd5b505af11580156148eb573d6000803e3d6000fd5b50505050600660009054906101000a900473ffffffffffffffffffffffffffffffffffffffff1673ffffffffffffffffffffffffffffffffffffffff1663f2fde38b826040518263ffffffff1660e01b8152600401808273ffffffffffffffffffffffffffffffffffffffff168152602001915050600060405180830381600087803b15801561497a57600080fd5b505af115801561498e573d6000803e3d6000fd5b50505050600660009054906101000a900473ffffffffffffffffffffffffffffffffffffffff1673ffffffffffffffffffffffffffffffffffffffff1663a9059cbb82600660009054906101000a900473ffffffffffffffffffffffffffffffffffffffff1673ffffffffffffffffffffffffffffffffffffffff166370a08231306040518263ffffffff1660e01b8152600401808273ffffffffffffffffffffffffffffffffffffffff16815260200191505060206040518083038186803b158015614a5a57600080fd5b505afa158015614a6e573d6000803e3d6000fd5b505050506040513d6020811015614a8457600080fd5b81019080805190602001909291905050506040518363ffffffff1660e01b8152600401808373ffffffffffffffffffffffffffffffffffffffff16815260200182815260200192505050602060405180830381600087803b158015614ae857600080fd5b505af1158015614afc573d6000803e3d6000fd5b505050506040513d6020811015614b1257600080fd5b810190808051906020019092919050505050600760009054906101000a900473ffffffffffffffffffffffffffffffffffffffff1673ffffffffffffffffffffffffffffffffffffffff166329605e77826040518263ffffffff1660e01b8152600401808273ffffffffffffffffffffffffffffffffffffffff168152602001915050600060405180830381600087803b158015614baf57600080fd5b505af1158015614bc3573d6000803e3d6000fd5b50505050600760009054906101000a900473ffffffffffffffffffffffffffffffffffffffff1673ffffffffffffffffffffffffffffffffffffffff1663f2fde38b826040518263ffffffff1660e01b8152600401808273ffffffffffffffffffffffffffffffffffffffff168152602001915050600060405180830381600087803b158015614c5257600080fd5b505af1158015614c66573d6000803e3d6000fd5b50505050600760009054906101000a900473ffffffffffffffffffffffffffffffffffffffff1673ffffffffffffffffffffffffffffffffffffffff1663a9059cbb82600760009054906101000a900473ffffffffffffffffffffffffffffffffffffffff1673ffffffffffffffffffffffffffffffffffffffff166370a08231306040518263ffffffff1660e01b8152600401808273ffffffffffffffffffffffffffffffffffffffff16815260200191505060206040518083038186803b158015614d3257600080fd5b505afa158015614d46573d6000803e3d6000fd5b505050506040513d6020811015614d5c57600080fd5b81019080805190602001909291905050506040518363ffffffff1660e01b8152600401808373ffffffffffffffffffffffffffffffffffffffff16815260200182815260200192505050602060405180830381600087803b158015614dc057600080fd5b505af1158015614dd4573d6000803e3d6000fd5b505050506040513d6020811015614dea57600080fd5b8101908080519060200190929190505050506001600260146101000a81548160ff0219169083151502179055508073ffffffffffffffffffffffffffffffffffffffff167f0caca70b66aed56b0630989a049110023c5a3f37e0ea4b6ce96fc747663f3ebc60405160405180910390a250565b600e5481565b600960009054906101000a900473ffffffffffffffffffffffffffffffffffffffff1681565b614e916153bd565b73ffffffffffffffffffffffffffffffffffffffff16600160009054906101000a900473ffffffffffffffffffffffffffffffffffffffff1673ffffffffffffffffffffffffffffffffffffffff1614614f53576040517f08c379a00000000000000000000000000000000000000000000000000000000081526004018080602001828103825260208152602001807f4f776e61626c653a2063616c6c6572206973206e6f7420746865206f776e657281525060200191505060405180910390fd5b600073ffffffffffffffffffffffffffffffffffffffff168173ffffffffffffffffffffffffffffffffffffffff161415614fd9576040517f08c379a0000000000000000000000000000000000000000000000000000000008152600401808060200182810382526026815260200180615cb96026913960400191505060405180910390fd5b8073ffffffffffffffffffffffffffffffffffffffff16600160009054906101000a900473ffffffffffffffffffffffffffffffffffffffff1673ffffffffffffffffffffffffffffffffffffffff167f8be0079c531659141344cd1fd0a4f28419497f9722a3daafe3b4186f6b6457e060405160405180910390a380600160006101000a81548173ffffffffffffffffffffffffffffffffffffffff021916908373ffffffffffffffffffffffffffffffffffffffff16021790555050565b6000808314156150ac5760009050615119565b60008284029050828482816150bd57fe5b0414615114576040517f08c379a0000000000000000000000000000000000000000000000000000000008152600401808060200182810382526021815260200180615d916021913960400191505060405180910390fd5b809150505b92915050565b600061516183836040518060400160405280601a81526020017f536166654d6174683a206469766973696f6e206279207a65726f000000000000815250615737565b905092915050565b600080600043815260200190815260200160002060003273ffffffffffffffffffffffffffffffffffffffff1673ffffffffffffffffffffffffffffffffffffffff16815260200190815260200160002060009054906101000a900460ff16905090565b600080600043815260200190815260200160002060003373ffffffffffffffffffffffffffffffffffffffff1673ffffffffffffffffffffffffffffffffffffffff16815260200190815260200160002060009054906101000a900460ff16905090565b60008183106152405781615242565b825b905092915050565b600061528c83836040518060400160405280601e81526020017f536166654d6174683a207375627472616374696f6e206f766572666c6f7700008152506157fd565b905092915050565b6153318363a9059cbb60e01b8484604051602401808373ffffffffffffffffffffffffffffffffffffffff16815260200182815260200192505050604051602081830303815290604052907bffffffffffffffffffffffffffffffffffffffffffffffffffffffff19166020820180517bffffffffffffffffffffffffffffffffffffffffffffffffffffffff83818316178352505050506158bd565b505050565b600960009054906101000a900473ffffffffffffffffffffffffffffffffffffffff1673ffffffffffffffffffffffffffffffffffffffff1663a2e620456040518163ffffffff1660e01b8152600401600060405180830381600087803b1580156153a057600080fd5b505af19250505080156153b1575060015b6153ba576153bb565b5b565b600033905090565b600073ffffffffffffffffffffffffffffffffffffffff168173ffffffffffffffffffffffffffffffffffffffff16141561544b576040517f08c379a000000000000000000000000000000000000000000000000000000000815260040180806020018281038252602d815260200180615d3f602d913960400191505060405180910390fd5b8073ffffffffffffffffffffffffffffffffffffffff16600073ffffffffffffffffffffffffffffffffffffffff167f74da04524d50c64947f5dd5381ef1a4dca5cba8ed1d816243f9e48aa0b5617ed60405160405180910390a380600260006101000a81548173ffffffffffffffffffffffffffffffffffffffff021916908373ffffffffffffffffffffffffffffffffffffffff16021790555050565b60008114806155b8575060008373ffffffffffffffffffffffffffffffffffffffff1663dd62ed3e30856040518363ffffffff1660e01b8152600401808373ffffffffffffffffffffffffffffffffffffffff1681526020018273ffffffffffffffffffffffffffffffffffffffff1681526020019250505060206040518083038186803b15801561557b57600080fd5b505afa15801561558f573d6000803e3d6000fd5b505050506040513d60208110156155a557600080fd5b8101908080519060200190929190505050145b61560d576040517f08c379a0000000000000000000000000000000000000000000000000000000008152600401808060200182810382526036815260200180615e8c6036913960400191505060405180910390fd5b6156aa8363095ea7b360e01b8484604051602401808373ffffffffffffffffffffffffffffffffffffffff16815260200182815260200192505050604051602081830303815290604052907bffffffffffffffffffffffffffffffffffffffffffffffffffffffff19166020820180517bffffffffffffffffffffffffffffffffffffffffffffffffffffffff83818316178352505050506158bd565b505050565b60008082840190508381101561572d576040517f08c379a000000000000000000000000000000000000000000000000000000000815260040180806020018281038252601b8152602001807f536166654d6174683a206164646974696f6e206f766572666c6f77000000000081525060200191505060405180910390fd5b8091505092915050565b600080831182906157e3576040517f08c379a00000000000000000000000000000000000000000000000000000000081526004018080602001828103825283818151815260200191508051906020019080838360005b838110156157a857808201518184015260208101905061578d565b50505050905090810190601f1680156157d55780820380516001836020036101000a031916815260200191505b509250505060405180910390fd5b5060008385816157ef57fe5b049050809150509392505050565b60008383111582906158aa576040517f08c379a00000000000000000000000000000000000000000000000000000000081526004018080602001828103825283818151815260200191508051906020019080838360005b8381101561586f578082015181840152602081019050615854565b50505050905090810190601f16801561589c5780820380516001836020036101000a031916815260200191505b509250505060405180910390fd5b5060008385039050809150509392505050565b606061591f826040518060400160405280602081526020017f5361666545524332303a206c6f772d6c6576656c2063616c6c206661696c65648152508573ffffffffffffffffffffffffffffffffffffffff166159ac9092919063ffffffff16565b90506000815111156159a75780806020019051602081101561594057600080fd5b81019080805190602001909291905050506159a6576040517f08c379a000000000000000000000000000000000000000000000000000000000815260040180806020018281038252602a815260200180615e3c602a913960400191505060405180910390fd5b5b505050565b60606159bb84846000856159c4565b90509392505050565b60606159cf85615bca565b615a41576040517f08c379a000000000000000000000000000000000000000000000000000000000815260040180806020018281038252601d8152602001807f416464726573733a2063616c6c20746f206e6f6e2d636f6e747261637400000081525060200191505060405180910390fd5b600060608673ffffffffffffffffffffffffffffffffffffffff1685876040518082805190602001908083835b60208310615a915780518252602082019150602081019050602083039250615a6e565b6001836020036101000a03801982511681845116808217855250505050505090500191505060006040518083038185875af1925050503d8060008114615af3576040519150601f19603f3d011682016040523d82523d6000602084013e615af8565b606091505b50915091508115615b0d578092505050615bc2565b600081511115615b205780518082602001fd5b836040517f08c379a00000000000000000000000000000000000000000000000000000000081526004018080602001828103825283818151815260200191508051906020019080838360005b83811015615b87578082015181840152602081019050615b6c565b50505050905090810190601f168015615bb45780820380516001836020036101000a031916815260200191505b509250505060405180910390fd5b949350505050565b600080823b905060008111915050919050565b828054828255906000526020600020908101928215615c6c579160200282015b82811115615c6b57823573ffffffffffffffffffffffffffffffffffffffff168260006101000a81548173ffffffffffffffffffffffffffffffffffffffff021916908373ffffffffffffffffffffffffffffffffffffffff16021790555091602001919060010190615bfd565b5b509050615c799190615c7d565b5090565b5b80821115615cb457600081816101000a81549073ffffffffffffffffffffffffffffffffffffffff021916905550600101615c7e565b509056fe4f776e61626c653a206e6577206f776e657220697320746865207a65726f206164647265737354726561737572793a2063616e6e6f742072656465656d20626f6e64732077697468207a65726f20616d6f756e7454726561737572793a20636173685072696365206e6f7420656c696769626c6520666f7220626f6e642070757263686173656f70657261746f723a207a65726f206164647265737320676976656e20666f72206e6577206f70657261746f7254726561737572793a20747265617375727920686173206e6f206d6f726520627564676574536166654d6174683a206d756c7469706c69636174696f6e206f766572666c6f7754726561737572793a206661696c656420746f20636f6e73756c7420636173682070726963652066726f6d20746865206f7261636c6554726561737572793a2063616e6e6f7420707572636861736520626f6e64732077697468207a65726f20616d6f756e746f70657261746f723a2063616c6c6572206973206e6f7420746865206f70657261746f725361666545524332303a204552433230206f7065726174696f6e20646964206e6f742073756363656564436f6e747261637447756172643a206f6e6520626c6f636b2c206f6e652066756e6374696f6e5361666545524332303a20617070726f76652066726f6d206e6f6e2d7a65726f20746f206e6f6e2d7a65726f20616c6c6f77616e636554726561737572793a207468657265206973206e6f20736569676e696f7261676520746f20626520616c6c6f6361746564a2646970667358221220534052c794bd0897aad544d396329b5cec57ce9ed111c50919d5c88de343338d64736f6c634300060c0033536166654d6174683a206d756c7469706c69636174696f6e206f766572666c6f77",
  "immutableReferences": {},
  "source": "pragma solidity ^0.6.0;\n// SPDX-License-Identifier: MIT\n\nimport '@openzeppelin/contracts/math/Math.sol';\nimport '@openzeppelin/contracts/token/ERC20/IERC20.sol';\nimport '@openzeppelin/contracts/token/ERC20/SafeERC20.sol';\nimport '@openzeppelin/contracts/utils/ReentrancyGuard.sol';\n\nimport './lib/Babylonian.sol';\nimport './lib/FixedPoint.sol';\nimport './lib/Safe112.sol';\nimport './owner/Operator.sol';\nimport './utils/ContractGuard.sol';\nimport './interfaces/IPokaAsset.sol';\nimport './interfaces/IOracle.sol';\nimport './interfaces/IBoardroom.sol';\nimport './interfaces/IUniswapV2Router02.sol';\n\n/**\n * @title Poka Cash Treasury contract\n * @notice Monetary policy logic to adjust supplies of Poka cash assets\n * @author Summer Smith & Rick Sanchez\n */\ncontract Treasury is ContractGuard, Operator {\n    using FixedPoint for *;\n    using SafeERC20 for IERC20;\n    using Address for address;\n    using SafeMath for uint256;\n    using Safe112 for uint112;\n\n    /* ========= CONSTANT VARIABLES ======== */\n\n    uint256 public constant PERIOD = 1 days;\n    // address public constant UIN_ROUTER = address(0x7a250d5630B4cF539739dF2C5dAcb4c659F2488D);\n    // address public constant WETH = address(0xC02aaA39b223FE8D0A0e5C4F27eAD9083C756Cc2);\n\n    /* ========== STATE VARIABLES ========== */\n\n    // flags\n    bool private migrated = false;\n    bool private initialized = false;\n\n    // epoch\n    uint256 public startTime;\n    uint256 public epoch = 0;\n\n    // core components\n    address public cash;\n    address public bond;\n    address public share;\n    address public boardroom;\n    address public cashOracle;\n\n    // swap\n    IUniswapV2Router02 public unirouter;\n    address[] public path;\n\n    // price\n    uint256 public cashPriceOne;\n    uint256 public cashPriceCeiling;\n    uint256 public bondDepletionFloor;\n    uint256 public seigniorageSaved = 0;\n    uint256 public treasuryavailable = 0;\n\n    /* ========== CONSTRUCTOR ========== */\n\n    constructor(\n        address _cash,\n        address _bond,\n        address _share,\n        address _cashOracle,\n        address _boardroom,\n        address _unirouter,\n        uint256 _startTime\n    ) public {\n        cash = _cash;\n        bond = _bond;\n        share = _share;\n        cashOracle = _cashOracle;\n        boardroom = _boardroom;\n\n        unirouter = IUniswapV2Router02(_unirouter);\n        address weth = unirouter.WETH();\n        path = [cash, weth];\n\n        startTime = _startTime;\n\n        cashPriceOne = 10**6;\n        cashPriceCeiling = uint256(105).mul(cashPriceOne).div(10**2);\n\n        bondDepletionFloor = uint256(1000).mul(cashPriceOne);\n    }\n\n    /* =================== Modifier =================== */\n\n    modifier checkCondition {\n        require(!migrated, 'Treasury: migrated');\n        require(now >= startTime, 'Treasury: not started yet');\n\n        _;\n    }\n\n    modifier checkEpoch {\n        require(now >= nextEpochPoint(), 'Treasury: not opened yet');\n\n        _;\n\n        epoch = epoch.add(1);\n    }\n\n    modifier checkOperator {\n        require(\n            IPokaAsset(cash).operator() == address(this) &&\n                IPokaAsset(bond).operator() == address(this) &&\n                IPokaAsset(share).operator() == address(this) &&\n                Operator(boardroom).operator() == address(this),\n            'Treasury: need more permission'\n        );\n\n        _;\n    }\n\n    modifier notInitialized {\n        require(!initialized, 'Treasury: already initialized');\n\n        _;\n    }\n\n    /* ========== VIEW FUNCTIONS ========== */\n\n    // flags\n    function isMigrated() public view returns (bool) {\n        return migrated;\n    }\n\n    function isInitialized() public view returns (bool) {\n        return initialized;\n    }\n\n    // epoch\n    function nextEpochPoint() public view returns (uint256) {\n        return startTime.add(epoch.mul(PERIOD));\n    }\n\n    // oracle\n    function getCashPrice() public view returns (uint256 cashPrice) {\n        try IOracle(cashOracle).consult(cash, 1e18) returns (uint256 price) {\n            return price;\n        } catch {\n            revert('Treasury: failed to consult cash price from the oracle');\n        }\n    }\n\n    // budget\n    function getReserve() public view returns (uint256) {\n        return seigniorageSaved;\n    }\n\n    /* ========== GOVERNANCE ========== */\n\n    function initialize() public notInitialized checkOperator {\n        // burn all of it's balance\n        IPokaAsset(cash).burn(IERC20(cash).balanceOf(address(this)));\n\n        // mint only 1001 cash to itself\n        IPokaAsset(cash).mint(address(this), 1001 ether);\n\n        // set seigniorageSaved to it's balance\n        seigniorageSaved = IERC20(cash).balanceOf(address(this));\n\n        initialized = true;\n        emit Initialized(msg.sender, block.number);\n    }\n\n    function migrate(address target) public onlyOperator checkOperator {\n        require(!migrated, 'Treasury: migrated');\n\n        // cash\n        Operator(cash).transferOperator(target);\n        Operator(cash).transferOwnership(target);\n        IERC20(cash).transfer(target, IERC20(cash).balanceOf(address(this)));\n\n        // bond\n        Operator(bond).transferOperator(target);\n        Operator(bond).transferOwnership(target);\n        IERC20(bond).transfer(target, IERC20(bond).balanceOf(address(this)));\n\n        // share\n        Operator(share).transferOperator(target);\n        Operator(share).transferOwnership(target);\n        IERC20(share).transfer(target, IERC20(share).balanceOf(address(this)));\n\n        migrated = true;\n        emit Migration(target);\n    }\n\n    /* ========== MUTABLE FUNCTIONS ========== */\n\n    function _updateCashPrice() internal {\n        try IOracle(cashOracle).update()  {} catch {}\n    }\n\n    function buyBonds(uint256 amount, uint256 targetPrice)\n        external\n        onlyOneBlock\n        checkCondition\n        checkOperator\n    {\n        require(amount > 0, 'Treasury: cannot purchase bonds with zero amount');\n\n        uint256 cashPrice = getCashPrice();\n        require(cashPrice == targetPrice, 'Treasury: cash price moved');\n        require(\n            cashPrice < cashPriceOne, // price < $1\n            'Treasury: cashPrice not eligible for bond purchase'\n        );\n\n        uint256 bondPrice = cashPrice;\n\n        IPokaAsset(cash).burnFrom(msg.sender, amount);\n        IPokaAsset(bond).mint(msg.sender, amount.mul(1e6).div(bondPrice));\n        _updateCashPrice();\n\n        emit BoughtBonds(msg.sender, amount);\n    }\n\n    function redeemBonds(uint256 amount, uint256 targetPrice)\n        external\n        onlyOneBlock\n        checkCondition\n        checkOperator\n    {\n        require(amount > 0, 'Treasury: cannot redeem bonds with zero amount');\n\n        uint256 cashPrice = getCashPrice();\n        require(cashPrice == targetPrice, 'Treasury: cash price moved');\n        require(\n            cashPrice > cashPriceCeiling, // price > $1.05\n            'Treasury: cashPrice not eligible for bond purchase'\n        );\n        require(\n            IERC20(cash).balanceOf(address(this)) >= amount,\n            'Treasury: treasury has no more budget'\n        );\n\n        seigniorageSaved = seigniorageSaved.sub(\n            Math.min(seigniorageSaved, amount)\n        );\n\n        IPokaAsset(bond).burnFrom(msg.sender, amount);\n        IERC20(cash).safeTransfer(msg.sender, amount);\n        _updateCashPrice();\n\n        emit RedeemedBonds(msg.sender, amount);\n    }\n\n    function allocateSeigniorage()\n        external\n        onlyOneBlock\n        checkCondition\n        checkEpoch\n        checkOperator\n    {\n        _updateCashPrice();\n        uint256 cashPrice = getCashPrice();\n        require(\n            cashPrice > cashPriceCeiling,\n            'Treasury: there is no seigniorage to be allocated'\n        );\n\n        uint256 cashSupply = IERC20(cash).totalSupply().sub(seigniorageSaved);\n        uint256 percentage = cashPrice.sub(cashPriceOne);\n        uint256 seigniorage = cashSupply.mul(percentage).div(1e6);\n\n        if (seigniorageSaved.div(1e18) > bondDepletionFloor.div(1e6)) {\n            IPokaAsset(cash).mint(address(this), seigniorage);\n            uint112 reserveInLp = IOracle(cashOracle).getReserves(cash);\n\n            uint reserve = seigniorage.div(10);\n            uint forTrade = Math.min(reserve, uint(reserveInLp).div(2));\n            IERC20(cash).safeApprove(address(unirouter), forTrade);\n            try unirouter.swapExactTokensForETH(forTrade, 0, path, address(this), now.add(1800)) {\n            } catch {\n                IPokaAsset(cash).burn(forTrade);\n            }\n\n            uint leftover = reserve.sub(forTrade);\n            treasuryavailable = treasuryavailable.add(leftover);\n\n            uint remain = seigniorage.mul(90).div(100);\n            IERC20(cash).safeApprove(boardroom, remain);\n            IBoardroom(boardroom).allocateSeigniorage(remain);\n            emit BoardroomFunded(now, remain);\n        } else {\n            seigniorageSaved = seigniorageSaved.add(seigniorage);\n            IPokaAsset(cash).mint(address(this), seigniorage);\n            emit TreasuryFunded(now, seigniorage);\n        }\n    }\n\n    function handleReserve(address payable account, uint256 amount)\n        external\n        onlyOperator\n    {\n        require(\n            address(this).balance >= amount,\n            \"Treasury: balance not enough\"\n        );\n        account.transfer(amount);\n    }\n\n    function withdrawTreasuryKeeped(address _to, uint _amount)\n        external\n        onlyOperator\n    {\n        uint max = IERC20(cash).balanceOf(address(this));\n        require(_amount <= max, \"Treasury: !exceeds total balance\");\n        require(_amount <= treasuryavailable, \"Treasury: !exceeds avaiable\");\n        treasuryavailable = treasuryavailable.sub(_amount);\n        IERC20(cash).safeTransfer(_to, _amount);\n    }\n\n    function setPath(address[] calldata _path)\n        external\n        onlyOperator\n    {\n        path = _path;\n    }\n\n    receive() external payable {}\n\n    event Initialized(address indexed executor, uint256 at);\n    event Migration(address indexed target);\n    event RedeemedBonds(address indexed from, uint256 amount);\n    event BoughtBonds(address indexed from, uint256 amount);\n    event TreasuryFunded(uint256 timestamp, uint256 seigniorage);\n    event BoardroomFunded(uint256 timestamp, uint256 seigniorage);\n}\n",
  "sourcePath": "/Users/anunair/work/release/new/POLKACASH_MAIN/contracts/Treasury.sol",
  "compiler": {
    "name": "solc",
    "version": "0.6.12+commit.27d51765.Emscripten.clang"
  },
  "schemaVersion": "3.3.1",
  "updatedAt": "2021-01-25T04:32:34.382Z",
  "networkType": "ethereum",
  "devdoc": {
    "author": "Summer Smith & Rick Sanchez",
    "kind": "dev",
    "methods": {
      "owner()": {
        "details": "Returns the address of the current owner."
      },
      "renounceOwnership()": {
        "details": "Leaves the contract without owner. It will not be possible to call `onlyOwner` functions anymore. Can only be called by the current owner. NOTE: Renouncing ownership will leave the contract without an owner, thereby removing any functionality that is only available to the owner."
      },
      "transferOwnership(address)": {
        "details": "Transfers ownership of the contract to a new account (`newOwner`). Can only be called by the current owner."
      }
    },
    "title": "Poka Cash Treasury contract",
    "version": 1
  },
  "userdoc": {
    "kind": "user",
    "methods": {},
    "notice": "Monetary policy logic to adjust supplies of Poka cash assets",
    "version": 1
  }
}