{
  "contractName": "USDCPOSLPTokenSharePool",
  "abi": [
    {
      "inputs": [
        {
          "internalType": "address",
          "name": "polkaShare_",
          "type": "address"
        },
        {
          "internalType": "address",
          "name": "lptoken_",
          "type": "address"
        },
        {
          "internalType": "uint256",
          "name": "starttime_",
          "type": "uint256"
        },
        {
          "internalType": "address",
          "name": "devAddr_",
          "type": "address"
        }
      ],
      "stateMutability": "nonpayable",
      "type": "constructor"
    },
    {
      "anonymous": false,
      "inputs": [
        {
          "indexed": true,
          "internalType": "address",
          "name": "previousOwner",
          "type": "address"
        },
        {
          "indexed": true,
          "internalType": "address",
          "name": "newOwner",
          "type": "address"
        }
      ],
      "name": "OwnershipTransferred",
      "type": "event"
    },
    {
      "anonymous": false,
      "inputs": [
        {
          "indexed": false,
          "internalType": "uint256",
          "name": "reward",
          "type": "uint256"
        }
      ],
      "name": "RewardAdded",
      "type": "event"
    },
    {
      "anonymous": false,
      "inputs": [
        {
          "indexed": true,
          "internalType": "address",
          "name": "user",
          "type": "address"
        },
        {
          "indexed": false,
          "internalType": "uint256",
          "name": "reward",
          "type": "uint256"
        }
      ],
      "name": "RewardPaid",
      "type": "event"
    },
    {
      "anonymous": false,
      "inputs": [
        {
          "indexed": true,
          "internalType": "address",
          "name": "user",
          "type": "address"
        },
        {
          "indexed": false,
          "internalType": "uint256",
          "name": "amount",
          "type": "uint256"
        }
      ],
      "name": "Staked",
      "type": "event"
    },
    {
      "anonymous": false,
      "inputs": [
        {
          "indexed": true,
          "internalType": "address",
          "name": "user",
          "type": "address"
        },
        {
          "indexed": false,
          "internalType": "uint256",
          "name": "amount",
          "type": "uint256"
        }
      ],
      "name": "Withdrawn",
      "type": "event"
    },
    {
      "inputs": [],
      "name": "DURATION",
      "outputs": [
        {
          "internalType": "uint256",
          "name": "",
          "type": "uint256"
        }
      ],
      "stateMutability": "view",
      "type": "function",
      "constant": true
    },
    {
      "inputs": [
        {
          "internalType": "address",
          "name": "account",
          "type": "address"
        }
      ],
      "name": "balanceOf",
      "outputs": [
        {
          "internalType": "uint256",
          "name": "",
          "type": "uint256"
        }
      ],
      "stateMutability": "view",
      "type": "function",
      "constant": true
    },
    {
      "inputs": [],
      "name": "devAddr",
      "outputs": [
        {
          "internalType": "address",
          "name": "",
          "type": "address"
        }
      ],
      "stateMutability": "view",
      "type": "function",
      "constant": true
    },
    {
      "inputs": [],
      "name": "lastUpdateTime",
      "outputs": [
        {
          "internalType": "uint256",
          "name": "",
          "type": "uint256"
        }
      ],
      "stateMutability": "view",
      "type": "function",
      "constant": true
    },
    {
      "inputs": [],
      "name": "lpt",
      "outputs": [
        {
          "internalType": "contract IERC20",
          "name": "",
          "type": "address"
        }
      ],
      "stateMutability": "view",
      "type": "function",
      "constant": true
    },
    {
      "inputs": [],
      "name": "owner",
      "outputs": [
        {
          "internalType": "address",
          "name": "",
          "type": "address"
        }
      ],
      "stateMutability": "view",
      "type": "function",
      "constant": true
    },
    {
      "inputs": [],
      "name": "periodFinish",
      "outputs": [
        {
          "internalType": "uint256",
          "name": "",
          "type": "uint256"
        }
      ],
      "stateMutability": "view",
      "type": "function",
      "constant": true
    },
    {
      "inputs": [],
      "name": "polkaShare",
      "outputs": [
        {
          "internalType": "contract IERC20",
          "name": "",
          "type": "address"
        }
      ],
      "stateMutability": "view",
      "type": "function",
      "constant": true
    },
    {
      "inputs": [],
      "name": "renounceOwnership",
      "outputs": [],
      "stateMutability": "nonpayable",
      "type": "function"
    },
    {
      "inputs": [],
      "name": "rewardDistribution",
      "outputs": [
        {
          "internalType": "address",
          "name": "",
          "type": "address"
        }
      ],
      "stateMutability": "view",
      "type": "function",
      "constant": true
    },
    {
      "inputs": [],
      "name": "rewardPerTokenStored",
      "outputs": [
        {
          "internalType": "uint256",
          "name": "",
          "type": "uint256"
        }
      ],
      "stateMutability": "view",
      "type": "function",
      "constant": true
    },
    {
      "inputs": [],
      "name": "rewardRate",
      "outputs": [
        {
          "internalType": "uint256",
          "name": "",
          "type": "uint256"
        }
      ],
      "stateMutability": "view",
      "type": "function",
      "constant": true
    },
    {
      "inputs": [
        {
          "internalType": "address",
          "name": "",
          "type": "address"
        }
      ],
      "name": "rewards",
      "outputs": [
        {
          "internalType": "uint256",
          "name": "",
          "type": "uint256"
        }
      ],
      "stateMutability": "view",
      "type": "function",
      "constant": true
    },
    {
      "inputs": [
        {
          "internalType": "address",
          "name": "_rewardDistribution",
          "type": "address"
        }
      ],
      "name": "setRewardDistribution",
      "outputs": [],
      "stateMutability": "nonpayable",
      "type": "function"
    },
    {
      "inputs": [],
      "name": "starttime",
      "outputs": [
        {
          "internalType": "uint256",
          "name": "",
          "type": "uint256"
        }
      ],
      "stateMutability": "view",
      "type": "function",
      "constant": true
    },
    {
      "inputs": [],
      "name": "totalSupply",
      "outputs": [
        {
          "internalType": "uint256",
          "name": "",
          "type": "uint256"
        }
      ],
      "stateMutability": "view",
      "type": "function",
      "constant": true
    },
    {
      "inputs": [
        {
          "internalType": "address",
          "name": "newOwner",
          "type": "address"
        }
      ],
      "name": "transferOwnership",
      "outputs": [],
      "stateMutability": "nonpayable",
      "type": "function"
    },
    {
      "inputs": [
        {
          "internalType": "address",
          "name": "",
          "type": "address"
        }
      ],
      "name": "userRewardPerTokenPaid",
      "outputs": [
        {
          "internalType": "uint256",
          "name": "",
          "type": "uint256"
        }
      ],
      "stateMutability": "view",
      "type": "function",
      "constant": true
    },
    {
      "inputs": [],
      "name": "lastTimeRewardApplicable",
      "outputs": [
        {
          "internalType": "uint256",
          "name": "",
          "type": "uint256"
        }
      ],
      "stateMutability": "view",
      "type": "function",
      "constant": true
    },
    {
      "inputs": [],
      "name": "rewardPerToken",
      "outputs": [
        {
          "internalType": "uint256",
          "name": "",
          "type": "uint256"
        }
      ],
      "stateMutability": "view",
      "type": "function",
      "constant": true
    },
    {
      "inputs": [
        {
          "internalType": "address",
          "name": "account",
          "type": "address"
        }
      ],
      "name": "earned",
      "outputs": [
        {
          "internalType": "uint256",
          "name": "",
          "type": "uint256"
        }
      ],
      "stateMutability": "view",
      "type": "function",
      "constant": true
    },
    {
      "inputs": [
        {
          "internalType": "uint256",
          "name": "amount",
          "type": "uint256"
        }
      ],
      "name": "stake",
      "outputs": [],
      "stateMutability": "nonpayable",
      "type": "function"
    },
    {
      "inputs": [
        {
          "internalType": "uint256",
          "name": "amount",
          "type": "uint256"
        }
      ],
      "name": "withdraw",
      "outputs": [],
      "stateMutability": "nonpayable",
      "type": "function"
    },
    {
      "inputs": [],
      "name": "exit",
      "outputs": [],
      "stateMutability": "nonpayable",
      "type": "function"
    },
    {
      "inputs": [],
      "name": "getReward",
      "outputs": [],
      "stateMutability": "nonpayable",
      "type": "function"
    },
    {
      "inputs": [
        {
          "internalType": "uint256",
          "name": "reward",
          "type": "uint256"
        }
      ],
      "name": "notifyRewardAmount",
      "outputs": [],
      "stateMutability": "nonpayable",
      "type": "function"
    }
  ],
  "bytecode": "0x60806040526301e133806006556000600855600060095534801561002257600080fd5b506040516124df3803806124df8339818101604052608081101561004557600080fd5b810190808051906020019092919080519060200190929190805190602001909291908051906020019092919050505060006100846101f560201b60201c565b905080600360006101000a81548173ffffffffffffffffffffffffffffffffffffffff021916908373ffffffffffffffffffffffffffffffffffffffff1602179055508073ffffffffffffffffffffffffffffffffffffffff16600073ffffffffffffffffffffffffffffffffffffffff167f8be0079c531659141344cd1fd0a4f28419497f9722a3daafe3b4186f6b6457e060405160405180910390a35083600560006101000a81548173ffffffffffffffffffffffffffffffffffffffff021916908373ffffffffffffffffffffffffffffffffffffffff160217905550826000806101000a81548173ffffffffffffffffffffffffffffffffffffffff021916908373ffffffffffffffffffffffffffffffffffffffff1602179055508160078190555080600c60006101000a81548173ffffffffffffffffffffffffffffffffffffffff021916908373ffffffffffffffffffffffffffffffffffffffff160217905550505050506101fd565b600033905090565b6122d38061020c6000396000f3fe608060405234801561001057600080fd5b506004361061018d5760003560e01c80638b876347116100de578063cd3daf9d11610097578063df136d6511610071578063df136d65146105aa578063e9fad8ee146105c8578063ebe2b12b146105d2578063f2fde38b146105f05761018d565b8063cd3daf9d14610524578063ce5fc8d014610542578063da09c72c146105765761018d565b80638b876347146103fa5780638da58897146104525780638da5cb5b146104705780638eb41050146104a4578063a694fc3a146104d8578063c8f33c91146105065761018d565b80632e1a7d4d1161014b57806370a082311161012557806370a082311461035c578063715018a6146103b45780637b0a47ee146103be57806380faa57d146103dc5761018d565b80632e1a7d4d146102f65780633c6b16ab146103245780633d18b912146103525761018d565b80628cc262146101925780630700037d146101ea5780630d68b76114610242578063101114cf1461028657806318160ddd146102ba5780631be05289146102d8575b600080fd5b6101d4600480360360208110156101a857600080fd5b81019080803573ffffffffffffffffffffffffffffffffffffffff169060200190929190505050610634565b6040518082815260200191505060405180910390f35b61022c6004803603602081101561020057600080fd5b81019080803573ffffffffffffffffffffffffffffffffffffffff16906020019092919050505061071b565b6040518082815260200191505060405180910390f35b6102846004803603602081101561025857600080fd5b81019080803573ffffffffffffffffffffffffffffffffffffffff169060200190929190505050610733565b005b61028e610841565b604051808273ffffffffffffffffffffffffffffffffffffffff16815260200191505060405180910390f35b6102c2610867565b6040518082815260200191505060405180910390f35b6102e0610871565b6040518082815260200191505060405180910390f35b6103226004803603602081101561030c57600080fd5b8101908080359060200190929190505050610877565b005b6103506004803603602081101561033a57600080fd5b8101908080359060200190929190505050610a6a565b005b61035a610d6c565b005b61039e6004803603602081101561037257600080fd5b81019080803573ffffffffffffffffffffffffffffffffffffffff169060200190929190505050611061565b6040518082815260200191505060405180910390f35b6103bc6110aa565b005b6103c6611235565b6040518082815260200191505060405180910390f35b6103e461123b565b6040518082815260200191505060405180910390f35b61043c6004803603602081101561041057600080fd5b81019080803573ffffffffffffffffffffffffffffffffffffffff16906020019092919050505061124e565b6040518082815260200191505060405180910390f35b61045a611266565b6040518082815260200191505060405180910390f35b61047861126c565b604051808273ffffffffffffffffffffffffffffffffffffffff16815260200191505060405180910390f35b6104ac611296565b604051808273ffffffffffffffffffffffffffffffffffffffff16815260200191505060405180910390f35b610504600480360360208110156104ee57600080fd5b81019080803590602001909291905050506112bc565b005b61050e6114af565b6040518082815260200191505060405180910390f35b61052c6114b5565b6040518082815260200191505060405180910390f35b61054a61154d565b604051808273ffffffffffffffffffffffffffffffffffffffff16815260200191505060405180910390f35b61057e611571565b604051808273ffffffffffffffffffffffffffffffffffffffff16815260200191505060405180910390f35b6105b2611597565b6040518082815260200191505060405180910390f35b6105d061159d565b005b6105da6115b8565b6040518082815260200191505060405180910390f35b6106326004803603602081101561060657600080fd5b81019080803573ffffffffffffffffffffffffffffffffffffffff1690602001909291905050506115be565b005b6000610714600e60008473ffffffffffffffffffffffffffffffffffffffff1673ffffffffffffffffffffffffffffffffffffffff16815260200190815260200160002054610706670de0b6b3a76400006106f86106e1600d60008973ffffffffffffffffffffffffffffffffffffffff1673ffffffffffffffffffffffffffffffffffffffff168152602001908152602001600020546106d36114b5565b6117ce90919063ffffffff16565b6106ea88611061565b61181890919063ffffffff16565b61189e90919063ffffffff16565b6118e890919063ffffffff16565b9050919050565b600e6020528060005260406000206000915090505481565b61073b611970565b73ffffffffffffffffffffffffffffffffffffffff16600360009054906101000a900473ffffffffffffffffffffffffffffffffffffffff1673ffffffffffffffffffffffffffffffffffffffff16146107fd576040517f08c379a00000000000000000000000000000000000000000000000000000000081526004018080602001828103825260208152602001807f4f776e61626c653a2063616c6c6572206973206e6f7420746865206f776e657281525060200191505060405180910390fd5b80600460006101000a81548173ffffffffffffffffffffffffffffffffffffffff021916908373ffffffffffffffffffffffffffffffffffffffff16021790555050565b600460009054906101000a900473ffffffffffffffffffffffffffffffffffffffff1681565b6000600154905090565b60065481565b336108806114b5565b600b8190555061088e61123b565b600a81905550600073ffffffffffffffffffffffffffffffffffffffff168173ffffffffffffffffffffffffffffffffffffffff161461095b576108d181610634565b600e60008373ffffffffffffffffffffffffffffffffffffffff1673ffffffffffffffffffffffffffffffffffffffff16815260200190815260200160002081905550600b54600d60008373ffffffffffffffffffffffffffffffffffffffff1673ffffffffffffffffffffffffffffffffffffffff168152602001908152602001600020819055505b6007544210156109b6576040517f08c379a00000000000000000000000000000000000000000000000000000000081526004018080602001828103825260228152602001806121e96022913960400191505060405180910390fd5b60008211610a0f576040517f08c379a000000000000000000000000000000000000000000000000000000000815260040180806020018281038252602a815260200180612199602a913960400191505060405180910390fd5b610a1882611978565b3373ffffffffffffffffffffffffffffffffffffffff167f7084f5476618d8e60b11ef0d7d3f06914655adb8793e28ff7f018d4c76d505d5836040518082815260200191505060405180910390a25050565b600460009054906101000a900473ffffffffffffffffffffffffffffffffffffffff1673ffffffffffffffffffffffffffffffffffffffff16610aab611970565b73ffffffffffffffffffffffffffffffffffffffff1614610b17576040517f08c379a00000000000000000000000000000000000000000000000000000000081526004018080602001828103825260218152602001806122536021913960400191505060405180910390fd5b6000610b216114b5565b600b81905550610b2f61123b565b600a81905550600073ffffffffffffffffffffffffffffffffffffffff168173ffffffffffffffffffffffffffffffffffffffff1614610bfc57610b7281610634565b600e60008373ffffffffffffffffffffffffffffffffffffffff1673ffffffffffffffffffffffffffffffffffffffff16815260200190815260200160002081905550600b54600d60008373ffffffffffffffffffffffffffffffffffffffff1673ffffffffffffffffffffffffffffffffffffffff168152602001908152602001600020819055505b600754421115610cef576008544210610c2f57610c246006548361189e90919063ffffffff16565b600981905550610c91565b6000610c46426008546117ce90919063ffffffff16565b90506000610c5f6009548361181890919063ffffffff16565b9050610c88600654610c7a83876118e890919063ffffffff16565b61189e90919063ffffffff16565b60098190555050505b42600a81905550610cad600654426118e890919063ffffffff16565b6008819055507fde88a922e0d3b88b24e9623efeb464919c6bf9f66857a65e2bfcf2ce87a9433d826040518082815260200191505060405180910390a1610d68565b610d046006548361189e90919063ffffffff16565b600981905550600754600a81905550610d2a6006546007546118e890919063ffffffff16565b6008819055507fde88a922e0d3b88b24e9623efeb464919c6bf9f66857a65e2bfcf2ce87a9433d826040518082815260200191505060405180910390a15b5050565b33610d756114b5565b600b81905550610d8361123b565b600a81905550600073ffffffffffffffffffffffffffffffffffffffff168173ffffffffffffffffffffffffffffffffffffffff1614610e5057610dc681610634565b600e60008373ffffffffffffffffffffffffffffffffffffffff1673ffffffffffffffffffffffffffffffffffffffff16815260200190815260200160002081905550600b54600d60008373ffffffffffffffffffffffffffffffffffffffff1673ffffffffffffffffffffffffffffffffffffffff168152602001908152602001600020819055505b600754421015610eab576040517f08c379a00000000000000000000000000000000000000000000000000000000081526004018080602001828103825260228152602001806121e96022913960400191505060405180910390fd5b6000610eb633610634565b9050600081111561105d576000600e60003373ffffffffffffffffffffffffffffffffffffffff1673ffffffffffffffffffffffffffffffffffffffff16815260200190815260200160002081905550610f7933610f316064610f23605d8661181890919063ffffffff16565b61189e90919063ffffffff16565b600560009054906101000a900473ffffffffffffffffffffffffffffffffffffffff1673ffffffffffffffffffffffffffffffffffffffff16611a769092919063ffffffff16565b61100e600c60009054906101000a900473ffffffffffffffffffffffffffffffffffffffff16610fc66064610fb860078661181890919063ffffffff16565b61189e90919063ffffffff16565b600560009054906101000a900473ffffffffffffffffffffffffffffffffffffffff1673ffffffffffffffffffffffffffffffffffffffff16611a769092919063ffffffff16565b3373ffffffffffffffffffffffffffffffffffffffff167fe2403640ba68fed3a2f88b7557551d1993f84b99bb10ff833f0cf8db0c5e0486826040518082815260200191505060405180910390a25b5050565b6000600260008373ffffffffffffffffffffffffffffffffffffffff1673ffffffffffffffffffffffffffffffffffffffff168152602001908152602001600020549050919050565b6110b2611970565b73ffffffffffffffffffffffffffffffffffffffff16600360009054906101000a900473ffffffffffffffffffffffffffffffffffffffff1673ffffffffffffffffffffffffffffffffffffffff1614611174576040517f08c379a00000000000000000000000000000000000000000000000000000000081526004018080602001828103825260208152602001807f4f776e61626c653a2063616c6c6572206973206e6f7420746865206f776e657281525060200191505060405180910390fd5b600073ffffffffffffffffffffffffffffffffffffffff16600360009054906101000a900473ffffffffffffffffffffffffffffffffffffffff1673ffffffffffffffffffffffffffffffffffffffff167f8be0079c531659141344cd1fd0a4f28419497f9722a3daafe3b4186f6b6457e060405160405180910390a36000600360006101000a81548173ffffffffffffffffffffffffffffffffffffffff021916908373ffffffffffffffffffffffffffffffffffffffff160217905550565b60095481565b600061124942600854611b18565b905090565b600d6020528060005260406000206000915090505481565b60075481565b6000600360009054906101000a900473ffffffffffffffffffffffffffffffffffffffff16905090565b600560009054906101000a900473ffffffffffffffffffffffffffffffffffffffff1681565b336112c56114b5565b600b819055506112d361123b565b600a81905550600073ffffffffffffffffffffffffffffffffffffffff168173ffffffffffffffffffffffffffffffffffffffff16146113a05761131681610634565b600e60008373ffffffffffffffffffffffffffffffffffffffff1673ffffffffffffffffffffffffffffffffffffffff16815260200190815260200160002081905550600b54600d60008373ffffffffffffffffffffffffffffffffffffffff1673ffffffffffffffffffffffffffffffffffffffff168152602001908152602001600020819055505b6007544210156113fb576040517f08c379a00000000000000000000000000000000000000000000000000000000081526004018080602001828103825260228152602001806121e96022913960400191505060405180910390fd5b60008211611454576040517f08c379a000000000000000000000000000000000000000000000000000000000815260040180806020018281038252602781526020018061220b6027913960400191505060405180910390fd5b61145d82611b31565b3373ffffffffffffffffffffffffffffffffffffffff167f9e71bc8eea02a63969f509818f2dafb9254532904319f9dbda79b67bd34a5f3d836040518082815260200191505060405180910390a25050565b600a5481565b6000806114c0610867565b14156114d057600b54905061154a565b6115476115366114de610867565b611528670de0b6b3a764000061151a60095461150c600a546114fe61123b565b6117ce90919063ffffffff16565b61181890919063ffffffff16565b61181890919063ffffffff16565b61189e90919063ffffffff16565b600b546118e890919063ffffffff16565b90505b90565b60008054906101000a900473ffffffffffffffffffffffffffffffffffffffff1681565b600c60009054906101000a900473ffffffffffffffffffffffffffffffffffffffff1681565b600b5481565b6115ae6115a933611061565b610877565b6115b6610d6c565b565b60085481565b6115c6611970565b73ffffffffffffffffffffffffffffffffffffffff16600360009054906101000a900473ffffffffffffffffffffffffffffffffffffffff1673ffffffffffffffffffffffffffffffffffffffff1614611688576040517f08c379a00000000000000000000000000000000000000000000000000000000081526004018080602001828103825260208152602001807f4f776e61626c653a2063616c6c6572206973206e6f7420746865206f776e657281525060200191505060405180910390fd5b600073ffffffffffffffffffffffffffffffffffffffff168173ffffffffffffffffffffffffffffffffffffffff16141561170e576040517f08c379a00000000000000000000000000000000000000000000000000000000081526004018080602001828103825260268152602001806121c36026913960400191505060405180910390fd5b8073ffffffffffffffffffffffffffffffffffffffff16600360009054906101000a900473ffffffffffffffffffffffffffffffffffffffff1673ffffffffffffffffffffffffffffffffffffffff167f8be0079c531659141344cd1fd0a4f28419497f9722a3daafe3b4186f6b6457e060405160405180910390a380600360006101000a81548173ffffffffffffffffffffffffffffffffffffffff021916908373ffffffffffffffffffffffffffffffffffffffff16021790555050565b600061181083836040518060400160405280601e81526020017f536166654d6174683a207375627472616374696f6e206f766572666c6f770000815250611c31565b905092915050565b60008083141561182b5760009050611898565b600082840290508284828161183c57fe5b0414611893576040517f08c379a00000000000000000000000000000000000000000000000000000000081526004018080602001828103825260218152602001806122326021913960400191505060405180910390fd5b809150505b92915050565b60006118e083836040518060400160405280601a81526020017f536166654d6174683a206469766973696f6e206279207a65726f000000000000815250611cf1565b905092915050565b600080828401905083811015611966576040517f08c379a000000000000000000000000000000000000000000000000000000000815260040180806020018281038252601b8152602001807f536166654d6174683a206164646974696f6e206f766572666c6f77000000000081525060200191505060405180910390fd5b8091505092915050565b600033905090565b61198d816001546117ce90919063ffffffff16565b6001819055506119e581600260003373ffffffffffffffffffffffffffffffffffffffff1673ffffffffffffffffffffffffffffffffffffffff168152602001908152602001600020546117ce90919063ffffffff16565b600260003373ffffffffffffffffffffffffffffffffffffffff1673ffffffffffffffffffffffffffffffffffffffff16815260200190815260200160002081905550611a73338260008054906101000a900473ffffffffffffffffffffffffffffffffffffffff1673ffffffffffffffffffffffffffffffffffffffff16611a769092919063ffffffff16565b50565b611b138363a9059cbb60e01b8484604051602401808373ffffffffffffffffffffffffffffffffffffffff16815260200182815260200192505050604051602081830303815290604052907bffffffffffffffffffffffffffffffffffffffffffffffffffffffff19166020820180517bffffffffffffffffffffffffffffffffffffffffffffffffffffffff8381831617835250505050611db7565b505050565b6000818310611b275781611b29565b825b905092915050565b611b46816001546118e890919063ffffffff16565b600181905550611b9e81600260003373ffffffffffffffffffffffffffffffffffffffff1673ffffffffffffffffffffffffffffffffffffffff168152602001908152602001600020546118e890919063ffffffff16565b600260003373ffffffffffffffffffffffffffffffffffffffff1673ffffffffffffffffffffffffffffffffffffffff16815260200190815260200160002081905550611c2e33308360008054906101000a900473ffffffffffffffffffffffffffffffffffffffff1673ffffffffffffffffffffffffffffffffffffffff16611ea6909392919063ffffffff16565b50565b6000838311158290611cde576040517f08c379a00000000000000000000000000000000000000000000000000000000081526004018080602001828103825283818151815260200191508051906020019080838360005b83811015611ca3578082015181840152602081019050611c88565b50505050905090810190601f168015611cd05780820380516001836020036101000a031916815260200191505b509250505060405180910390fd5b5060008385039050809150509392505050565b60008083118290611d9d576040517f08c379a00000000000000000000000000000000000000000000000000000000081526004018080602001828103825283818151815260200191508051906020019080838360005b83811015611d62578082015181840152602081019050611d47565b50505050905090810190601f168015611d8f5780820380516001836020036101000a031916815260200191505b509250505060405180910390fd5b506000838581611da957fe5b049050809150509392505050565b6060611e19826040518060400160405280602081526020017f5361666545524332303a206c6f772d6c6576656c2063616c6c206661696c65648152508573ffffffffffffffffffffffffffffffffffffffff16611f679092919063ffffffff16565b9050600081511115611ea157808060200190516020811015611e3a57600080fd5b8101908080519060200190929190505050611ea0576040517f08c379a000000000000000000000000000000000000000000000000000000000815260040180806020018281038252602a815260200180612274602a913960400191505060405180910390fd5b5b505050565b611f61846323b872dd60e01b858585604051602401808473ffffffffffffffffffffffffffffffffffffffff1681526020018373ffffffffffffffffffffffffffffffffffffffff1681526020018281526020019350505050604051602081830303815290604052907bffffffffffffffffffffffffffffffffffffffffffffffffffffffff19166020820180517bffffffffffffffffffffffffffffffffffffffffffffffffffffffff8381831617835250505050611db7565b50505050565b6060611f768484600085611f7f565b90509392505050565b6060611f8a85612185565b611ffc576040517f08c379a000000000000000000000000000000000000000000000000000000000815260040180806020018281038252601d8152602001807f416464726573733a2063616c6c20746f206e6f6e2d636f6e747261637400000081525060200191505060405180910390fd5b600060608673ffffffffffffffffffffffffffffffffffffffff1685876040518082805190602001908083835b6020831061204c5780518252602082019150602081019050602083039250612029565b6001836020036101000a03801982511681845116808217855250505050505090500191505060006040518083038185875af1925050503d80600081146120ae576040519150601f19603f3d011682016040523d82523d6000602084013e6120b3565b606091505b509150915081156120c857809250505061217d565b6000815111156120db5780518082602001fd5b836040517f08c379a00000000000000000000000000000000000000000000000000000000081526004018080602001828103825283818151815260200191508051906020019080838360005b83811015612142578082015181840152602081019050612127565b50505050905090810190601f16801561216f5780820380516001836020036101000a031916815260200191505b509250505060405180910390fd5b949350505050565b600080823b90506000811191505091905056fe55534443504f534c50546f6b656e5368617265506f6f6c3a2043616e6e6f7420776974686472617720304f776e61626c653a206e6577206f776e657220697320746865207a65726f206164647265737355534443504f534c50546f6b656e5368617265506f6f6c3a206e6f7420737461727455534443504f534c50546f6b656e5368617265506f6f6c3a2043616e6e6f74207374616b652030536166654d6174683a206d756c7469706c69636174696f6e206f766572666c6f7743616c6c6572206973206e6f742072657761726420646973747269627574696f6e5361666545524332303a204552433230206f7065726174696f6e20646964206e6f742073756363656564a2646970667358221220e64fc5646d4ce0ed67e5f8ed594eb7ce3eb59f71894044db21195c864cd838c764736f6c634300060c0033",
  "immutableReferences": {},
  "source": "// SPDX-License-Identifier: MIT\n\npragma solidity ^0.6.0;\n// File: @openzeppelin/contracts/math/Math.sol\n\nimport '@openzeppelin/contracts/math/Math.sol';\n\n// File: @openzeppelin/contracts/math/SafeMath.sol\n\nimport '@openzeppelin/contracts/math/SafeMath.sol';\n\n// File: @openzeppelin/contracts/token/ERC20/IERC20.sol\n\nimport '@openzeppelin/contracts/token/ERC20/IERC20.sol';\n\n// File: @openzeppelin/contracts/utils/Address.sol\n\nimport '@openzeppelin/contracts/utils/Address.sol';\n\n// File: @openzeppelin/contracts/token/ERC20/SafeERC20.sol\n\nimport '@openzeppelin/contracts/token/ERC20/SafeERC20.sol';\n\n// File: contracts/IRewardDistributionRecipient.sol\n\nimport '../interfaces/IRewardDistributionRecipient.sol';\n\nimport '../token/LPTokenWrapper.sol';\n\ncontract USDCPOSLPTokenSharePool is\n    LPTokenWrapper,\n    IRewardDistributionRecipient\n{\n    IERC20 public polkaShare;\n    uint256 public DURATION = 365 days;\n\n    uint256 public starttime;\n    uint256 public periodFinish = 0;\n    uint256 public rewardRate = 0;\n    uint256 public lastUpdateTime;\n    uint256 public rewardPerTokenStored;\n    address public devAddr;\n    mapping(address => uint256) public userRewardPerTokenPaid;\n    mapping(address => uint256) public rewards;\n\n    event RewardAdded(uint256 reward);\n    event Staked(address indexed user, uint256 amount);\n    event Withdrawn(address indexed user, uint256 amount);\n    event RewardPaid(address indexed user, uint256 reward);\n\n    constructor(\n        address polkaShare_,\n        address lptoken_,\n        uint256 starttime_,\n        address devAddr_\n    ) public {\n        polkaShare = IERC20(polkaShare_);\n        lpt = IERC20(lptoken_);\n        starttime = starttime_;\n        devAddr = devAddr_;\n    }\n\n    modifier checkStart() {\n        require(\n            block.timestamp >= starttime,\n            'USDCPOSLPTokenSharePool: not start'\n        );\n        _;\n    }\n\n    modifier updateReward(address account) {\n        rewardPerTokenStored = rewardPerToken();\n        lastUpdateTime = lastTimeRewardApplicable();\n        if (account != address(0)) {\n            rewards[account] = earned(account);\n            userRewardPerTokenPaid[account] = rewardPerTokenStored;\n        }\n        _;\n    }\n\n    function lastTimeRewardApplicable() public view returns (uint256) {\n        return Math.min(block.timestamp, periodFinish);\n    }\n\n    function rewardPerToken() public view returns (uint256) {\n        if (totalSupply() == 0) {\n            return rewardPerTokenStored;\n        }\n        return\n            rewardPerTokenStored.add(\n                lastTimeRewardApplicable()\n                    .sub(lastUpdateTime)\n                    .mul(rewardRate)\n                    .mul(1e18)\n                    .div(totalSupply())\n            );\n    }\n\n    function earned(address account) public view returns (uint256) {\n        return\n            balanceOf(account)\n                .mul(rewardPerToken().sub(userRewardPerTokenPaid[account]))\n                .div(1e18)\n                .add(rewards[account]);\n    }\n\n    // stake visibility is public as overriding LPTokenWrapper's stake() function\n    function stake(uint256 amount)\n        public\n        override\n        updateReward(msg.sender)\n        checkStart\n    {\n        require(amount > 0, 'USDCPOSLPTokenSharePool: Cannot stake 0');\n        super.stake(amount);\n        emit Staked(msg.sender, amount);\n    }\n\n    function withdraw(uint256 amount)\n        public\n        override\n        updateReward(msg.sender)\n        checkStart\n    {\n        require(amount > 0, 'USDCPOSLPTokenSharePool: Cannot withdraw 0');\n        super.withdraw(amount);\n        emit Withdrawn(msg.sender, amount);\n    }\n\n    function exit() external {\n        withdraw(balanceOf(msg.sender));\n        getReward();\n    }\n\n    function getReward() public updateReward(msg.sender) checkStart {\n        uint256 reward = earned(msg.sender);\n        if (reward > 0) {\n            rewards[msg.sender] = 0;\n            polkaShare.safeTransfer(msg.sender, reward.mul(93).div(100));\n            polkaShare.safeTransfer(devAddr, reward.mul(7).div(100));\n            emit RewardPaid(msg.sender, reward);\n        }\n    }\n\n    function notifyRewardAmount(uint256 reward)\n        external\n        override\n        onlyRewardDistribution\n        updateReward(address(0))\n    {\n        if (block.timestamp > starttime) {\n            if (block.timestamp >= periodFinish) {\n                rewardRate = reward.div(DURATION);\n            } else {\n                uint256 remaining = periodFinish.sub(block.timestamp);\n                uint256 leftover = remaining.mul(rewardRate);\n                rewardRate = reward.add(leftover).div(DURATION);\n            }\n            lastUpdateTime = block.timestamp;\n            periodFinish = block.timestamp.add(DURATION);\n            emit RewardAdded(reward);\n        } else {\n            rewardRate = reward.div(DURATION);\n            lastUpdateTime = starttime;\n            periodFinish = starttime.add(DURATION);\n            emit RewardAdded(reward);\n        }\n    }\n}\n",
  "sourcePath": "/Users/anunair/work/release/new/POLKACASH_MAIN/contracts/distribution/USDCPOSLPTokenSharePool.sol",
  "compiler": {
    "name": "solc",
    "version": "0.6.12+commit.27d51765.Emscripten.clang"
  },
  "schemaVersion": "3.3.2",
  "updatedAt": "2021-01-26T14:23:57.410Z",
  "networkType": "ethereum",
  "devdoc": {
    "kind": "dev",
    "methods": {
      "owner()": {
        "details": "Returns the address of the current owner."
      },
      "renounceOwnership()": {
        "details": "Leaves the contract without owner. It will not be possible to call `onlyOwner` functions anymore. Can only be called by the current owner. NOTE: Renouncing ownership will leave the contract without an owner, thereby removing any functionality that is only available to the owner."
      },
      "transferOwnership(address)": {
        "details": "Transfers ownership of the contract to a new account (`newOwner`). Can only be called by the current owner."
      }
    },
    "version": 1
  },
  "userdoc": {
    "kind": "user",
    "methods": {},
    "version": 1
  }
}